04567981       00000000000897686402000128970019485906520000003131312500000200192A QUIN DE FEBRERO 2014 FMP   11GEO621201KIA 00000000000000                                               002ACATLAN DE PEREZ FIGUEROA                                          
04567981       00000000000897686402000146176550417274480000001512889500000500192A QUIN DE FEBRERO 2014 FMP   11GEO621201KIA 00000000000000                                               005ASUNCION IXTALTEPEC                                                
04567981       00000000000897686402000126220019501393310000000422334000000700192A QUIN DE FEBRERO 2014 FMP   11GEO621201KIA 00000000000000                                               007ASUNCION OCOTLAN                                                   
04567981       00000000000897686402000126280019498445500000000835157500000900192A QUIN DE FEBRERO 2014 FMP   11GEO621201KIA 00000000000000                                               009AYOTZINTEPEC                                                       
04567981       00000000000897686402000026277003715584380000001023638500001000192A QUIN DE FEBRERO 2014 FMP   11GEO621201KIA 00000000000000                                               010EL BARRIO DE LA SOLEDAD                                            
04567981       00000000000897686402000026407006755253770000000850530000001300192A QUIN DE FEBRERO 2014 FMP   11GEO621201KIA 00000000000000                                               013CIENEGA DE ZIMATLAN                                                
04567981       00000000000897686402000126160019489141470000002998616000001400192A QUIN DE FEBRERO 2014 FMP   11GEO621201KIA 00000000000000                                               014CIUDAD IXTEPEC                                                     
04567981       00000000000897686402000446100920266245070000000405974500001500192A QUIN DE FEBRERO 2014 FMP   11GEO621201KIA 00000000000000                                               015COATECAS ALTAS                                                     
04567981       00000000000897686402000216350405702226120000000371786000001600192A QUIN DE FEBRERO 2014 FMP   11GEO621201KIA 00000000000000                                               016COICOYAN DE LAS FLORES                                             
04567981       00000000000897686402000026227007278331840000000248450500001700192A QUIN DE FEBRERO 2014 FMP   11GEO621201KIA 00000000000000                                               017LA COMPANIA                                                        
04567981       00000000000897686402000126110019494341420000000227013000001800192A QUIN DE FEBRERO 2014 FMP   11GEO621201KIA 00000000000000                                               018CONCEPCION BUENAVISTA                                              
04567981       00000000000897686402000126250019484244820000000801985500002000192A QUIN DE FEBRERO 2014 FMP   11GEO621201KIA 00000000000000                                               020CONSTANCIA DEL ROSARIO                                             
04567981       00000000000897686402000148556550417156780000001011119000002100192A QUIN DE FEBRERO 2014 FMP   11GEO621201KIA 00000000000000                                               021COSOLAPA                                                           
04567981       00000000000897686402000026317005822282680000001142768000002500192A QUIN DE FEBRERO 2014 FMP   11GEO621201KIA 00000000000000                                               025CHAHUITES                                                          
04567981       00000000000897686402000026227007035342160000001185000000002800192A QUIN DE FEBRERO 2014 FMP   11GEO621201KIA 00000000000000                                               028HEROICA CIUDAD DE EJUTLA DE CRESPO                                 
04567981       00000000000897686402000026717007335296530000000851112000002900192A QUIN DE FEBRERO 2014 FMP   11GEO621201KIA 00000000000000                                               029ELOXOCHITLAN DE FLORES MAGON                                       
04567981       00000000000897686402000146176550415823820000000629740000003000192A QUIN DE FEBRERO 2014 FMP   11GEO621201KIA 00000000000000                                               030EL ESPINAL                                                         
04567981       00000000000897686402000146106550419040800000000258956000003300192A QUIN DE FEBRERO 2014 FMP   11GEO621201KIA 00000000000000                                               033GUADALUPE ETLA                                                     
04567981       00000000000897686402000126250019494429130000000279399000003700192A QUIN DE FEBRERO 2014 FMP   11GEO621201KIA 00000000000000                                               037MESONES HIDALGO                                                    
04567981       00000000000897686402000026717007073964850000000325034000004000192A QUIN DE FEBRERO 2014 FMP   11GEO621201KIA 00000000000000                                               040HUAUTEPEC                                                          
04567981       00000000000897686402000026717007200239130000003350286500004100192A QUIN DE FEBRERO 2014 FMP   11GEO621201KIA 00000000000000                                               041HUAUTLA DE JIMENEZ                                                 
04567981       00000000000897686402000216280405702214710000006576764500004400192A QUIN DE FEBRERO 2014 FMP   11GEO621201KIA 00000000000000                                               044LOMA BONITA                                                        
04567981       00000000000897686402000126110019502698980000000539416000004600192A QUIN DE FEBRERO 2014 FMP   11GEO621201KIA 00000000000000                                               046MAGDALENA JALTEPEC                                                 
04567981       00000000000897686402000126110019493998050000000149331000004700192A QUIN DE FEBRERO 2014 FMP   11GEO621201KIA 00000000000000                                               047SANTA MAGDALENA JICOTLAN                                           
04567981       00000000000897686402000026227000843516000000000222716500004900192A QUIN DE FEBRERO 2014 FMP   11GEO621201KIA 00000000000000                                               049MAGDALENA OCOTLAN                                                  
04567981       00000000000897686402000026387006145479750000000453947500005100192A QUIN DE FEBRERO 2014 FMP   11GEO621201KIA 00000000000000                                               051MAGDALENA TEITIPAC                                                 
04567981       00000000000897686402000026377004141446210000000580465000005200192A QUIN DE FEBRERO 2014 FMP   11GEO621201KIA 00000000000000                                               052MAGDALENA TEQUISISTLAN                                             
04567981       00000000000897686402000026107007747098910000000205566500005400192A QUIN DE FEBRERO 2014 FMP   11GEO621201KIA 00000000000000                                               054MAGDALENA ZAHUATLAN                                                
04567981       00000000000897686402000126230019506182200000000196611000005600192A QUIN DE FEBRERO 2014 FMP   11GEO621201KIA 00000000000000                                               056MARTIRES DE TACUBAYA                                               
04567981       00000000000897686402000126100019489017580000000337611500006000192A QUIN DE FEBRERO 2014 FMP   11GEO621201KIA 00000000000000                                               060MIXISTLAN DE LA REFORMA                                            
04567981       00000000000897686402000146106550417734310000000518278000006400192A QUIN DE FEBRERO 2014 FMP   11GEO621201KIA 00000000000000                                               064NEJAPA DE MADERO                                                   
04567981       00000000000897686402000446220930053066260000002235511500006800192A QUIN DE FEBRERO 2014 FMP   11GEO621201KIA 00000000000000                                               068OCOTLAN DE MORELOS                                                 
04567981       00000000000897686402000446220930053295930000000261981000006900192A QUIN DE FEBRERO 2014 FMP   11GEO621201KIA 00000000000000                                               069LA PE                                                              
04567981       00000000000897686402000026227001219590590000000330825000007200192A QUIN DE FEBRERO 2014 FMP   11GEO621201KIA 00000000000000                                               072SAN JOSE DEL PROGRESO                                              
04567981       00000000000897686402000126250019498080810000002469308500007300192A QUIN DE FEBRERO 2014 FMP   11GEO621201KIA 00000000000000                                               073PUTLA VILLA DE GUERRERO                                            
04567981       00000000000897686402000026100639012601670000000454607500007600192A QUIN DE FEBRERO 2014 FMP   11GEO621201KIA 00000000000000                                               076LA REFORMA                                                         
04567981       00000000000897686402000026107007728959140000000379459500007700192A QUIN DE FEBRERO 2014 FMP   11GEO621201KIA 00000000000000                                               077REYES ETLA                                                         
04567981       00000000000897686402000026387006472298910000000236915500007800192A QUIN DE FEBRERO 2014 FMP   11GEO621201KIA 00000000000000                                               078ROJAS DE CUAUHTEMOC                                                
04567981       00000000000897686402000126100018029025470000000235137500009400192A QUIN DE FEBRERO 2014 FMP   11GEO621201KIA 00000000000000                                               094SAN ANDRES NUXINO                                                  
04567981       00000000000897686402000026107007782670830000000143579500009600192A QUIN DE FEBRERO 2014 FMP   11GEO621201KIA 00000000000000                                               096SAN ANDRES SINAXTLA                                                
04567981       00000000000897686402000446100920266264790000000250641500009700192A QUIN DE FEBRERO 2014 FMP   11GEO621201KIA 00000000000000                                               097SAN ANDRES SOLAGA                                                  
04567981       00000000000897686402000026107007011076600000000315420500010200192A QUIN DE FEBRERO 2014 FMP   11GEO621201KIA 00000000000000                                               102SAN ANDRES ZAUTLA                                                  
04567981       00000000000897686402000446220930053302520000000829092500010300192A QUIN DE FEBRERO 2014 FMP   11GEO621201KIA 00000000000000                                               103SAN ANTONINO CASTILLO VELASCO                                      
04567981       00000000000897686402000146106550417157030000001788739500010700192A QUIN DE FEBRERO 2014 FMP   11GEO621201KIA 00000000000000                                               107SAN ANTONIO DE LA CAL                                              
04567981       00000000000897686402000126100019488671220000000272692500010800192A QUIN DE FEBRERO 2014 FMP   11GEO621201KIA 00000000000000                                               108SAN ANTONIO HUITEPEC                                               
04567981       00000000000897686402000126100019495487410000000867096000011200192A QUIN DE FEBRERO 2014 FMP   11GEO621201KIA 00000000000000                                               112SAN BALTAZAR CHICHICAPAM                                           
04567981       00000000000897686402000026217005806568260000000755483000011300192A QUIN DE FEBRERO 2014 FMP   11GEO621201KIA 00000000000000                                               113SAN BALTAZAR LOXICHA                                               
04567981       00000000000897686402000126100019502900750000000302695500011700192A QUIN DE FEBRERO 2014 FMP   11GEO621201KIA 00000000000000                                               117SAN BARTOLOME LOXICHA                                              
04567981       00000000000897686402000026387007228893760000000613087500011800192A QUIN DE FEBRERO 2014 FMP   11GEO621201KIA 00000000000000                                               118SAN BARTOLOME QUIALANA                                             
04567981       00000000000897686402000126100019508829170000000250219500012000192A QUIN DE FEBRERO 2014 FMP   11GEO621201KIA 00000000000000                                               120SAN BARTOLOME ZOOGOCHO                                             
04567981       00000000000897686402000126110019503710740000000195404500012100192A QUIN DE FEBRERO 2014 FMP   11GEO621201KIA 00000000000000                                               121SAN BARTOLO SOYALTEPEC                                             
04567981       00000000000897686402000026407006755246400000000401654000012300192A QUIN DE FEBRERO 2014 FMP   11GEO621201KIA 00000000000000                                               123SAN BERNARDO MIXTEPEC                                              
04567981       00000000000897686402000146106550420165080000001117730000012500192A QUIN DE FEBRERO 2014 FMP   11GEO621201KIA 00000000000000                                               125SAN CARLOS YAUTEPEC                                                
04567981       00000000000897686402000126100019493789950000000248137000012700192A QUIN DE FEBRERO 2014 FMP   11GEO621201KIA 00000000000000                                               127SAN CRISTOBAL AMOLTEPEC                                            
04567981       00000000000897686402000126110019485281850000000403482500012900192A QUIN DE FEBRERO 2014 FMP   11GEO621201KIA 00000000000000                                               129SAN CRISTOBAL SUCHIXTLAHUACA                                       
04567981       00000000000897686402000026227000264421370000000292043000013200192A QUIN DE FEBRERO 2014 FMP   11GEO621201KIA 00000000000000                                               132SAN DIONISIO OCOTLAN                                               
04567981       00000000000897686402000126280019489591610000001488620000013400192A QUIN DE FEBRERO 2014 FMP   11GEO621201KIA 00000000000000                                               134SAN FELIPE JALAPA DE DIAZ                                          
04567981       00000000000897686402000146289200190871510000001431780000013600192A QUIN DE FEBRERO 2014 FMP   11GEO621201KIA 00000000000000                                               136SAN FELIPE USILA                                                   
04567981       00000000000897686402000126100019488312840000000445875000013700192A QUIN DE FEBRERO 2014 FMP   11GEO621201KIA 00000000000000                                               137SAN FRANCISCO CAHUACUA                                             
04567981       00000000000897686402000026107007586977960000000148329000014000192A QUIN DE FEBRERO 2014 FMP   11GEO621201KIA 00000000000000                                               140SAN FRANCISCO CHINDUA                                              
04567981       00000000000897686402000026707005873790760000000200242500014200192A QUIN DE FEBRERO 2014 FMP   11GEO621201KIA 00000000000000                                               142SAN FRANCISCO HUEHUETLAN                                           
04567981       00000000000897686402000146106550417526560000000997337500014300192A QUIN DE FEBRERO 2014 FMP   11GEO621201KIA 00000000000000                                               143SAN FRANCISCO IXHUATAN                                             
04567981       00000000000897686402000026107007172582990000000176153500014400192A QUIN DE FEBRERO 2014 FMP   11GEO621201KIA 00000000000000                                               144SAN FRANCISCO JALTEPETONGO                                         
04567981       00000000000897686402000026107007088411780000000385435500014500192A QUIN DE FEBRERO 2014 FMP   11GEO621201KIA 00000000000000                                               145SAN FRANCISCO LACHIGOLO                                            
04567981       00000000000897686402000126110019510265060000000321284000014700192A QUIN DE FEBRERO 2014 FMP   11GEO621201KIA 00000000000000                                               147SAN FRANCISCO NUXANO                                               
04567981       00000000000897686402000026407007380473490000000299679500014900192A QUIN DE FEBRERO 2014 FMP   11GEO621201KIA 00000000000000                                               149SAN FRANCISCO SOLA                                                 
04567981       00000000000897686402000026107007011070710000000478570000015000192A QUIN DE FEBRERO 2014 FMP   11GEO621201KIA 00000000000000                                               150SAN FRANCISCO TELIXTLAHUACA                                        
04567981       00000000000897686402000126110019494563820000000150377000015100192A QUIN DE FEBRERO 2014 FMP   11GEO621201KIA 00000000000000                                               151SAN FRANCISCO TEOPAN                                               
04567981       00000000000897686402000446100920266616250000000286659000015500192A QUIN DE FEBRERO 2014 FMP   11GEO621201KIA 00000000000000                                               155SAN ILDEFONSO SOLA                                                 
04567981       00000000000897686402000026407006755247210000000326512000015800192A QUIN DE FEBRERO 2014 FMP   11GEO621201KIA 00000000000000                                               158SAN JACINTO TLACOTEPEC                                             
04567981       00000000000897686402000126220019497501450000000213530000016200192A QUIN DE FEBRERO 2014 FMP   11GEO621201KIA 00000000000000                                               162SAN JERONIMO TAVICHE                                               
04567981       00000000000897686402000026707006578277200000000453485500016300192A QUIN DE FEBRERO 2014 FMP   11GEO621201KIA 00000000000000                                               163SAN JERONIMO TECOATL                                               
04567981       00000000000897686402000126280019487115450000000660155000016600192A QUIN DE FEBRERO 2014 FMP   11GEO621201KIA 00000000000000                                               166SAN JOSE CHILTEPEC                                                 
04567981       00000000000897686402000026217005838631400000000273972000016700192A QUIN DE FEBRERO 2014 FMP   11GEO621201KIA 00000000000000                                               167SAN JOSE DEL PENASCO                                               
04567981       00000000000897686402000126280019500355520000000462651000016900192A QUIN DE FEBRERO 2014 FMP   11GEO621201KIA 00000000000000                                               169SAN JOSE INDEPENDENCIA                                             
04567981       00000000000897686402000366105002129984370000001188574000017100192A QUIN DE FEBRERO 2014 FMP   11GEO621201KIA 00000000000000                                               171SAN JOSE TENANGO                                                   
04567981       00000000000897686402000026137006413580390000000099360000017200192A QUIN DE FEBRERO 2014 FMP   11GEO621201KIA 00000000000000                                               172SAN JUAN ACHIUTLA                                                  
04567981       00000000000897686402000126110019501794700000000407451500017600192A QUIN DE FEBRERO 2014 FMP   11GEO621201KIA 00000000000000                                               176SAN JUAN BAUTISTA COIXTLAHUACA                                     
04567981       00000000000897686402000126280019489352240000000247463000018200192A QUIN DE FEBRERO 2014 FMP   11GEO621201KIA 00000000000000                                               182SAN JUAN BAUTISTA TLACOATZINTEPEC                                  
04567981       00000000000897686402000126230019498315710000000500869000018500192A QUIN DE FEBRERO 2014 FMP   11GEO621201KIA 00000000000000                                               185SAN JUAN CACAHUATEPEC                                              
04567981       00000000000897686402000146236550417207300000000350286000018800192A QUIN DE FEBRERO 2014 FMP   11GEO621201KIA 00000000000000                                               188SAN JUAN COLORADO                                                  
04567981       00000000000897686402000146106550416989980000000218048000018900192A QUIN DE FEBRERO 2014 FMP   11GEO621201KIA 00000000000000                                               189SAN JUAN COMALTEPEC                                                
04567981       00000000000897686402000148556550416107150000000747365000019000192A QUIN DE FEBRERO 2014 FMP   11GEO621201KIA 00000000000000                                               190SAN JUAN COTZOCON                                                  
04567981       00000000000897686402000446220930052825040000000258555000019200192A QUIN DE FEBRERO 2014 FMP   11GEO621201KIA 00000000000000                                               192SAN JUAN CHILATECA                                                 
04567981       00000000000897686402000026387006843339600000000292538000019400192A QUIN DE FEBRERO 2014 FMP   11GEO621201KIA 00000000000000                                               194SAN JUAN DEL RIO                                                   
04567981       00000000000897686402000026107007747094640000000325953500019500192A QUIN DE FEBRERO 2014 FMP   11GEO621201KIA 00000000000000                                               195SAN JUAN DIUXI                                                     
04567981       00000000000897686402000126100019486013620000000548492000019700192A QUIN DE FEBRERO 2014 FMP   11GEO621201KIA 00000000000000                                               197SAN JUAN GUELAVIA                                                  
04567981       00000000000897686402000446200860034157640000003220335500019800192A QUIN DE FEBRERO 2014 FMP   11GEO621201KIA 00000000000000                                               198SAN JUAN GUICHICOVI                                                
04567981       00000000000897686402000446142070002105950000000212700000019900192A QUIN DE FEBRERO 2014 FMP   11GEO621201KIA 00000000000000                                               199SAN JUAN IHUALTEPEC                                                
04567981       00000000000897686402000446220930053067070000000315047000020300192A QUIN DE FEBRERO 2014 FMP   11GEO621201KIA 00000000000000                                               203SAN JUAN LACHIGALLA                                                
04567981       00000000000897686402000126100019514279280000000190674000020400192A QUIN DE FEBRERO 2014 FMP   11GEO621201KIA 00000000000000                                               204SAN JUAN LAJARCIA                                                  
04567981       00000000000897686402000148556550418432650000001368209500020500192A QUIN DE FEBRERO 2014 FMP   11GEO621201KIA 00000000000000                                               205SAN JUAN LALANA                                                    
04567981       00000000000897686402000146106550419332710000000271763000021200192A QUIN DE FEBRERO 2014 FMP   11GEO621201KIA 00000000000000                                               212SAN JUAN PETLAPA                                                   
04567981       00000000000897686402000126100019499604680000000446265000021300192A QUIN DE FEBRERO 2014 FMP   11GEO621201KIA 00000000000000                                               213SAN JUAN QUIAHIJE                                                  
04567981       00000000000897686402000446100920265771620000000219721000021400192A QUIN DE FEBRERO 2014 FMP   11GEO621201KIA 00000000000000                                               214SAN JUAN QUIOTEPEC                                                 
04567981       00000000000897686402000026107007419438710000000227886500021500192A QUIN DE FEBRERO 2014 FMP   11GEO621201KIA 00000000000000                                               215SAN JUAN SAYULTEPEC                                                
04567981       00000000000897686402000026387006257147970000000370389500021900192A QUIN DE FEBRERO 2014 FMP   11GEO621201KIA 00000000000000                                               219SAN JUAN TEITIPAC                                                  
04567981       00000000000897686402000126100019503337380000000346010000022300192A QUIN DE FEBRERO 2014 FMP   11GEO621201KIA 00000000000000                                               223SAN JUAN YATZONA                                                   
04567981       00000000000897686402000026107007777142360000000190264000022400192A QUIN DE FEBRERO 2014 FMP   11GEO621201KIA 00000000000000                                               224SAN JUAN YUCUITA                                                   
04567981       00000000000897686402000026387007079683800000000508551500022600192A QUIN DE FEBRERO 2014 FMP   11GEO621201KIA 00000000000000                                               226SAN LORENZO ALBARRADAS                                             
04567981       00000000000897686402000126100019496937510000001160547500022700192A QUIN DE FEBRERO 2014 FMP   11GEO621201KIA 00000000000000                                               227SAN LORENZO CACAOTEPEC                                             
04567981       00000000000897686402000026707006685410660000000279760000022800192A QUIN DE FEBRERO 2014 FMP   11GEO621201KIA 00000000000000                                               228SAN LORENZO CUAUNECUILTITLA                                        
04567981       00000000000897686402000026407006755252960000000354714500022900192A QUIN DE FEBRERO 2014 FMP   11GEO621201KIA 00000000000000                                               229SAN LORENZO TEXMELUCAN                                             
04567981       00000000000897686402000446142070002106760000000191260500023000192A QUIN DE FEBRERO 2014 FMP   11GEO621201KIA 00000000000000                                               230SAN LORENZO VICTORIA                                               
04567981       00000000000897686402000126100019509981150000000275193000023100192A QUIN DE FEBRERO 2014 FMP   11GEO621201KIA 00000000000000                                               231SAN LUCAS CAMOTLAN                                                 
04567981       00000000000897686402000148556550417121500000001442925000023200192A QUIN DE FEBRERO 2014 FMP   11GEO621201KIA 00000000000000                                               232SAN LUCAS OJITLAN                                                  
04567981       00000000000897686402000146106550422425180000000637311000023300192A QUIN DE FEBRERO 2014 FMP   11GEO621201KIA 00000000000000                                               233SAN LUCAS QUIAVINI                                                 
04567981       00000000000897686402000026717007134414050000000342131000023400192A QUIN DE FEBRERO 2014 FMP   11GEO621201KIA 00000000000000                                               234SAN LUCAS ZOQUIAPAM                                                
04567981       00000000000897686402000026357000225385080000000401214000024200192A QUIN DE FEBRERO 2014 FMP   11GEO621201KIA 00000000000000                                               242SAN MARTIN PERAS                                                   
04567981       00000000000897686402000446220930053307600000000423512000024300192A QUIN DE FEBRERO 2014 FMP   11GEO621201KIA 00000000000000                                               243SAN MARTIN TILCAJETE                                               
04567981       00000000000897686402000026717007158982890000000414070500024900192A QUIN DE FEBRERO 2014 FMP   11GEO621201KIA 00000000000000                                               249SAN MATEO YOLOXOCHITLAN                                            
04567981       00000000000897686402000026107007476135450000000307579500025000192A QUIN DE FEBRERO 2014 FMP   11GEO621201KIA 00000000000000                                               250SAN MATEO ETLATONGO                                                
04567981       00000000000897686402000146106550417668620000000354591500025300192A QUIN DE FEBRERO 2014 FMP   11GEO621201KIA 00000000000000                                               253SAN MATEO PINAS                                                    
04567981       00000000000897686402000126110019503243190000000234728000025500192A QUIN DE FEBRERO 2014 FMP   11GEO621201KIA 00000000000000                                               255SAN MATEO SINDIHUI                                                 
04567981       00000000000897686402000026107007696084280000000228643500026000192A QUIN DE FEBRERO 2014 FMP   11GEO621201KIA 00000000000000                                               260SAN MIGUEL ALOAPAM                                                 
04567981       00000000000897686402000126100019513348330000000438879500026400192A QUIN DE FEBRERO 2014 FMP   11GEO621201KIA 00000000000000                                               264SAN MIGUEL CHICAHUA                                                
04567981       00000000000897686402000146106550416524130000002861755000026600192A QUIN DE FEBRERO 2014 FMP   11GEO621201KIA 00000000000000                                               266SAN MIGUEL DEL PUERTO                                              
04567981       00000000000897686402000026227001264097660000000226101000026800192A QUIN DE FEBRERO 2014 FMP   11GEO621201KIA 00000000000000                                               268SAN MIGUEL EJUTLA                                                  
04567981       00000000000897686402000126100019491142300000001137247000026900192A QUIN DE FEBRERO 2014 FMP   11GEO621201KIA 00000000000000                                               269SAN MIGUEL EL GRANDE                                               
04567981       00000000000897686402000126110019486965670000000275238500027000192A QUIN DE FEBRERO 2014 FMP   11GEO621201KIA 00000000000000                                               270SAN MIGUEL HUAUTLA                                                 
04567981       00000000000897686402000026247001040853750000000320925000027200192A QUIN DE FEBRERO 2014 FMP   11GEO621201KIA 00000000000000                                               272SAN MIGUEL PANIXTLAHUACA                                           
04567981       00000000000897686402000026107007777146630000000250151000027400192A QUIN DE FEBRERO 2014 FMP   11GEO621201KIA 00000000000000                                               274SAN MIGUEL PIEDRAS                                                 
04567981       00000000000897686402000026107007126938620000000326484000027500192A QUIN DE FEBRERO 2014 FMP   11GEO621201KIA 00000000000000                                               275SAN MIGUEL QUETZALTEPEC                                            
04567981       00000000000897686402000128980019486304690000002802983500027800192A QUIN DE FEBRERO 2014 FMP   11GEO621201KIA 00000000000000                                               278SAN MIGUEL SOYALTEPEC                                              
04567981       00000000000897686402000126110019505344710000000155260000028100192A QUIN DE FEBRERO 2014 FMP   11GEO621201KIA 00000000000000                                               281SAN MIGUEL TECOMATLAN                                              
04567981       00000000000897686402000126110019496577960000000276802000028300192A QUIN DE FEBRERO 2014 FMP   11GEO621201KIA 00000000000000                                               283SAN MIGUEL TEQUIXTEPEC                                             
04567981       00000000000897686402000446220930053294090000000741155000028400192A QUIN DE FEBRERO 2014 FMP   11GEO621201KIA 00000000000000                                               284SAN MIGUEL TILQUIAPAM                                              
04567981       00000000000897686402000216350405702239410000000482536000028600192A QUIN DE FEBRERO 2014 FMP   11GEO621201KIA 00000000000000                                               286SAN MIGUEL TLACOTEPEC                                              
04567981       00000000000897686402000126110019494846710000000161530500028700192A QUIN DE FEBRERO 2014 FMP   11GEO621201KIA 00000000000000                                               287SAN MIGUEL TULANCINGO                                              
04567981       00000000000897686402000146146550417301790000000196781500029000192A QUIN DE FEBRERO 2014 FMP   11GEO621201KIA 00000000000000                                               290SAN NICOLAS HIDALGO                                                
04567981       00000000000897686402000126100019495245610000000242812500029200192A QUIN DE FEBRERO 2014 FMP   11GEO621201KIA 00000000000000                                               292SAN PABLO CUATRO VENADOS                                           
04567981       00000000000897686402000446100920265756270000001613470500029300192A QUIN DE FEBRERO 2014 FMP   11GEO621201KIA 00000000000000                                               293SAN PABLO ETLA                                                     
04567981       00000000000897686402000126100019495426240000001321463000029500192A QUIN DE FEBRERO 2014 FMP   11GEO621201KIA 00000000000000                                               295SAN PABLO HUIXTEPEC                                                
04567981       00000000000897686402000026387006158735540000000916549000029800192A QUIN DE FEBRERO 2014 FMP   11GEO621201KIA 00000000000000                                               298SAN PABLO VILLA DE MITLA                                           
04567981       00000000000897686402000126100019514612720000000244140000029900192A QUIN DE FEBRERO 2014 FMP   11GEO621201KIA 00000000000000                                               299SAN PABLO YAGANIZA                                                 
04567981       00000000000897686402000026100639012604000000000479855000030000192A QUIN DE FEBRERO 2014 FMP   11GEO621201KIA 00000000000000                                               300SAN PEDRO AMUZGOS                                                  
04567981       00000000000897686402000126220019486125690000000627911500030100192A QUIN DE FEBRERO 2014 FMP   11GEO621201KIA 00000000000000                                               301SAN PEDRO APOSTOL                                                  
04567981       00000000000897686402000126230019499159180000000328434500030200192A QUIN DE FEBRERO 2014 FMP   11GEO621201KIA 00000000000000                                               302SAN PEDRO ATOYAC                                                   
04567981       00000000000897686402000126100019492176320000000170691000030300192A QUIN DE FEBRERO 2014 FMP   11GEO621201KIA 00000000000000                                               303SAN PEDRO CAJONOS                                                  
04567981       00000000000897686402000126110019502405610000000204818000030400192A QUIN DE FEBRERO 2014 FMP   11GEO621201KIA 00000000000000                                               304SAN PEDRO COXCALTEPEC CANTAROS                                     
04567981       00000000000897686402000026167004622396770000000484261000030500192A QUIN DE FEBRERO 2014 FMP   11GEO621201KIA 00000000000000                                               305SAN PEDRO COMITANCILLO                                             
04567981       00000000000897686402000026217005813832950000000456322500030600192A QUIN DE FEBRERO 2014 FMP   11GEO621201KIA 00000000000000                                               306SAN PEDRO EL ALTO                                                  
04567981       00000000000897686402000216260405702222070000000689338000030800192A QUIN DE FEBRERO 2014 FMP   11GEO621201KIA 00000000000000                                               308SAN PEDRO HUILOTEPEC                                               
04567981       00000000000897686402000126280019488225310000000758068500030900192A QUIN DE FEBRERO 2014 FMP   11GEO621201KIA 00000000000000                                               309SAN PEDRO IXCATLAN                                                 
04567981       00000000000897686402000446220930053299170000000355397000031500192A QUIN DE FEBRERO 2014 FMP   11GEO621201KIA 00000000000000                                               315SAN PEDRO MARTIR                                                   
04567981       00000000000897686402000126100019493860710000000300472500031600192A QUIN DE FEBRERO 2014 FMP   11GEO621201KIA 00000000000000                                               316SAN PEDRO MARTIR QUIECHAPA                                         
04567981       00000000000897686402000026137006004888430000000304489500031700192A QUIN DE FEBRERO 2014 FMP   11GEO621201KIA 00000000000000                                               317SAN PEDRO MARTIR YUCUXACO                                          
04567981       00000000000897686402000126100019498682270000000134390000032000192A QUIN DE FEBRERO 2014 FMP   11GEO621201KIA 00000000000000                                               320SAN PEDRO MOLINOS                                                  
04567981       00000000000897686402000026707006528660030000000280430000032200192A QUIN DE FEBRERO 2014 FMP   11GEO621201KIA 00000000000000                                               322SAN PEDRO OCOPETATILLO                                             
04567981       00000000000897686402000126100019489771480000000224687000032300192A QUIN DE FEBRERO 2014 FMP   11GEO621201KIA 00000000000000                                               323SAN PEDRO OCOTEPEC                                                 
04567981       00000000000897686402000446300940058480070000002295898000032400192A QUIN DE FEBRERO 2014 FMP   11GEO621201KIA 00000000000000                                               324SAN PEDRO POCHUTLA                                                 
04567981       00000000000897686402000026387006022860280000000976592000032500192A QUIN DE FEBRERO 2014 FMP   11GEO621201KIA 00000000000000                                               325SAN PEDRO QUIATONI                                                 
04567981       00000000000897686402000026317005814937190000002780373500032700192A QUIN DE FEBRERO 2014 FMP   11GEO621201KIA 00000000000000                                               327SAN PEDRO TAPANATEPEC                                              
04567981       00000000000897686402000446220930053070070000000205320000032800192A QUIN DE FEBRERO 2014 FMP   11GEO621201KIA 00000000000000                                               328SAN PEDRO TAVICHE                                                  
04567981       00000000000897686402000026107007728956710000000205168500032900192A QUIN DE FEBRERO 2014 FMP   11GEO621201KIA 00000000000000                                               329SAN PEDRO TEOZACOALCO                                              
04567981       00000000000897686402000148556550419994490000000279286000033000192A QUIN DE FEBRERO 2014 FMP   11GEO621201KIA 00000000000000                                               330SAN PEDRO TEUTILA                                                  
04567981       00000000000897686402000126110019505778780000000294150000033100192A QUIN DE FEBRERO 2014 FMP   11GEO621201KIA 00000000000000                                               331SAN PEDRO TIDAA                                                    
04567981       00000000000897686402000026387006704539220000000164073500033300192A QUIN DE FEBRERO 2014 FMP   11GEO621201KIA 00000000000000                                               333SAN PEDRO TOTOLAPAM                                                
04567981       00000000000897686402000026247001040845670000001883096500033400192A QUIN DE FEBRERO 2014 FMP   11GEO621201KIA 00000000000000                                               334VILLA DE TUTUTEPEC DE MELCHOR OCAMPO                               
04567981       00000000000897686402000026357000225381840000001027376500034800192A QUIN DE FEBRERO 2014 FMP   11GEO621201KIA 00000000000000                                               348SAN SEBASTIAN TECOMAXTLAHUACA                                      
04567981       00000000000897686402000026707006627141030000000226952500035400192A QUIN DE FEBRERO 2014 FMP   11GEO621201KIA 00000000000000                                               354SANTA ANA ATEIXTLAHUACA                                            
04567981       00000000000897686402000126100019509179920000000227400000035500192A QUIN DE FEBRERO 2014 FMP   11GEO621201KIA 00000000000000                                               355SANTA ANA CUAUHTEMOC                                               
04567981       00000000000897686402000026387006640200020000000314408000035600192A QUIN DE FEBRERO 2014 FMP   11GEO621201KIA 00000000000000                                               356SANTA ANA DEL VALLE                                                
04567981       00000000000897686402000126100019517137710000000263246500035700192A QUIN DE FEBRERO 2014 FMP   11GEO621201KIA 00000000000000                                               357SANTA ANA TAVELA                                                   
04567981       00000000000897686402000026217005630085430000000287472000036200192A QUIN DE FEBRERO 2014 FMP   11GEO621201KIA 00000000000000                                               362SANTA CATARINA CUIXTLA                                             
04567981       00000000000897686402000126100019488690940000001445365500036400192A QUIN DE FEBRERO 2014 FMP   11GEO621201KIA 00000000000000                                               364SANTA CATARINA JUQUILA                                             
04567981       00000000000897686402000146236550418107470000000365597500036700192A QUIN DE FEBRERO 2014 FMP   11GEO621201KIA 00000000000000                                               367SANTA CATARINA MECHOACAN                                           
04567981       00000000000897686402000446220930053058180000000783720500036800192A QUIN DE FEBRERO 2014 FMP   11GEO621201KIA 00000000000000                                               368SANTA CATARINA MINAS                                               
04567981       00000000000897686402000026137006291857610000000255142000037000192A QUIN DE FEBRERO 2014 FMP   11GEO621201KIA 00000000000000                                               370SANTA CATARINA TAYATA                                              
04567981       00000000000897686402000216330405702201400000001091574000037500192A QUIN DE FEBRERO 2014 FMP   11GEO621201KIA 00000000000000                                               375SANTA CRUZ AMILPAS                                                 
04567981       00000000000897686402000146146550417981660000000167793500037600192A QUIN DE FEBRERO 2014 FMP   11GEO621201KIA 00000000000000                                               376SANTA CRUZ DE BRAVO                                                
04567981       00000000000897686402000026137006044317150000000764939500037700192A QUIN DE FEBRERO 2014 FMP   11GEO621201KIA 00000000000000                                               377SANTA CRUZ ITUNDUJIA                                               
04567981       00000000000897686402000126100019494209400000000235913000037900192A QUIN DE FEBRERO 2014 FMP   11GEO621201KIA 00000000000000                                               379SANTA CRUZ NUNDACO                                                 
04567981       00000000000897686402000126100019498838880000000259659500038200192A QUIN DE FEBRERO 2014 FMP   11GEO621201KIA 00000000000000                                               382SANTA CRUZ TACAHUA                                                 
04567981       00000000000897686402000446100920266241830000000354700000038700192A QUIN DE FEBRERO 2014 FMP   11GEO621201KIA 00000000000000                                               387SANTA GERTRUDIS                                                    
04567981       00000000000897686402000146106550415684840000002089720500039000192A QUIN DE FEBRERO 2014 FMP   11GEO621201KIA 00000000000000                                               390SANTA LUCIA DEL CAMINO                                             
04567981       00000000000897686402000446220930053315780000000326024500039300192A QUIN DE FEBRERO 2014 FMP   11GEO621201KIA 00000000000000                                               393SANTA LUCIA OCOTLAN                                                
04567981       00000000000897686402000126100019489511800000000194818000039400192A QUIN DE FEBRERO 2014 FMP   11GEO621201KIA 00000000000000                                               394SANTA MARIA ALOTEPEC                                               
04567981       00000000000897686402000026107007777139360000000291067000039500192A QUIN DE FEBRERO 2014 FMP   11GEO621201KIA 00000000000000                                               395SANTA MARIA APAZCO                                                 
04567981       00000000000897686402000026707006468802020000000314422000039600192A QUIN DE FEBRERO 2014 FMP   11GEO621201KIA 00000000000000                                               396SANTA MARIA LA ASUNCION                                            
04567981       00000000000897686402000026407006647056160000000612439500039800192A QUIN DE FEBRERO 2014 FMP   11GEO621201KIA 00000000000000                                               398AYOQUEZCO DE ALDAMA                                                
04567981       00000000000897686402000126110019508871280000000285864500040400192A QUIN DE FEBRERO 2014 FMP   11GEO621201KIA 00000000000000                                               404SANTA MARIA CHACHOAPAM                                             
04567981       00000000000897686402000026347005126223780000011782676500041300192A QUIN DE FEBRERO 2014 FMP   11GEO621201KIA 00000000000000                                               413SANTA MARIA HUATULCO                                               
04567981       00000000000897686402000146236550417218100000000709700500041400192A QUIN DE FEBRERO 2014 FMP   11GEO621201KIA 00000000000000                                               414SANTA MARIA HUAZOLOTITLAN                                          
04567981       00000000000897686402000216280405702209770000001082426500041700192A QUIN DE FEBRERO 2014 FMP   11GEO621201KIA 00000000000000                                               417SANTA MARIA JACATEPEC                                              
04567981       00000000000897686402000026107007688307470000000212654000042200192A QUIN DE FEBRERO 2014 FMP   11GEO621201KIA 00000000000000                                               422SANTA MARIA NATIVITAS                                              
04567981       00000000000897686402000126110019515240240000000167056000042300192A QUIN DE FEBRERO 2014 FMP   11GEO621201KIA 00000000000000                                               423SANTA MARIA NDUAYACO                                               
04567981       00000000000897686402000446100920266233750000000274520000042800192A QUIN DE FEBRERO 2014 FMP   11GEO621201KIA 00000000000000                                               428SANTA MARIA QUIEGOLANI                                             
04567981       00000000000897686402000216100405702235260000000240652000043300192A QUIN DE FEBRERO 2014 FMP   11GEO621201KIA 00000000000000                                               433SANTA MARIA TEMAXCALTEPEC                                          
04567981       00000000000897686402000126100019518229890000000218098500043600192A QUIN DE FEBRERO 2014 FMP   11GEO621201KIA 00000000000000                                               436SANTA MARIA TEXCATITLAN                                            
04567981       00000000000897686402000126100019490906260000000360713000043700192A QUIN DE FEBRERO 2014 FMP   11GEO621201KIA 00000000000000                                               437SANTA MARIA TLAHUITOLTEPEC                                         
04567981       00000000000897686402000446300940058483530000011365672000043900192A QUIN DE FEBRERO 2014 FMP   11GEO621201KIA 00000000000000                                               439SANTA MARIA TONAMECA                                               
04567981       00000000000897686402000126100019498615670000000167555500044200192A QUIN DE FEBRERO 2014 FMP   11GEO621201KIA 00000000000000                                               442SANTA MARIA YALINA                                                 
04567981       00000000000897686402000126100019490983690000000194050000044400192A QUIN DE FEBRERO 2014 FMP   11GEO621201KIA 00000000000000                                               444SANTA MARIA YOLOTEPEC                                              
04567981       00000000000897686402000026367002815875930000001353504000044700192A QUIN DE FEBRERO 2014 FMP   11GEO621201KIA 00000000000000                                               447SANTA MARIA ZACATEPEC                                              
04567981       00000000000897686402000146106550421741650000000213196000044800192A QUIN DE FEBRERO 2014 FMP   11GEO621201KIA 00000000000000                                               448SANTA MARIA ZANIZA                                                 
04567981       00000000000897686402000126100019495392420000000266434000044900192A QUIN DE FEBRERO 2014 FMP   11GEO621201KIA 00000000000000                                               449SANTA MARIA ZOQUITLAN                                              
04567981       00000000000897686402000126100019495376260000000425755000045000192A QUIN DE FEBRERO 2014 FMP   11GEO621201KIA 00000000000000                                               450SANTIAGO AMOLTEPEC                                                 
04567981       00000000000897686402000026107007728877310000000233033000045100192A QUIN DE FEBRERO 2014 FMP   11GEO621201KIA 00000000000000                                               451SANTIAGO APOALA                                                    
04567981       00000000000897686402000446220930053051480000000535227000045200192A QUIN DE FEBRERO 2014 FMP   11GEO621201KIA 00000000000000                                               452SANTIAGO APOSTOL                                                   
04567981       00000000000897686402000146146550417950910000000351307500045600192A QUIN DE FEBRERO 2014 FMP   11GEO621201KIA 00000000000000                                               456SANTIAGO CACALOXTEPEC                                              
04567981       00000000000897686402000026357000517635060000000239265000046100192A QUIN DE FEBRERO 2014 FMP   11GEO621201KIA 00000000000000                                               461SANTIAGO DEL RIO                                                   
04567981       00000000000897686402000026107007766380960000000180104000046300192A QUIN DE FEBRERO 2014 FMP   11GEO621201KIA 00000000000000                                               463SANTIAGO HUAUCLILLA                                                
04567981       00000000000897686402000126110019495379710000000173484000046400192A QUIN DE FEBRERO 2014 FMP   11GEO621201KIA 00000000000000                                               464SANTIAGO IHUITLAN PLUMAS                                           
04567981       00000000000897686402000146236550417129420000000413516000046600192A QUIN DE FEBRERO 2014 FMP   11GEO621201KIA 00000000000000                                               466SANTIAGO IXTAYUTLA                                                 
04567981       00000000000897686402000126230019493039860000007550949000046700192A QUIN DE FEBRERO 2014 FMP   11GEO621201KIA 00000000000000                                               467SANTIAGO JAMILTEPEC                                                
04567981       00000000000897686402000026357000225389350000002414743500046900192A QUIN DE FEBRERO 2014 FMP   11GEO621201KIA 00000000000000                                               469SANTIAGO JUXTLAHUACA                                               
04567981       00000000000897686402000126110019505150920000000154493000047900192A QUIN DE FEBRERO 2014 FMP   11GEO621201KIA 00000000000000                                               479SANTIAGO NEJAPILLA                                                 
04567981       00000000000897686402000026137006126060790000000290730500048100192A QUIN DE FEBRERO 2014 FMP   11GEO621201KIA 00000000000000                                               481SANTIAGO NUYOO                                                     
04567981       00000000000897686402000146236550417128030000003555411500048200192A QUIN DE FEBRERO 2014 FMP   11GEO621201KIA 00000000000000                                               482SANTIAGO PINOTEPA NACIONAL                                         
04567981       00000000000897686402000146146550417188870000000487845000048400192A QUIN DE FEBRERO 2014 FMP   11GEO621201KIA 00000000000000                                               484SANTIAGO TAMAZOLA                                                  
04567981       00000000000897686402000146236550418717150000000388965000048500192A QUIN DE FEBRERO 2014 FMP   11GEO621201KIA 00000000000000                                               485SANTIAGO TAPEXTLA                                                  
04567981       00000000000897686402000126110019487808680000000197965000048800192A QUIN DE FEBRERO 2014 FMP   11GEO621201KIA 00000000000000                                               488SANTIAGO TEPETLAPA                                                 
04567981       00000000000897686402000026717007158980140000000287721500049000192A QUIN DE FEBRERO 2014 FMP   11GEO621201KIA 00000000000000                                               490SANTIAGO TEXCALCINGO                                               
04567981       00000000000897686402000126110019494099730000000449571000049200192A QUIN DE FEBRERO 2014 FMP   11GEO621201KIA 00000000000000                                               492SANTIAGO TILANTONGO                                                
04567981       00000000000897686402000126110019503846470000000167704000049300192A QUIN DE FEBRERO 2014 FMP   11GEO621201KIA 00000000000000                                               493SANTIAGO TILLO                                                     
04567981       00000000000897686402000446300940058487800000000290506000049500192A QUIN DE FEBRERO 2014 FMP   11GEO621201KIA 00000000000000                                               495SANTIAGO XANICA                                                    
04567981       00000000000897686402000126280019500510860000000552226500049800192A QUIN DE FEBRERO 2014 FMP   11GEO621201KIA 00000000000000                                               498SANTIAGO YAVEO                                                     
04567981       00000000000897686402000026137006360525310000000464401500050000192A QUIN DE FEBRERO 2014 FMP   11GEO621201KIA 00000000000000                                               500SANTIAGO YOSONDUA                                                  
04567981       00000000000897686402000126100018040015720000000229817000050300192A QUIN DE FEBRERO 2014 FMP   11GEO621201KIA 00000000000000                                               503SANTIAGO ZOOCHILA                                                  
04567981       00000000000897686402000126100019500362840000000316724000050400192A QUIN DE FEBRERO 2014 FMP   11GEO621201KIA 00000000000000                                               504NUEVO ZOQUIAPAM                                                    
04567981       00000000000897686402000146236550417375320000000367208500050700192A QUIN DE FEBRERO 2014 FMP   11GEO621201KIA 00000000000000                                               507SANTO DOMINGO ARMENTA                                              
04567981       00000000000897686402000446300940058477070000000648338500050900192A QUIN DE FEBRERO 2014 FMP   11GEO621201KIA 00000000000000                                               509SANTO DOMINGO DE MORELOS                                           
04567981       00000000000897686402000026107007365202090000000425220500051100192A QUIN DE FEBRERO 2014 FMP   11GEO621201KIA 00000000000000                                               511SANTO DOMINGO NUXAA                                                
04567981       00000000000897686402000026277003841990910000000402602000051300192A QUIN DE FEBRERO 2014 FMP   11GEO621201KIA 00000000000000                                               513SANTO DOMINGO PETAPA                                               
04567981       00000000000897686402000126100019498917150000000254404000051400192A QUIN DE FEBRERO 2014 FMP   11GEO621201KIA 00000000000000                                               514SANTO DOMINGO ROAYAGA                                              
04567981       00000000000897686402000446100920266052090000000313677000051600192A QUIN DE FEBRERO 2014 FMP   11GEO621201KIA 00000000000000                                               516SANTO DOMINGO TEOJOMULCO                                           
04567981       00000000000897686402000126110019497968060000000172348500051800192A QUIN DE FEBRERO 2014 FMP   11GEO621201KIA 00000000000000                                               518SANTO DOMINGO TLATAYAPAM                                           
04567981       00000000000897686402000026107007740715290000000188452000052100192A QUIN DE FEBRERO 2014 FMP   11GEO621201KIA 00000000000000                                               521SANTO DOMINGO TONALTEPEC                                           
04567981       00000000000897686402000446142070001954290000000165246500052400192A QUIN DE FEBRERO 2014 FMP   11GEO621201KIA 00000000000000                                               524SANTO DOMINGO YODOHINO                                             
04567981       00000000000897686402000026317005493863050000000932562000052500192A QUIN DE FEBRERO 2014 FMP   11GEO621201KIA 00000000000000                                               525SANTO DOMINGO ZANATEPEC                                            
04567981       00000000000897686402000026247001040846480000000761179500052600192A QUIN DE FEBRERO 2014 FMP   11GEO621201KIA 00000000000000                                               526SANTOS REYES NOPALA                                                
04567981       00000000000897686402000026227007071561790000000357266500053400192A QUIN DE FEBRERO 2014 FMP   11GEO621201KIA 00000000000000                                               534SAN VICENTE COATLAN                                                
04567981       00000000000897686402000026407007234295870000000276211000053500192A QUIN DE FEBRERO 2014 FMP   11GEO621201KIA 00000000000000                                               535SAN VICENTE LACHIXIO                                               
04567981       00000000000897686402000026357001342051140000000824313500053700192A QUIN DE FEBRERO 2014 FMP   11GEO621201KIA 00000000000000                                               537SILACAYOAPAM                                                       
04567981       00000000000897686402000026227007480926870000000278840500054200192A QUIN DE FEBRERO 2014 FMP   11GEO621201KIA 00000000000000                                               542TANICHE                                                            
04567981       00000000000897686402000126700019503262800000001726460500054500192A QUIN DE FEBRERO 2014 FMP   11GEO621201KIA 00000000000000                                               545TEOTITLAN DE FLORES MAGON                                          
04567981       00000000000897686402000026387006472294640000000524231000054600192A QUIN DE FEBRERO 2014 FMP   11GEO621201KIA 00000000000000                                               546TEOTITLAN DEL VALLE                                                
04567981       00000000000897686402000026387006145481940000002804637500055100192A QUIN DE FEBRERO 2014 FMP   11GEO621201KIA 00000000000000                                               551TLACOLULA DE MATAMOROS                                             
04567981       00000000000897686402000126110019504096580000000268510000055200192A QUIN DE FEBRERO 2014 FMP   11GEO621201KIA 00000000000000                                               552TLACOTEPEC PLUMAS                                                  
04567981       00000000000897686402000216330405702229570000001100055500055300192A QUIN DE FEBRERO 2014 FMP   11GEO621201KIA 00000000000000                                               553TLALIXTAC DE CABRERA                                               
04567981       00000000000897686402000146176550418794770000001931621500055700192A QUIN DE FEBRERO 2014 FMP   11GEO621201KIA 00000000000000                                               557UNION HIDALGO                                                      
04567981       00000000000897686402000148556550419261110000000852836000055900192A QUIN DE FEBRERO 2014 FMP   11GEO621201KIA 00000000000000                                               559SAN JUAN BAUTISTA VALLE NACIONAL                                   
04567981       00000000000897686402000126100019495152240000000669615000056000192A QUIN DE FEBRERO 2014 FMP   11GEO621201KIA 00000000000000                                               560VILLA DIAZ ORDAZ                                                   
04567981       00000000000897686402000446220930052824230000000870616000056100192A QUIN DE FEBRERO 2014 FMP   11GEO621201KIA 00000000000000                                               561YAXE                                                               
04567981       00000000000897686402000126110019496769000000000271501500056200192A QUIN DE FEBRERO 2014 FMP   11GEO621201KIA 00000000000000                                               562MAGDALENA YODOCONO DE PORFIRIO DIAZ                                
04567981       00000000000897686402000446220930053327000000000226224000056300192A QUIN DE FEBRERO 2014 FMP   11GEO621201KIA 00000000000000                                               563YOGANA                                                             
04567981       00000000000897686402000026107007791207890000000293632500056400192A QUIN DE FEBRERO 2014 FMP   11GEO621201KIA 00000000000000                                               564YUTANDUCHI DE GUERRERO                                             
04567981       00000000000897686402000026407007189705040000001609590000057000192A QUIN DE FEBRERO 2014 FMP   11GEO621201KIA 00000000000000                                               570ZIMATLAN DE ALVAREZ                                                
