02567981       00000000000897686402000000000002135075900000000265722500000100192A QUIN DE FEBRERO 2014 FMP   11GEO621201KIA 00000000000000                                               001ABEJONES                                                           
02567981       00000000000897686402000000000002160259010000000247828000000300192A QUIN DE FEBRERO 2014 FMP   11GEO621201KIA 00000000000000                                               003ASUNCION CACALOTEPEC                                               
02567981       00000000000897686402000000000002125484660000000187340500000400192A QUIN DE FEBRERO 2014 FMP   11GEO621201KIA 00000000000000                                               004ASUNCION CUYOTEPEJI                                                
02567981       00000000000897686402000000000002018529250000000254587500000800192A QUIN DE FEBRERO 2014 FMP   11GEO621201KIA 00000000000000                                               008ASUNCION TLACOLULITA                                               
02567981       00000000000897686402000000000002126828010000000197868000001100192A QUIN DE FEBRERO 2014 FMP   11GEO621201KIA 00000000000000                                               011CALIHUALA                                                          
02567981       00000000000897686402000000000002169836180000000473457000001200192A QUIN DE FEBRERO 2014 FMP   11GEO621201KIA 00000000000000                                               012CANDELARIA LOXICHA                                                 
02567981       00000000000897686402000000000002141849430000000238143000001900192A QUIN DE FEBRERO 2014 FMP   11GEO621201KIA 00000000000000                                               019CONCEPCION PAPALO                                                  
02567981       00000000000897686402000000000002125492490000000214558000002200192A QUIN DE FEBRERO 2014 FMP   11GEO621201KIA 00000000000000                                               022COSOLTEPEC                                                         
02567981       00000000000897686402000000000002156639680000001569167000002300192A QUIN DE FEBRERO 2014 FMP   11GEO621201KIA 00000000000000                                               023CUILAPAM DE GUERRERO                                               
02567981       00000000000897686402000000000002170230070000000974225000002400192A QUIN DE FEBRERO 2014 FMP   11GEO621201KIA 00000000000000                                               024CUYAMECALCO VILLA DE ZARAGOZA                                      
02567981       00000000000897686402000000000002153503340000000524326000002600192A QUIN DE FEBRERO 2014 FMP   11GEO621201KIA 00000000000000                                               026CHALCATONGO DE HIDALGO                                             
02567981       00000000000897686402000000000002141845050000000566369000002700192A QUIN DE FEBRERO 2014 FMP   11GEO621201KIA 00000000000000                                               027CHIQUIHUITLAN DE BENITO JUAREZ                                     
02567981       00000000000897686402000000000002155178560000000473293000003100192A QUIN DE FEBRERO 2014 FMP   11GEO621201KIA 00000000000000                                               031TAMAZULAPAM DEL ESPIRITU SANTO                                     
02567981       00000000000897686402000000000002126828920000000265090500003200192A QUIN DE FEBRERO 2014 FMP   11GEO621201KIA 00000000000000                                               032FRESNILLO DE TRUJANO                                               
02567981       00000000000897686402000000000002126825480000000297702000003400192A QUIN DE FEBRERO 2014 FMP   11GEO621201KIA 00000000000000                                               034GUADALUPE DE RAMIREZ                                               
02567981       00000000000897686402000000000002095178820000000238999500003500192A QUIN DE FEBRERO 2014 FMP   11GEO621201KIA 00000000000000                                               035GUELATAO DE JUAREZ                                                 
02567981       00000000000897686402000000000002179845460000000313133000003600192A QUIN DE FEBRERO 2014 FMP   11GEO621201KIA 00000000000000                                               036GUEVEA DE HUMBOLDT                                                 
02567981       00000000000897686402000000000002174383020000000338267000003800192A QUIN DE FEBRERO 2014 FMP   11GEO621201KIA 00000000000000                                               038VILLA HIDALGO                                                      
02567981       00000000000897686402000000000002125484480000011395136000003900192A QUIN DE FEBRERO 2014 FMP   11GEO621201KIA 00000000000000                                               039HEROICA CIUDAD DE HUAJUAPAN DE LEON                                
02567981       00000000000897686402000000000002129594000000000595660500004200192A QUIN DE FEBRERO 2014 FMP   11GEO621201KIA 00000000000000                                               042IXTLAN DE JUAREZ                                                   
02567981       00000000000897686402000000000002140059630000009587956000004300192A QUIN DE FEBRERO 2014 FMP   11GEO621201KIA 00000000000000                                               043HEROICA CIUDAD DE JUCHITAN DE ZARAGOZA                             
02567981       00000000000897686402000000000002152082110000001057376500004500192A QUIN DE FEBRERO 2014 FMP   11GEO621201KIA 00000000000000                                               045MAGDALENA APASCO                                                   
02567981       00000000000897686402000000000008991411010000000283055000004800192A QUIN DE FEBRERO 2014 FMP   11GEO621201KIA 00000000000000                                               048MAGDALENA MIXTEPEC                                                 
02567981       00000000000897686402000000000002152105310000000387948000005000192A QUIN DE FEBRERO 2014 FMP   11GEO621201KIA 00000000000000                                               050MAGDALENA PENASCO                                                  
02567981       00000000000897686402000000000002154763460000000878884000005300192A QUIN DE FEBRERO 2014 FMP   11GEO621201KIA 00000000000000                                               053MAGDALENA TLACOTEPEC                                               
02567981       00000000000897686402000000000002125493240000000494562500005500192A QUIN DE FEBRERO 2014 FMP   11GEO621201KIA 00000000000000                                               055MARISCALA DE JUAREZ                                                
02567981       00000000000897686402000000000002128219630000003908425000005700192A QUIN DE FEBRERO 2014 FMP   11GEO621201KIA 00000000000000                                               057MATIAS ROMERO AVENDANO                                             
02567981       00000000000897686402000000000002151629480000004614080000005900192A QUIN DE FEBRERO 2014 FMP   11GEO621201KIA 00000000000000                                               059MIAHUATLAN DE PORFIRIO DIAZ                                        
02567981       00000000000897686402000000000002154979850000000487689000006100192A QUIN DE FEBRERO 2014 FMP   11GEO621201KIA 00000000000000                                               061MONJAS                                                             
02567981       00000000000897686402000000000002135073670000000203439500006200192A QUIN DE FEBRERO 2014 FMP   11GEO621201KIA 00000000000000                                               062NATIVIDAD                                                          
02567981       00000000000897686402000000000002158900090000000169433000006300192A QUIN DE FEBRERO 2014 FMP   11GEO621201KIA 00000000000000                                               063NAZARENO ETLA                                                      
02567981       00000000000897686402000000000002125490160000000346060000006500192A QUIN DE FEBRERO 2014 FMP   11GEO621201KIA 00000000000000                                               065IXPANTEPEC NIEVES                                                  
02567981       00000000000897686402000000000002157900330000001329179000006600192A QUIN DE FEBRERO 2014 FMP   11GEO621201KIA 00000000000000                                               066SANTIAGO NILTEPEC                                                  
02567981       00000000000897686402000000000002132183280000069584674500006700192A QUIN DE FEBRERO 2014 FMP   11GEO621201KIA 00000000000000                                               067OAXACA DE JUAREZ                                                   
02567981       00000000000897686402000000000002151619690000000591206500007000192A QUIN DE FEBRERO 2014 FMP   11GEO621201KIA 00000000000000                                               070PINOTEPA DE DON LUIS                                               
02567981       00000000000897686402000000000002126819340000000934592500007100192A QUIN DE FEBRERO 2014 FMP   11GEO621201KIA 00000000000000                                               071PLUMA HIDALGO                                                      
02567981       00000000000897686402000000000002152984540000000258980000007400192A QUIN DE FEBRERO 2014 FMP   11GEO621201KIA 00000000000000                                               074SANTA CATARINA QUIOQUITANI                                         
02567981       00000000000897686402000000000006738014540000000708078000007500192A QUIN DE FEBRERO 2014 FMP   11GEO621201KIA 00000000000000                                               075REFORMA DE PINEDA                                                  
02567981       00000000000897686402000000000002139663020000007802914000007900192A QUIN DE FEBRERO 2014 FMP   11GEO621201KIA 00000000000000                                               079SALINA CRUZ                                                        
02567981       00000000000897686402000000000002125491370000000223708000008100192A QUIN DE FEBRERO 2014 FMP   11GEO621201KIA 00000000000000                                               081SAN AGUSTIN ATENANGO                                               
02567981       00000000000897686402000000000008976875390000000278744000008200192A QUIN DE FEBRERO 2014 FMP   11GEO621201KIA 00000000000000                                               082SAN AGUSTIN CHAYUCO                                                
02567981       00000000000897686402000000000002167149240000000623715500008300192A QUIN DE FEBRERO 2014 FMP   11GEO621201KIA 00000000000000                                               083SAN AGUSTIN DE LAS JUNTAS                                          
02567981       00000000000897686402000000000002153497670000000369219500008400192A QUIN DE FEBRERO 2014 FMP   11GEO621201KIA 00000000000000                                               084SAN AGUSTIN ETLA                                                   
02567981       00000000000897686402000000000002141848400000000607757000008500192A QUIN DE FEBRERO 2014 FMP   11GEO621201KIA 00000000000000                                               085SAN AGUSTIN LOXICHA                                                
02567981       00000000000897686402000000000002153498510000000246672500008600192A QUIN DE FEBRERO 2014 FMP   11GEO621201KIA 00000000000000                                               086SAN AGUSTIN TLACOTEPEC                                             
02567981       00000000000897686402000000000002162406650000000587625000008700192A QUIN DE FEBRERO 2014 FMP   11GEO621201KIA 00000000000000                                               087SAN AGUSTIN YATARENI                                               
02567981       00000000000897686402000000000002140406830000000367958500008800192A QUIN DE FEBRERO 2014 FMP   11GEO621201KIA 00000000000000                                               088SAN ANDRES CABECERA NUEVA                                          
02567981       00000000000897686402000000000002126827620000000192068000008900192A QUIN DE FEBRERO 2014 FMP   11GEO621201KIA 00000000000000                                               089SAN ANDRES DINICUITI                                               
02567981       00000000000897686402000000000002141072780000000546204000009000192A QUIN DE FEBRERO 2014 FMP   11GEO621201KIA 00000000000000                                               090SAN ANDRES HUAXPALTEPEC                                            
02567981       00000000000897686402000000000002140412330000000973153000009100192A QUIN DE FEBRERO 2014 FMP   11GEO621201KIA 00000000000000                                               091SAN ANDRES HUAYAPAM                                                
02567981       00000000000897686402000000000002156974680000000281469500009200192A QUIN DE FEBRERO 2014 FMP   11GEO621201KIA 00000000000000                                               092SAN ANDRES IXTLAHUACA                                              
02567981       00000000000897686402000000000002153498240000000153135500009300192A QUIN DE FEBRERO 2014 FMP   11GEO621201KIA 00000000000000                                               093SAN ANDRES LAGUNAS                                                 
02567981       00000000000897686402000000000002163947550000000505277000009500192A QUIN DE FEBRERO 2014 FMP   11GEO621201KIA 00000000000000                                               095SAN ANDRES PAXTLAN                                                 
02567981       00000000000897686402000000000002165015530000000262955000009800192A QUIN DE FEBRERO 2014 FMP   11GEO621201KIA 00000000000000                                               098SAN ANDRES TEOTILALPAM                                             
02567981       00000000000897686402000000000002126825020000000298137000009900192A QUIN DE FEBRERO 2014 FMP   11GEO621201KIA 00000000000000                                               099SAN ANDRES TEPETLAPA                                               
02567981       00000000000897686402000000000002162072020000000249148000010000192A QUIN DE FEBRERO 2014 FMP   11GEO621201KIA 00000000000000                                               100SAN ANDRES YAA                                                     
02567981       00000000000897686402000000000002156719270000000263945500010100192A QUIN DE FEBRERO 2014 FMP   11GEO621201KIA 00000000000000                                               101SAN ANDRES ZABACHE                                                 
02567981       00000000000897686402000000000002141734420000000498898500010400192A QUIN DE FEBRERO 2014 FMP   11GEO621201KIA 00000000000000                                               104SAN ANTONINO EL ALTO                                               
02567981       00000000000897686402000000000002141843540000000306396000010500192A QUIN DE FEBRERO 2014 FMP   11GEO621201KIA 00000000000000                                               105SAN ANTONINO MONTE VERDE                                           
02567981       00000000000897686402000000000002126829310000000151254500010600192A QUIN DE FEBRERO 2014 FMP   11GEO621201KIA 00000000000000                                               106SAN ANTONIO ACUTLA                                                 
02567981       00000000000897686402000000000002188395400000000182909500010900192A QUIN DE FEBRERO 2014 FMP   11GEO621201KIA 00000000000000                                               109SAN ANTONIO NANAHUATIPAM                                           
02567981       00000000000897686402000000000002153501920000000264369000011000192A QUIN DE FEBRERO 2014 FMP   11GEO621201KIA 00000000000000                                               110SAN ANTONIO SINICAHUA                                              
02567981       00000000000897686402000000000002155893120000000423553000011100192A QUIN DE FEBRERO 2014 FMP   11GEO621201KIA 00000000000000                                               111SAN ANTONIO TEPETLAPA                                              
02567981       00000000000897686402000000000002170230250000000179273000011400192A QUIN DE FEBRERO 2014 FMP   11GEO621201KIA 00000000000000                                               114SAN BALTAZAR YATZACHI EL BAJO                                      
02567981       00000000000897686402000000000002141851370000000877572000011500192A QUIN DE FEBRERO 2014 FMP   11GEO621201KIA 00000000000000                                               115SAN BARTOLO COYOTEPEC                                              
02567981       00000000000897686402000000000002141869560000000301967500011600192A QUIN DE FEBRERO 2014 FMP   11GEO621201KIA 00000000000000                                               116SAN BARTOLOME AYAUTLA                                              
02567981       00000000000897686402000000000002153501470000000224450000011900192A QUIN DE FEBRERO 2014 FMP   11GEO621201KIA 00000000000000                                               119SAN BARTOLOME YUCUANE                                              
02567981       00000000000897686402000000000002154351920000000229630500012200192A QUIN DE FEBRERO 2014 FMP   11GEO621201KIA 00000000000000                                               122SAN BARTOLO YAUTEPEC                                               
02567981       00000000000897686402000000000002141143060000001093373500012400192A QUIN DE FEBRERO 2014 FMP   11GEO621201KIA 00000000000000                                               124SAN BLAS ATEMPA                                                    
02567981       00000000000897686402000000000002141871130000000441852000012600192A QUIN DE FEBRERO 2014 FMP   11GEO621201KIA 00000000000000                                               126SAN CRISTOBAL AMATLAN                                              
02567981       00000000000897686402000000000002160328240000001152755000013100192A QUIN DE FEBRERO 2014 FMP   11GEO621201KIA 00000000000000                                               131SAN DIONISIO OCOTEPEC                                              
02567981       00000000000897686402000000000002153502220000000339511500013300192A QUIN DE FEBRERO 2014 FMP   11GEO621201KIA 00000000000000                                               133SAN ESTEBAN ATATLAHUCA                                             
02567981       00000000000897686402000000000002169534420000000261084000013500192A QUIN DE FEBRERO 2014 FMP   11GEO621201KIA 00000000000000                                               135SAN FELIPE TEJALAPAM                                               
02567981       00000000000897686402000000000002102170300000000185369000013800192A QUIN DE FEBRERO 2014 FMP   11GEO621201KIA 00000000000000                                               138SAN FRANCISCO CAJONOS                                              
02567981       00000000000897686402000000000002167867070000000267645000013900192A QUIN DE FEBRERO 2014 FMP   11GEO621201KIA 00000000000000                                               139SAN FRANCISCO CHAPULAPA                                            
02567981       00000000000897686402000000000006738013790000000515641500014100192A QUIN DE FEBRERO 2014 FMP   11GEO621201KIA 00000000000000                                               141SAN FRANCISCO DEL MAR                                              
02567981       00000000000897686402000000000002164225000000000419576500014600192A QUIN DE FEBRERO 2014 FMP   11GEO621201KIA 00000000000000                                               146SAN FRANCISCO LOGUECHE                                             
02567981       00000000000897686402000000000002158553070000000374273500014800192A QUIN DE FEBRERO 2014 FMP   11GEO621201KIA 00000000000000                                               148SAN FRANCISCO OZOLOTEPEC                                           
02567981       00000000000897686402000000000002126823880000000241202000015200192A QUIN DE FEBRERO 2014 FMP   11GEO621201KIA 00000000000000                                               152SAN FRANCISCO TLAPANCINGO                                          
02567981       00000000000897686402000000000002152102140000000235944000015300192A QUIN DE FEBRERO 2014 FMP   11GEO621201KIA 00000000000000                                               153SAN GABRIEL MIXTEPEC                                               
02567981       00000000000897686402000000000002116752800000000384988500015400192A QUIN DE FEBRERO 2014 FMP   11GEO621201KIA 00000000000000                                               154SAN ILDEFONSO AMATLAN                                              
02567981       00000000000897686402000000000002170230700000000343269000015600192A QUIN DE FEBRERO 2014 FMP   11GEO621201KIA 00000000000000                                               156SAN ILDEFONSO VILLA ALTA                                           
02567981       00000000000897686402000000000002165964920000000367005000015900192A QUIN DE FEBRERO 2014 FMP   11GEO621201KIA 00000000000000                                               159SAN JERONIMO COATLAN                                               
02567981       00000000000897686402000000000002125486800000000264040000016000192A QUIN DE FEBRERO 2014 FMP   11GEO621201KIA 00000000000000                                               160SAN JERONIMO SILACAYOAPILLA                                        
02567981       00000000000897686402000000000002141815860000000243532000016100192A QUIN DE FEBRERO 2014 FMP   11GEO621201KIA 00000000000000                                               161SAN JERONIMO SOSOLA                                                
02567981       00000000000897686402000000000002125485140000000249221500016400192A QUIN DE FEBRERO 2014 FMP   11GEO621201KIA 00000000000000                                               164SAN JORGE NUCHITA                                                  
02567981       00000000000897686402000000000002163971760000000190698000016800192A QUIN DE FEBRERO 2014 FMP   11GEO621201KIA 00000000000000                                               168SAN JOSE ESTANCIA GRANDE                                           
02567981       00000000000897686402000000000002130977740000000466109000017000192A QUIN DE FEBRERO 2014 FMP   11GEO621201KIA 00000000000000                                               170SAN JOSE LACHIGUIRI                                                
02567981       00000000000897686402000000000002135071610000000234981000017300192A QUIN DE FEBRERO 2014 FMP   11GEO621201KIA 00000000000000                                               173SAN JUAN ATEPEC                                                    
02567981       00000000000897686402000000000002188795820000000298322000017500192A QUIN DE FEBRERO 2014 FMP   11GEO621201KIA 00000000000000                                               175SAN JUAN BAUTISTA ATATLAHUCA                                       
02567981       00000000000897686402000000000002133332120000000436606000017700192A QUIN DE FEBRERO 2014 FMP   11GEO621201KIA 00000000000000                                               177SAN JUAN BAUTISTA CUICATLAN                                        
02567981       00000000000897686402000000000002141843270000000307888000017900192A QUIN DE FEBRERO 2014 FMP   11GEO621201KIA 00000000000000                                               179SAN JUAN BAUTISTA JAYACATLAN                                       
02567981       00000000000897686402000000000002156285290000000246688000018000192A QUIN DE FEBRERO 2014 FMP   11GEO621201KIA 00000000000000                                               180SAN JUAN BAUTISTA LO DE SOTO                                       
02567981       00000000000897686402000000000002125486260000000199490500018100192A QUIN DE FEBRERO 2014 FMP   11GEO621201KIA 00000000000000                                               181SAN JUAN BAUTISTA SUCHITEPEC                                       
02567981       00000000000897686402000000000002125485960000000285089500018300192A QUIN DE FEBRERO 2014 FMP   11GEO621201KIA 00000000000000                                               183SAN JUAN BAUTISTA TLACHICHILCO                                     
02567981       00000000000897686402000000000002125482880000030150431500018400192A QUIN DE FEBRERO 2014 FMP   11GEO621201KIA 00000000000000                                               184SAN JUAN BAUTISTA TUXTEPEC                                         
02567981       00000000000897686402000000000002125485690000000262595500018600192A QUIN DE FEBRERO 2014 FMP   11GEO621201KIA 00000000000000                                               186SAN JUAN CIENEGUILLA                                               
02567981       00000000000897686402000000000002141870650000000249215000018700192A QUIN DE FEBRERO 2014 FMP   11GEO621201KIA 00000000000000                                               187SAN JUAN COATZOSPAM                                                
02567981       00000000000897686402000000000002135074790000000111241000019100192A QUIN DE FEBRERO 2014 FMP   11GEO621201KIA 00000000000000                                               191SAN JUAN CHICOMEZUCHIL                                             
02567981       00000000000897686402000000000002156974130000000212827500019300192A QUIN DE FEBRERO 2014 FMP   11GEO621201KIA 00000000000000                                               193SAN JUAN DEL ESTADO                                                
02567981       00000000000897686402000000000002135074420000000181146500019600192A QUIN DE FEBRERO 2014 FMP   11GEO621201KIA 00000000000000                                               196SAN JUAN EVANGELISTA ANALCO                                        
02567981       00000000000897686402000000000002163168500000000189883000020100192A QUIN DE FEBRERO 2014 FMP   11GEO621201KIA 00000000000000                                               201SAN JUAN JUQUILA VIJANOS                                           
02567981       00000000000897686402000000000002141868620000000387941500020200192A QUIN DE FEBRERO 2014 FMP   11GEO621201KIA 00000000000000                                               202SAN JUAN LACHAO                                                    
02567981       00000000000897686402000000000002194385840000000198790000020600192A QUIN DE FEBRERO 2014 FMP   11GEO621201KIA 00000000000000                                               206SAN JUAN DE LOS CUES                                               
02567981       00000000000897686402000000000002140405350000000989586000020700192A QUIN DE FEBRERO 2014 FMP   11GEO621201KIA 00000000000000                                               207SAN JUAN MAZATLAN                                                  
02567981       00000000000897686402000000000002162308350000000413078000020800192A QUIN DE FEBRERO 2014 FMP   11GEO621201KIA 00000000000000                                               208SAN JUAN MIXTEPEC DTO 08                                           
02567981       00000000000897686402000000000002159680740000000301595500020900192A QUIN DE FEBRERO 2014 FMP   11GEO621201KIA 00000000000000                                               209SAN JUAN MIXTEPEC DTO 26                                           
02567981       00000000000897686402000000000002153499180000000309404000021000192A QUIN DE FEBRERO 2014 FMP   11GEO621201KIA 00000000000000                                               210SAN JUAN NUMI                                                      
02567981       00000000000897686402000000000008967985860000000312677500021600192A QUIN DE FEBRERO 2014 FMP   11GEO621201KIA 00000000000000                                               216SAN JUAN TABAA                                                     
02567981       00000000000897686402000000000002126822850000000251272000021800192A QUIN DE FEBRERO 2014 FMP   11GEO621201KIA 00000000000000                                               218SAN JUAN TEITA                                                     
02567981       00000000000897686402000000000002170174710000000360238500022000192A QUIN DE FEBRERO 2014 FMP   11GEO621201KIA 00000000000000                                               220SAN JUAN TEPEUXILA                                                 
02567981       00000000000897686402000000000002153499720000000254759000022100192A QUIN DE FEBRERO 2014 FMP   11GEO621201KIA 00000000000000                                               221SAN JUAN TEPOSCOLULA                                               
02567981       00000000000897686402000000000008956287980000000234953500022200192A QUIN DE FEBRERO 2014 FMP   11GEO621201KIA 00000000000000                                               222SAN JUAN YAEE                                                      
02567981       00000000000897686402000000000002141549000000000311250000022500192A QUIN DE FEBRERO 2014 FMP   11GEO621201KIA 00000000000000                                               225SAN LORENZO                                                        
02567981       00000000000897686402000000000002168293500000000406377500023600192A QUIN DE FEBRERO 2014 FMP   11GEO621201KIA 00000000000000                                               236SAN MARCIAL OZOLOTEPEC                                             
02567981       00000000000897686402000000000002125488310000000274934000023700192A QUIN DE FEBRERO 2014 FMP   11GEO621201KIA 00000000000000                                               237SAN MARCOS ARTEAGA                                                 
02567981       00000000000897686402000000000002158900540000000288002500023800192A QUIN DE FEBRERO 2014 FMP   11GEO621201KIA 00000000000000                                               238SAN MARTIN DE LOS CANSECOS                                         
02567981       00000000000897686402000000000002153503890000000186621000023900192A QUIN DE FEBRERO 2014 FMP   11GEO621201KIA 00000000000000                                               239SAN MARTIN HUAMELULPAM                                             
02567981       00000000000897686402000000000002153502590000000276485000024000192A QUIN DE FEBRERO 2014 FMP   11GEO621201KIA 00000000000000                                               240SAN MARTIN ITUNYOSO                                                
02567981       00000000000897686402000000000002171297940000000267297500024100192A QUIN DE FEBRERO 2014 FMP   11GEO621201KIA 00000000000000                                               241SAN MARTIN LACHILA                                                 
02567981       00000000000897686402000000000002108815890000000254678000024400192A QUIN DE FEBRERO 2014 FMP   11GEO621201KIA 00000000000000                                               244SAN MARTIN TOXPALAN                                                
02567981       00000000000897686402000000000002125487470000000175841000024500192A QUIN DE FEBRERO 2014 FMP   11GEO621201KIA 00000000000000                                               245SAN MARTIN ZACATEPEC                                               
02567981       00000000000897686402000000000002173728170000000203000000024600192A QUIN DE FEBRERO 2014 FMP   11GEO621201KIA 00000000000000                                               246SAN MATEO CAJONOS                                                  
02567981       00000000000897686402000000000002135075180000000279099000024700192A QUIN DE FEBRERO 2014 FMP   11GEO621201KIA 00000000000000                                               247CAPULALPAM DE MENDEZ                                               
02567981       00000000000897686402000000000002126828470000000306124000025100192A QUIN DE FEBRERO 2014 FMP   11GEO621201KIA 00000000000000                                               251SAN MATEO NEJAPAM                                                  
02567981       00000000000897686402000000000002151820580000000422133000025400192A QUIN DE FEBRERO 2014 FMP   11GEO621201KIA 00000000000000                                               254SAN MATEO RIO HONDO                                                
02567981       00000000000897686402000000000002125487740000000191691500025600192A QUIN DE FEBRERO 2014 FMP   11GEO621201KIA 00000000000000                                               256SAN MATEO TLAPILTEPEC                                              
02567981       00000000000897686402000000000002167149790000000261204500025700192A QUIN DE FEBRERO 2014 FMP   11GEO621201KIA 00000000000000                                               257SAN MELCHOR BETAZA                                                 
02567981       00000000000897686402000000000002153500350000000233306000025800192A QUIN DE FEBRERO 2014 FMP   11GEO621201KIA 00000000000000                                               258SAN MIGUEL ACHIUTLA                                                
02567981       00000000000897686402000000000002125489520000000503713000025900192A QUIN DE FEBRERO 2014 FMP   11GEO621201KIA 00000000000000                                               259SAN MIGUEL AHUEHUETITLAN                                           
02567981       00000000000897686402000000000002084217860000001441605500026100192A QUIN DE FEBRERO 2014 FMP   11GEO621201KIA 00000000000000                                               261SAN MIGUEL AMATITLAN                                               
02567981       00000000000897686402000000000002163169440000000142253500026200192A QUIN DE FEBRERO 2014 FMP   11GEO621201KIA 00000000000000                                               262SAN MIGUEL AMATLAN                                                 
02567981       00000000000897686402000000000002169285700000000420558000026300192A QUIN DE FEBRERO 2014 FMP   11GEO621201KIA 00000000000000                                               263SAN MIGUEL COATLAN                                                 
02567981       00000000000897686402000000000002140016020000000302528000026500192A QUIN DE FEBRERO 2014 FMP   11GEO621201KIA 00000000000000                                               265SAN MIGUEL CHIMALAPA                                               
02567981       00000000000897686402000000000002135072000000000173225500026700192A QUIN DE FEBRERO 2014 FMP   11GEO621201KIA 00000000000000                                               267SAN MIGUEL DEL RIO                                                 
02567981       00000000000897686402000000000002139369210000000242914000027100192A QUIN DE FEBRERO 2014 FMP   11GEO621201KIA 00000000000000                                               271SAN MIGUEL MIXTEPEC                                                
02567981       00000000000897686402000000000002141867780000000382736500027300192A QUIN DE FEBRERO 2014 FMP   11GEO621201KIA 00000000000000                                               273SAN MIGUEL PERAS                                                   
02567981       00000000000897686402000000000002156545370000000363568000027600192A QUIN DE FEBRERO 2014 FMP   11GEO621201KIA 00000000000000                                               276SAN MIGUEL SANTA FLOR                                              
02567981       00000000000897686402000000000002141846080000001240219000027700192A QUIN DE FEBRERO 2014 FMP   11GEO621201KIA 00000000000000                                               277VILLA SOLA DE VEGA                                                 
02567981       00000000000897686402000000000002162753680000000359917000027900192A QUIN DE FEBRERO 2014 FMP   11GEO621201KIA 00000000000000                                               279SAN MIGUEL SUCHIXTEPEC                                             
02567981       00000000000897686402000000000002135071430000000370642500028000192A QUIN DE FEBRERO 2014 FMP   11GEO621201KIA 00000000000000                                               280VILLA TALEA DE CASTRO                                              
02567981       00000000000897686402000000000002154725710000000173628000028200192A QUIN DE FEBRERO 2014 FMP   11GEO621201KIA 00000000000000                                               282SAN MIGUEL TENANGO                                                 
02567981       00000000000897686402000000000002135070680000000314046500028800192A QUIN DE FEBRERO 2014 FMP   11GEO621201KIA 00000000000000                                               288SAN MIGUEL YOTAO                                                   
02567981       00000000000897686402000000000002196057880000000247122000028900192A QUIN DE FEBRERO 2014 FMP   11GEO621201KIA 00000000000000                                               289SAN NICOLAS                                                        
02567981       00000000000897686402000000000002166141720000000286341000029100192A QUIN DE FEBRERO 2014 FMP   11GEO621201KIA 00000000000000                                               291SAN PABLO COATLAN                                                  
02567981       00000000000897686402000000000002153496730000000715193000029400192A QUIN DE FEBRERO 2014 FMP   11GEO621201KIA 00000000000000                                               294SAN PABLO HUITZO                                                   
02567981       00000000000897686402000000000002135072730000000217297500029600192A QUIN DE FEBRERO 2014 FMP   11GEO621201KIA 00000000000000                                               296SAN PABLO MACUILTIANGUIS                                           
02567981       00000000000897686402000000000002140407130000000297503500029700192A QUIN DE FEBRERO 2014 FMP   11GEO621201KIA 00000000000000                                               297SAN PABLO TIJALTEPEC                                               
02567981       00000000000897686402000000000002156852230000000322552000030700192A QUIN DE FEBRERO 2014 FMP   11GEO621201KIA 00000000000000                                               307SAN PEDRO HUAMELULA                                                
02567981       00000000000897686402000000000002178941040000000520623000031000192A QUIN DE FEBRERO 2014 FMP   11GEO621201KIA 00000000000000                                               310SAN PEDRO IXTLAHUACA                                               
02567981       00000000000897686402000000000002141816160000000258617000031100192A QUIN DE FEBRERO 2014 FMP   11GEO621201KIA 00000000000000                                               311SAN PEDRO JALTEPETONGO                                             
02567981       00000000000897686402000000000002151562000000000443399000031200192A QUIN DE FEBRERO 2014 FMP   11GEO621201KIA 00000000000000                                               312SAN PEDRO JICAYAN                                                  
02567981       00000000000897686402000000000002141848860000000263504000031300192A QUIN DE FEBRERO 2014 FMP   11GEO621201KIA 00000000000000                                               313SAN PEDRO JOCOTIPAC                                                
02567981       00000000000897686402000000000002169257660000000319823500031400192A QUIN DE FEBRERO 2014 FMP   11GEO621201KIA 00000000000000                                               314SAN PEDRO JUCHATENGO                                               
02567981       00000000000897686402000000000002155009600000004186937500031800192A QUIN DE FEBRERO 2014 FMP   11GEO621201KIA 00000000000000                                               318SAN PEDRO MIXTEPEC DTO 22                                          
02567981       00000000000897686402000000000002169704030000000123985000031900192A QUIN DE FEBRERO 2014 FMP   11GEO621201KIA 00000000000000                                               319SAN PEDRO MIXTEPEC DTO 26                                          
02567981       00000000000897686402000000000002125490700000000190295500032100192A QUIN DE FEBRERO 2014 FMP   11GEO621201KIA 00000000000000                                               321SAN PEDRO NOPALA                                                   
02567981       00000000000897686402000000000002141847380000000786737500032600192A QUIN DE FEBRERO 2014 FMP   11GEO621201KIA 00000000000000                                               326SAN PEDRO SOCHIAPAM                                                
02567981       00000000000897686402000000000002135074880000000252621000033500192A QUIN DE FEBRERO 2014 FMP   11GEO621201KIA 00000000000000                                               335SAN PEDRO YANERI                                                   
02567981       00000000000897686402000000000002135073940000000441697000033600192A QUIN DE FEBRERO 2014 FMP   11GEO621201KIA 00000000000000                                               336SAN PEDRO YOLOX                                                    
02567981       00000000000897686402000000000002160053780000000509236500033700192A QUIN DE FEBRERO 2014 FMP   11GEO621201KIA 00000000000000                                               337SAN PEDRO Y SAN PABLO AYUTLA                                       
02567981       00000000000897686402000000000002158900270000001311011500033800192A QUIN DE FEBRERO 2014 FMP   11GEO621201KIA 00000000000000                                               338VILLA DE ETLA                                                      
02567981       00000000000897686402000000000002152105680000000618331500033900192A QUIN DE FEBRERO 2014 FMP   11GEO621201KIA 00000000000000                                               339SAN PEDRO Y SAN PABLO TEPOSCOLULA                                  
02567981       00000000000897686402000000000002126827350000000188848500034000192A QUIN DE FEBRERO 2014 FMP   11GEO621201KIA 00000000000000                                               340SAN PEDRO Y SAN PABLO TEQUIXTEPEC                                  
02567981       00000000000897686402000000000002126823790000000176079000034100192A QUIN DE FEBRERO 2014 FMP   11GEO621201KIA 00000000000000                                               341SAN PEDRO YUCUNAMA                                                 
02567981       00000000000897686402000000000002116741710000000576795000034200192A QUIN DE FEBRERO 2014 FMP   11GEO621201KIA 00000000000000                                               342SAN RAYMUNDO JALPAN                                                
02567981       00000000000897686402000000000002174382720000000346262500034300192A QUIN DE FEBRERO 2014 FMP   11GEO621201KIA 00000000000000                                               343SAN SEBASTIAN ABASOLO                                              
02567981       00000000000897686402000000000002154385860000000450229000034400192A QUIN DE FEBRERO 2014 FMP   11GEO621201KIA 00000000000000                                               344SAN SEBASTIAN COATLAN                                              
02567981       00000000000897686402000000000002163833930000000270588000034500192A QUIN DE FEBRERO 2014 FMP   11GEO621201KIA 00000000000000                                               345SAN SEBASTIAN IXCAPA                                               
02567981       00000000000897686402000000000002152104650000000238005500034600192A QUIN DE FEBRERO 2014 FMP   11GEO621201KIA 00000000000000                                               346SAN SEBASTIAN NICANANDUTA                                          
02567981       00000000000897686402000000000002167964340000000270850000034700192A QUIN DE FEBRERO 2014 FMP   11GEO621201KIA 00000000000000                                               347SAN SEBASTIAN RIO HONDO                                            
02567981       00000000000897686402000000000002167150060000001701450000035000192A QUIN DE FEBRERO 2014 FMP   11GEO621201KIA 00000000000000                                               350SAN SEBASTIAN TUTLA                                                
02567981       00000000000897686402000000000002160081000000000363996000035100192A QUIN DE FEBRERO 2014 FMP   11GEO621201KIA 00000000000000                                               351SAN SIMON ALMOLONGAS                                               
02567981       00000000000897686402000000000002125492120000000296791000035200192A QUIN DE FEBRERO 2014 FMP   11GEO621201KIA 00000000000000                                               352SAN SIMON ZAHUATLAN                                                
02567981       00000000000897686402000000000002153345940000000549512000035300192A QUIN DE FEBRERO 2014 FMP   11GEO621201KIA 00000000000000                                               353SANTA ANA                                                          
02567981       00000000000897686402000000000002151571040000000402016000035800192A QUIN DE FEBRERO 2014 FMP   11GEO621201KIA 00000000000000                                               358SANTA ANA TLAPACOYAN                                               
02567981       00000000000897686402000000000002163168050000000265821500035900192A QUIN DE FEBRERO 2014 FMP   11GEO621201KIA 00000000000000                                               359SANTA ANA YARENI                                                   
02567981       00000000000897686402000000000008998216810000000585694000036000192A QUIN DE FEBRERO 2014 FMP   11GEO621201KIA 00000000000000                                               360SANTA ANA ZEGACHE                                                  
02567981       00000000000897686402000000000002137690080000000300992500036100192A QUIN DE FEBRERO 2014 FMP   11GEO621201KIA 00000000000000                                               361SANTA CATALINA QUIERI                                              
02567981       00000000000897686402000000000002135075540000000323505000036300192A QUIN DE FEBRERO 2014 FMP   11GEO621201KIA 00000000000000                                               363SANTA CATARINA IXTEPEJI                                            
02567981       00000000000897686402000000000002168533280000000191618000036500192A QUIN DE FEBRERO 2014 FMP   11GEO621201KIA 00000000000000                                               365SANTA CATARINA LACHATAO                                            
02567981       00000000000897686402000000000002168534850000000787400500036600192A QUIN DE FEBRERO 2014 FMP   11GEO621201KIA 00000000000000                                               366SANTA CATARINA LOXICHA                                             
02567981       00000000000897686402000000000002121546520000000310168500036900192A QUIN DE FEBRERO 2014 FMP   11GEO621201KIA 00000000000000                                               369SANTA CATARINA QUIANE                                              
02567981       00000000000897686402000000000002140406470000000289313000037100192A QUIN DE FEBRERO 2014 FMP   11GEO621201KIA 00000000000000                                               371SANTA CATARINA TICUA                                               
02567981       00000000000897686402000000000002152680640000000329065500037200192A QUIN DE FEBRERO 2014 FMP   11GEO621201KIA 00000000000000                                               372SANTA CATARINA YOSONOTU                                            
02567981       00000000000897686402000000000002126824540000000185433000037300192A QUIN DE FEBRERO 2014 FMP   11GEO621201KIA 00000000000000                                               373SANTA CATARINA ZAPOQUILA                                           
02567981       00000000000897686402000000000002139368550000000537005500037800192A QUIN DE FEBRERO 2014 FMP   11GEO621201KIA 00000000000000                                               378SANTA CRUZ MIXTEPEC                                                
02567981       00000000000897686402000000000002160612990000000194490000038000192A QUIN DE FEBRERO 2014 FMP   11GEO621201KIA 00000000000000                                               380SANTA CRUZ PAPALUTLA                                               
02567981       00000000000897686402000000000002126825750000000537060500038100192A QUIN DE FEBRERO 2014 FMP   11GEO621201KIA 00000000000000                                               381SANTA CRUZ TACACHE DE MINA                                         
02567981       00000000000897686402000000000002126823240000000166088000038300192A QUIN DE FEBRERO 2014 FMP   11GEO621201KIA 00000000000000                                               383SANTA CRUZ TAYATA                                                  
02567981       00000000000897686402000000000002167533430000000302955000038400192A QUIN DE FEBRERO 2014 FMP   11GEO621201KIA 00000000000000                                               384SANTA CRUZ XITLA                                                   
02567981       00000000000897686402000000000002158603380000004671469500038500192A QUIN DE FEBRERO 2014 FMP   11GEO621201KIA 00000000000000                                               385SANTA CRUZ XOXOCOTLAN                                              
02567981       00000000000897686402000000000002139381850000000682520000038600192A QUIN DE FEBRERO 2014 FMP   11GEO621201KIA 00000000000000                                               386SANTA CRUZ ZENZONTEPEC                                             
02567981       00000000000897686402000000000002157502600000000898965500038800192A QUIN DE FEBRERO 2014 FMP   11GEO621201KIA 00000000000000                                               388SANTA INES DEL MONTE                                               
02567981       00000000000897686402000000000002141846800000000343337000038900192A QUIN DE FEBRERO 2014 FMP   11GEO621201KIA 00000000000000                                               389SANTA INES YATZECHE                                                
02567981       00000000000897686402000000000002169222510000000405730000039100192A QUIN DE FEBRERO 2014 FMP   11GEO621201KIA 00000000000000                                               391SANTA LUCIA MIAHUATLAN                                             
02567981       00000000000897686402000000000008983562250000000571302000039200192A QUIN DE FEBRERO 2014 FMP   11GEO621201KIA 00000000000000                                               392SANTA LUCIA MONTEVERDE                                             
02567981       00000000000897686402000000000002140406100000003845621000039700192A QUIN DE FEBRERO 2014 FMP   11GEO621201KIA 00000000000000                                               397HEROICA CIUDAD DE TLAXIACO                                         
02567981       00000000000897686402000000000002141850700000001654426000039900192A QUIN DE FEBRERO 2014 FMP   11GEO621201KIA 00000000000000                                               399SANTA MARIA ATZOMPA                                                
02567981       00000000000897686402000000000002125486530000000263562000040000192A QUIN DE FEBRERO 2014 FMP   11GEO621201KIA 00000000000000                                               400SANTA MARIA CAMOTLAN                                               
02567981       00000000000897686402000000000002118094230000001929854500040100192A QUIN DE FEBRERO 2014 FMP   11GEO621201KIA 00000000000000                                               401SANTA MARIA COLOTEPEC                                              
02567981       00000000000897686402000000000002141016500000000203356000040200192A QUIN DE FEBRERO 2014 FMP   11GEO621201KIA 00000000000000                                               402SANTA MARIA CORTIJO                                                
02567981       00000000000897686402000000000002141842240000000420661500040300192A QUIN DE FEBRERO 2014 FMP   11GEO621201KIA 00000000000000                                               403SANTA MARIA COYOTEPEC                                              
02567981       00000000000897686402000000000002125489890000000318162500040500192A QUIN DE FEBRERO 2014 FMP   11GEO621201KIA 00000000000000                                               405VILLA DE CHILAPA DE DIAZ                                           
02567981       00000000000897686402000000000002173459690000001266655500040600192A QUIN DE FEBRERO 2014 FMP   11GEO621201KIA 00000000000000                                               406SANTA MARIA CHILCHOTLA                                             
02567981       00000000000897686402000000000002162532630000000360378000040700192A QUIN DE FEBRERO 2014 FMP   11GEO621201KIA 00000000000000                                               407SANTA MARIA CHIMALAPA                                              
02567981       00000000000897686402000000000008983561220000000244460000040800192A QUIN DE FEBRERO 2014 FMP   11GEO621201KIA 00000000000000                                               408SANTA MARIA DEL ROSARIO                                            
02567981       00000000000897686402000000000002162057670000000773995000040900192A QUIN DE FEBRERO 2014 FMP   11GEO621201KIA 00000000000000                                               409SANTA MARIA DEL TULE                                               
02567981       00000000000897686402000000000002175000120000000235128000041100192A QUIN DE FEBRERO 2014 FMP   11GEO621201KIA 00000000000000                                               411SANTA MARIA GUELACE                                                
02567981       00000000000897686402000000000006738014180000000272935000041200192A QUIN DE FEBRERO 2014 FMP   11GEO621201KIA 00000000000000                                               412SANTA MARIA GUIENAGATI                                             
02567981       00000000000897686402000000000002156554040000000269769000041500192A QUIN DE FEBRERO 2014 FMP   11GEO621201KIA 00000000000000                                               415SANTA MARIA IPALAPA                                                
02567981       00000000000897686402000000000002161081850000000262034000041600192A QUIN DE FEBRERO 2014 FMP   11GEO621201KIA 00000000000000                                               416SANTA MARIA IXCATLAN                                               
02567981       00000000000897686402000000000002135069860000000241541500041900192A QUIN DE FEBRERO 2014 FMP   11GEO621201KIA 00000000000000                                               419SANTA MARIA JALTIANGUIS                                            
02567981       00000000000897686402000000000002141844480000000239417000042000192A QUIN DE FEBRERO 2014 FMP   11GEO621201KIA 00000000000000                                               420SANTA MARIA LACHIXIO                                               
02567981       00000000000897686402000000000002157524790000000833598500042100192A QUIN DE FEBRERO 2014 FMP   11GEO621201KIA 00000000000000                                               421SANTA MARIA MIXTEQUILLA                                            
02567981       00000000000897686402000000000002169509730000000861466500042400192A QUIN DE FEBRERO 2014 FMP   11GEO621201KIA 00000000000000                                               424SANTA MARIA OZOLOTEPEC                                             
02567981       00000000000897686402000000000002177024780000000360062000042500192A QUIN DE FEBRERO 2014 FMP   11GEO621201KIA 00000000000000                                               425SANTA MARIA PAPALO                                                 
02567981       00000000000897686402000000000002179977880000000369859000042600192A QUIN DE FEBRERO 2014 FMP   11GEO621201KIA 00000000000000                                               426SANTA MARIA PENOLES                                                
02567981       00000000000897686402000000000002098649420000000747055500042700192A QUIN DE FEBRERO 2014 FMP   11GEO621201KIA 00000000000000                                               427SANTA MARIA PETAPA                                                 
02567981       00000000000897686402000000000002170174350000000255910000042900192A QUIN DE FEBRERO 2014 FMP   11GEO621201KIA 00000000000000                                               429SANTA MARIA SOLA                                                   
02567981       00000000000897686402000000000002152106250000000219132000043000192A QUIN DE FEBRERO 2014 FMP   11GEO621201KIA 00000000000000                                               430SANTA MARIA TATALTEPEC                                             
02567981       00000000000897686402000000000002187549420000000218016000043100192A QUIN DE FEBRERO 2014 FMP   11GEO621201KIA 00000000000000                                               431SANTA MARIA TECOMAVACA                                             
02567981       00000000000897686402000000000002179712100000000281068500043200192A QUIN DE FEBRERO 2014 FMP   11GEO621201KIA 00000000000000                                               432SANTA MARIA TEMAXCALAPA                                            
02567981       00000000000897686402000000000002121546610000000337259000043400192A QUIN DE FEBRERO 2014 FMP   11GEO621201KIA 00000000000000                                               434SANTA MARIA TEOPOXCO                                               
02567981       00000000000897686402000000000002152081810000000382568500043500192A QUIN DE FEBRERO 2014 FMP   11GEO621201KIA 00000000000000                                               435SANTA MARIA TEPANTLALI                                             
02567981       00000000000897686402000000000002192039790000000263196000043800192A QUIN DE FEBRERO 2014 FMP   11GEO621201KIA 00000000000000                                               438SANTA MARIA TLALIXTAC                                              
02567981       00000000000897686402000000000002176206020000000395856500044000192A QUIN DE FEBRERO 2014 FMP   11GEO621201KIA 00000000000000                                               440SANTA MARIA TOTOLAPILLA                                            
02567981       00000000000897686402000000000002159706570000000705099500044100192A QUIN DE FEBRERO 2014 FMP   11GEO621201KIA 00000000000000                                               441SANTA MARIA XADANI                                                 
02567981       00000000000897686402000000000002163169710000000145494000044300192A QUIN DE FEBRERO 2014 FMP   11GEO621201KIA 00000000000000                                               443SANTA MARIA YAVESIA                                                
02567981       00000000000897686402000000000002153500080000000258696000044500192A QUIN DE FEBRERO 2014 FMP   11GEO621201KIA 00000000000000                                               445SANTA MARIA YOSOYUA                                                
02567981       00000000000897686402000000000008983561860000000459197500044600192A QUIN DE FEBRERO 2014 FMP   11GEO621201KIA 00000000000000                                               446SANTA MARIA YUCUHITI                                               
02567981       00000000000897686402000000000002139005200000000170481000045300192A QUIN DE FEBRERO 2014 FMP   11GEO621201KIA 00000000000000                                               453SANTIAGO ASTATA                                                    
02567981       00000000000897686402000000000002155178290000000232438000045400192A QUIN DE FEBRERO 2014 FMP   11GEO621201KIA 00000000000000                                               454SANTIAGO ATITLAN                                                   
02567981       00000000000897686402000000000002125488680000000378507000045500192A QUIN DE FEBRERO 2014 FMP   11GEO621201KIA 00000000000000                                               455SANTIAGO AYUQUILILLA                                               
02567981       00000000000897686402000000000002163168960000000277882000045800192A QUIN DE FEBRERO 2014 FMP   11GEO621201KIA 00000000000000                                               458SANTIAGO COMALTEPEC                                                
02567981       00000000000897686402000000000002126824270000000551797000045900192A QUIN DE FEBRERO 2014 FMP   11GEO621201KIA 00000000000000                                               459SANTIAGO CHAZUMBA                                                  
02567981       00000000000897686402000000000002125491730000000541625500046200192A QUIN DE FEBRERO 2014 FMP   11GEO621201KIA 00000000000000                                               462SANTIAGO HUAJOLOTITLAN                                             
02567981       00000000000897686402000000000002141870290000001260111500046800192A QUIN DE FEBRERO 2014 FMP   11GEO621201KIA 00000000000000                                               468SANTIAGO JOCOTEPEC                                                 
02567981       00000000000897686402000000000002141547770000000266311500047000192A QUIN DE FEBRERO 2014 FMP   11GEO621201KIA 00000000000000                                               470SANTIAGO LACHIGUIRI                                                
02567981       00000000000897686402000000000002168532700000000261844000047100192A QUIN DE FEBRERO 2014 FMP   11GEO621201KIA 00000000000000                                               471SANTIAGO LALOPA                                                    
02567981       00000000000897686402000000000002157552650000000901118000047200192A QUIN DE FEBRERO 2014 FMP   11GEO621201KIA 00000000000000                                               472SANTIAGO LAOLLAGA                                                  
02567981       00000000000897686402000000000002135069400000000244603500047300192A QUIN DE FEBRERO 2014 FMP   11GEO621201KIA 00000000000000                                               473SANTIAGO LAXOPA                                                    
02567981       00000000000897686402000000000008976875660000000242747000047400192A QUIN DE FEBRERO 2014 FMP   11GEO621201KIA 00000000000000                                               474SANTIAGO LLANO GRANDE                                              
02567981       00000000000897686402000000000008931714140000001703471000047500192A QUIN DE FEBRERO 2014 FMP   11GEO621201KIA 00000000000000                                               475SANTIAGO MATATLAN                                                  
02567981       00000000000897686402000000000002125488950000000173183500047600192A QUIN DE FEBRERO 2014 FMP   11GEO621201KIA 00000000000000                                               476SANTIAGO MILTEPEC                                                  
02567981       00000000000897686402000000000002165902030000000325874000047700192A QUIN DE FEBRERO 2014 FMP   11GEO621201KIA 00000000000000                                               477SANTIAGO MINAS                                                     
02567981       00000000000897686402000000000002133332760000000191201000047800192A QUIN DE FEBRERO 2014 FMP   11GEO621201KIA 00000000000000                                               478SANTIAGO NACALTEPEC                                                
02567981       00000000000897686402000000000002153500990000000247118500048000192A QUIN DE FEBRERO 2014 FMP   11GEO621201KIA 00000000000000                                               480SANTIAGO NUNDICHE                                                  
02567981       00000000000897686402000000000002153497300000000848175500048300192A QUIN DE FEBRERO 2014 FMP   11GEO621201KIA 00000000000000                                               483SANTIAGO SUCHILQUITONGO                                            
02567981       00000000000897686402000000000002125485050000001023800500048600192A QUIN DE FEBRERO 2014 FMP   11GEO621201KIA 00000000000000                                               486VILLA TEJUPAM DE LA UNION                                          
02567981       00000000000897686402000000000002139381120000000359621500048700192A QUIN DE FEBRERO 2014 FMP   11GEO621201KIA 00000000000000                                               487SANTIAGO TENANGO                                                   
02567981       00000000000897686402000000000002158535180000000348126500048900192A QUIN DE FEBRERO 2014 FMP   11GEO621201KIA 00000000000000                                               489SANTIAGO TETEPEC                                                   
02567981       00000000000897686402000000000002161081210000000498369500049400192A QUIN DE FEBRERO 2014 FMP   11GEO621201KIA 00000000000000                                               494SANTIAGO TLAZOYALTEPEC                                             
02567981       00000000000897686402000000000002135073030000000225410000049600192A QUIN DE FEBRERO 2014 FMP   11GEO621201KIA 00000000000000                                               496SANTIAGO XIACUI                                                    
02567981       00000000000897686402000000000002141849160000000432075500049700192A QUIN DE FEBRERO 2014 FMP   11GEO621201KIA 00000000000000                                               497SANTIAGO YAITEPEC                                                  
02567981       00000000000897686402000000000002153500620000000321066000049900192A QUIN DE FEBRERO 2014 FMP   11GEO621201KIA 00000000000000                                               499SANTIAGO YOLOMECATL                                                
02567981       00000000000897686402000000000002126826500000000217619500050100192A QUIN DE FEBRERO 2014 FMP   11GEO621201KIA 00000000000000                                               501SANTIAGO YUCUYACHI                                                 
02567981       00000000000897686402000000000002139369580000000310263000050200192A QUIN DE FEBRERO 2014 FMP   11GEO621201KIA 00000000000000                                               502SANTIAGO ZACATEPEC                                                 
02567981       00000000000897686402000000000002175885600000000345771000050500192A QUIN DE FEBRERO 2014 FMP   11GEO621201KIA 00000000000000                                               505SANTO DOMINGO INGENIO                                              
02567981       00000000000897686402000000000002139368190000000194711500050600192A QUIN DE FEBRERO 2014 FMP   11GEO621201KIA 00000000000000                                               506SANTO DOMINGO ALBARRADAS                                           
02567981       00000000000897686402000000000002157539990000000160650500050800192A QUIN DE FEBRERO 2014 FMP   11GEO621201KIA 00000000000000                                               508SANTO DOMINGO CHIHUITAN                                            
02567981       00000000000897686402000000000002163941840000000223004000051200192A QUIN DE FEBRERO 2014 FMP   11GEO621201KIA 00000000000000                                               512SANTO DOMINGO OZOLOTEPEC                                           
02567981       00000000000897686402000000000002140079940000005740796000051500192A QUIN DE FEBRERO 2014 FMP   11GEO621201KIA 00000000000000                                               515SANTO DOMINGO TEHUANTEPEC                                          
02567981       00000000000897686402000000000002169491280000000287791000051700192A QUIN DE FEBRERO 2014 FMP   11GEO621201KIA 00000000000000                                               517SANTO DOMINGO TEPUXTEPEC                                           
02567981       00000000000897686402000000000008931713840000000380602500051900192A QUIN DE FEBRERO 2014 FMP   11GEO621201KIA 00000000000000                                               519SANTO DOMINGO TOMALTEPEC                                           
02567981       00000000000897686402000000000002126826140000000926672000052000192A QUIN DE FEBRERO 2014 FMP   11GEO621201KIA 00000000000000                                               520SANTO DOMINGO TONALA                                               
02567981       00000000000897686402000000000002170173780000000205390000052200192A QUIN DE FEBRERO 2014 FMP   11GEO621201KIA 00000000000000                                               522SANTO DOMINGO XAGACIA                                              
02567981       00000000000897686402000000000002140404140000000300955500052300192A QUIN DE FEBRERO 2014 FMP   11GEO621201KIA 00000000000000                                               523SANTO DOMINGO YANHUITLAN                                           
02567981       00000000000897686402000000000008975656640000000458497000052700192A QUIN DE FEBRERO 2014 FMP   11GEO621201KIA 00000000000000                                               527SANTOS REYES PAPALO                                                
02567981       00000000000897686402000000000002125490430000000222771000052800192A QUIN DE FEBRERO 2014 FMP   11GEO621201KIA 00000000000000                                               528SANTOS REYES TEPEJILLO                                             
02567981       00000000000897686402000000000002125491190000000240636500052900192A QUIN DE FEBRERO 2014 FMP   11GEO621201KIA 00000000000000                                               529SANTOS REYES YUCUNA                                                
02567981       00000000000897686402000000000002152082480000000448912500053000192A QUIN DE FEBRERO 2014 FMP   11GEO621201KIA 00000000000000                                               530SANTO TOMAS JALIEZA                                                
02567981       00000000000897686402000000000002141844840000000242288000053100192A QUIN DE FEBRERO 2014 FMP   11GEO621201KIA 00000000000000                                               531SANTO TOMAS MAZALTEPEC                                             
02567981       00000000000897686402000000000002152104920000000562184500053200192A QUIN DE FEBRERO 2014 FMP   11GEO621201KIA 00000000000000                                               532SANTO TOMAS OCOTEPEC                                               
02567981       00000000000897686402000000000002141871040000000368913000053300192A QUIN DE FEBRERO 2014 FMP   11GEO621201KIA 00000000000000                                               533SANTO TOMAS TAMAZULAPAN                                            
02567981       00000000000897686402000000000002153504820000000188604000053600192A QUIN DE FEBRERO 2014 FMP   11GEO621201KIA 00000000000000                                               536SAN VICENTE NUNU                                                   
02567981       00000000000897686402000000000002151493780000000256858500053800192A QUIN DE FEBRERO 2014 FMP   11GEO621201KIA 00000000000000                                               538SITIO DE XITLAPEHUA                                                
02567981       00000000000897686402000000000002141816250000000528064500053900192A QUIN DE FEBRERO 2014 FMP   11GEO621201KIA 00000000000000                                               539SOLEDAD ETLA                                                       
02567981       00000000000897686402000000000002125487100000000886194500054000192A QUIN DE FEBRERO 2014 FMP   11GEO621201KIA 00000000000000                                               540VILLA DE TAMAZULAPAM DEL PROGRESO                                  
02567981       00000000000897686402000000000002179244580000000294579000054100192A QUIN DE FEBRERO 2014 FMP   11GEO621201KIA 00000000000000                                               541TANETZE DE ZARAGOZA                                                
02567981       00000000000897686402000000000002152103350000000289472000054300192A QUIN DE FEBRERO 2014 FMP   11GEO621201KIA 00000000000000                                               543TATALTEPEC DE VALDES                                               
02567981       00000000000897686402000000000008967985220000000239371000054400192A QUIN DE FEBRERO 2014 FMP   11GEO621201KIA 00000000000000                                               544TEOCOCUILCO DE MARCOS PEREZ                                        
02567981       00000000000897686402000000000002193851010000000260200500054700192A QUIN DE FEBRERO 2014 FMP   11GEO621201KIA 00000000000000                                               547TEOTONGO                                                           
02567981       00000000000897686402000000000002176193340000000417245500054800192A QUIN DE FEBRERO 2014 FMP   11GEO621201KIA 00000000000000                                               548TEPELMEME VILLA DE MORELOS                                         
02567981       00000000000897686402000000000002125492850000001341038500054900192A QUIN DE FEBRERO 2014 FMP   11GEO621201KIA 00000000000000                                               549HEROICA VILLA TEZOATLAN DE SEGURA Y LUNA CUNA DE                   
02567981       00000000000897686402000000000002162412420000000402758500055000192A QUIN DE FEBRERO 2014 FMP   11GEO621201KIA 00000000000000                                               550SAN JERONIMO TLACOCHAHUAYA                                         
02567981       00000000000897686402000000000002139368910000000583065500055400192A QUIN DE FEBRERO 2014 FMP   11GEO621201KIA 00000000000000                                               554TOTONTEPEC VILLA DE MORELOS                                        
02567981       00000000000897686402000000000002141842600000000382642500055500192A QUIN DE FEBRERO 2014 FMP   11GEO621201KIA 00000000000000                                               555TRINIDAD ZAACHILA                                                  
02567981       00000000000897686402000000000002125484110000000197642500055600192A QUIN DE FEBRERO 2014 FMP   11GEO621201KIA 00000000000000                                               556LA TRINIDAD VISTA HERMOSA                                          
02567981       00000000000897686402000000000002141845410000000160002000055800192A QUIN DE FEBRERO 2014 FMP   11GEO621201KIA 00000000000000                                               558VALERIO TRUJANO                                                    
02567981       00000000000897686402000000000002134016340000003394048000056500192A QUIN DE FEBRERO 2014 FMP   11GEO621201KIA 00000000000000                                               565VILLA DE ZAACHILA                                                  
02567981       00000000000897686402000000000002141841940000000281276000056600192A QUIN DE FEBRERO 2014 FMP   11GEO621201KIA 00000000000000                                               566SAN MATEO YUCUTINDO                                                
02567981       00000000000897686402000000000002125489250000000275979000056700192A QUIN DE FEBRERO 2014 FMP   11GEO621201KIA 00000000000000                                               567ZAPOTITLAN LAGUNAS                                                 
02567981       00000000000897686402000000000002125483720000000297484000056800192A QUIN DE FEBRERO 2014 FMP   11GEO621201KIA 00000000000000                                               568ZAPOTITLAN PALMAS                                                  
02567981       00000000000897686402000000000002168529380000000287003000056900192A QUIN DE FEBRERO 2014 FMP   11GEO621201KIA 00000000000000                                               569SANTA INES DE ZARAGOZA                                             
