04567981       0000000000089768640200012897001948595453000000313131250000020006PRUEBA DE CONCEPTO INFRA 2013 11GEO621201KIA 00000000000000                                               002ACATLAN DE PEREZ FIGUEROA                                          
04567981       0000000000089768640200014617920019086723000000151288950000050006PRUEBA DE CONCEPTO INFRA 2013 11GEO621201KIA 00000000000000                                               005ASUNCION IXTALTEPEC                                                
04567981       0000000000089768640200012622001950140427000000042233400000070006PRUEBA DE CONCEPTO INFRA 2013 11GEO621201KIA 00000000000000                                               007ASUNCION OCOTLAN                                                   
04567981       0000000000089768640200012628001949853622000000083515750000090006PRUEBA DE CONCEPTO INFRA 2013 11GEO621201KIA 00000000000000                                               009AYOTZINTEPEC                                                       
04567981       0000000000089768640200002627700374136802000000102363850000100006PRUEBA DE CONCEPTO INFRA 2013 11GEO621201KIA 00000000000000                                               010EL BARRIO DE LA SOLEDAD                                            
04567981       0000000000089768640200002640700686890130000000085053000000130006PRUEBA DE CONCEPTO INFRA 2013 11GEO621201KIA 00000000000000                                               013CIENEGA DE ZIMATLAN                                                
04567981       0000000000089768640200012616001948915544000000299861600000140006PRUEBA DE CONCEPTO INFRA 2013 11GEO621201KIA 00000000000000                                               014CIUDAD IXTEPEC                                                     
04567981       0000000000089768640200044610092026624691000000040597450000150006PRUEBA DE CONCEPTO INFRA 2013 11GEO621201KIA 00000000000000                                               015COATECAS ALTAS                                                     
04567981       0000000000089768640200021635040570222793000000037178600000160006PRUEBA DE CONCEPTO INFRA 2013 11GEO621201KIA 00000000000000                                               016COICOYAN DE LAS FLORES                                             
04567981       0000000000089768640200002622700733301558000000024845050000170006PRUEBA DE CONCEPTO INFRA 2013 11GEO621201KIA 00000000000000                                               017LA COMPANIA                                                        
04567981       0000000000089768640200012611001949435976000000022701300000180006PRUEBA DE CONCEPTO INFRA 2013 11GEO621201KIA 00000000000000                                               018CONCEPCION BUENAVISTA                                              
04567981       0000000000089768640200012625001948420651000000080198550000200006PRUEBA DE CONCEPTO INFRA 2013 11GEO621201KIA 00000000000000                                               020CONSTANCIA DEL ROSARIO                                             
04567981       0000000000089768640200014855220004024993000000101111900000210006PRUEBA DE CONCEPTO INFRA 2013 11GEO621201KIA 00000000000000                                               021COSOLAPA                                                           
04567981       0000000000089768640200002631700583109894000000114276800000250006PRUEBA DE CONCEPTO INFRA 2013 11GEO621201KIA 00000000000000                                               025CHAHUITES                                                          
04567981       0000000000089768640200002622700705211702000000118500000000280006PRUEBA DE CONCEPTO INFRA 2013 11GEO621201KIA 00000000000000                                               028HEROICA CIUDAD DE EJUTLA DE CRESPO                                 
04567981       0000000000089768640200002671700734580031000000085111200000290006PRUEBA DE CONCEPTO INFRA 2013 11GEO621201KIA 00000000000000                                               029ELOXOCHITLAN DE FLORES MAGON                                       
04567981       0000000000089768640200014617920019070975000000062974000000300006PRUEBA DE CONCEPTO INFRA 2013 11GEO621201KIA 00000000000000                                               030EL ESPINAL                                                         
04567981       0000000000089768640200014610655041904569000000025895600000330006PRUEBA DE CONCEPTO INFRA 2013 11GEO621201KIA 00000000000000                                               033GUADALUPE ETLA                                                     
04567981       0000000000089768640200012625001949449330000000027939900000370006PRUEBA DE CONCEPTO INFRA 2013 11GEO621201KIA 00000000000000                                               037MESONES HIDALGO                                                    
04567981       0000000000089768640200014614655041624751000001139513600000390006PRUEBA DE CONCEPTO INFRA 2013 11GEO621201KIA 00000000000000                                               039HEROICA CIUDAD DE HUAJUAPAN DE LEON                                
04567981       0000000000089768640200002671700708486174000000032503400000400006PRUEBA DE CONCEPTO INFRA 2013 11GEO621201KIA 00000000000000                                               040HUAUTEPEC                                                          
04567981       0000000000089768640200002671700721112632000000335028650000410006PRUEBA DE CONCEPTO INFRA 2013 11GEO621201KIA 00000000000000                                               041HUAUTLA DE JIMENEZ                                                 
04567981       0000000000089768640200021628040570221549000000657676450000440006PRUEBA DE CONCEPTO INFRA 2013 11GEO621201KIA 00000000000000                                               044LOMA BONITA                                                        
04567981       0000000000089768640200012611001950271954000000053941600000460006PRUEBA DE CONCEPTO INFRA 2013 11GEO621201KIA 00000000000000                                               046MAGDALENA JALTEPEC                                                 
04567981       0000000000089768640200012611001949401052000000014933100000470006PRUEBA DE CONCEPTO INFRA 2013 11GEO621201KIA 00000000000000                                               047SANTA MAGDALENA JICOTLAN                                           
04567981       0000000000089768640200002622700111133018000000022271650000490006PRUEBA DE CONCEPTO INFRA 2013 11GEO621201KIA 00000000000000                                               049MAGDALENA OCOTLAN                                                  
04567981       0000000000089768640200002638700614548000000000045394750000510006PRUEBA DE CONCEPTO INFRA 2013 11GEO621201KIA 00000000000000                                               051MAGDALENA TEITIPAC                                                 
04567981       0000000000089768640200002637700444959860000000058046500000520006PRUEBA DE CONCEPTO INFRA 2013 11GEO621201KIA 00000000000000                                               052MAGDALENA TEQUISISTLAN                                             
04567981       0000000000089768640200002610700775273957000000020556650000540006PRUEBA DE CONCEPTO INFRA 2013 11GEO621201KIA 00000000000000                                               054MAGDALENA ZAHUATLAN                                                
04567981       0000000000089768640200012623001950616604000000019661100000560006PRUEBA DE CONCEPTO INFRA 2013 11GEO621201KIA 00000000000000                                               056MARTIRES DE TACUBAYA                                               
04567981       0000000000089768640200012610001948919960000000033761150000600006PRUEBA DE CONCEPTO INFRA 2013 11GEO621201KIA 00000000000000                                               060MIXISTLAN DE LA REFORMA                                            
04567981       0000000000089768640200014610655041774032000000051827800000640006PRUEBA DE CONCEPTO INFRA 2013 11GEO621201KIA 00000000000000                                               064NEJAPA DE MADERO                                                   
04567981       0000000000089768640200044622093005306891000000223551150000680006PRUEBA DE CONCEPTO INFRA 2013 11GEO621201KIA 00000000000000                                               068OCOTLAN DE MORELOS                                                 
04567981       0000000000089768640200044622093005329755000000026198100000690006PRUEBA DE CONCEPTO INFRA 2013 11GEO621201KIA 00000000000000                                               069LA PE                                                              
04567981       0000000000089768640200002622700124457079000000033082500000720006PRUEBA DE CONCEPTO INFRA 2013 11GEO621201KIA 00000000000000                                               072SAN JOSE DEL PROGRESO                                              
04567981       0000000000089768640200012625001949810147000000246930850000730006PRUEBA DE CONCEPTO INFRA 2013 11GEO621201KIA 00000000000000                                               073PUTLA VILLA DE GUERRERO                                            
04567981       0000000000089768640200002610063901260248000000045460750000760006PRUEBA DE CONCEPTO INFRA 2013 11GEO621201KIA 00000000000000                                               076LA REFORMA                                                         
04567981       0000000000089768640200002610700780757578000000037945950000770006PRUEBA DE CONCEPTO INFRA 2013 11GEO621201KIA 00000000000000                                               077REYES ETLA                                                         
04567981       0000000000089768640200002638700647229972000000023691550000780006PRUEBA DE CONCEPTO INFRA 2013 11GEO621201KIA 00000000000000                                               078ROJAS DE CUAUHTEMOC                                                
04567981       0000000000089768640200012610001951431448000000023513750000940006PRUEBA DE CONCEPTO INFRA 2013 11GEO621201KIA 00000000000000                                               094SAN ANDRES NUXINO                                                  
04567981       0000000000089768640200002610700778267164000000014357950000960006PRUEBA DE CONCEPTO INFRA 2013 11GEO621201KIA 00000000000000                                               096SAN ANDRES SINAXTLA                                                
04567981       0000000000089768640200044610092026626550000000025064150000970006PRUEBA DE CONCEPTO INFRA 2013 11GEO621201KIA 00000000000000                                               097SAN ANDRES SOLAGA                                                  
04567981       0000000000089768640200002610700701107314000000031542050001020006PRUEBA DE CONCEPTO INFRA 2013 11GEO621201KIA 00000000000000                                               102SAN ANDRES ZAUTLA                                                  
04567981       0000000000089768640200044622093005330333000000082909250001030006PRUEBA DE CONCEPTO INFRA 2013 11GEO621201KIA 00000000000000                                               103SAN ANTONINO CASTILLO VELASCO                                      
04567981       0000000000089768640200014610220004025001000000178873950001070006PRUEBA DE CONCEPTO INFRA 2013 11GEO621201KIA 00000000000000                                               107SAN ANTONIO DE LA CAL                                              
04567981       0000000000089768640200012610001948869175000000027269250001080006PRUEBA DE CONCEPTO INFRA 2013 11GEO621201KIA 00000000000000                                               108SAN ANTONIO HUITEPEC                                               
04567981       0000000000089768640200012610001949548822000000086709600001120006PRUEBA DE CONCEPTO INFRA 2013 11GEO621201KIA 00000000000000                                               112SAN BALTAZAR CHICHICAPAM                                           
04567981       0000000000089768640200002621700580656907000000075548300001130006PRUEBA DE CONCEPTO INFRA 2013 11GEO621201KIA 00000000000000                                               113SAN BALTAZAR LOXICHA                                               
04567981       0000000000089768640200012610001950286555000000030269550001170006PRUEBA DE CONCEPTO INFRA 2013 11GEO621201KIA 00000000000000                                               117SAN BARTOLOME LOXICHA                                              
04567981       0000000000089768640200002638700730600424000000061308750001180006PRUEBA DE CONCEPTO INFRA 2013 11GEO621201KIA 00000000000000                                               118SAN BARTOLOME QUIALANA                                             
04567981       0000000000089768640200012610001950884371000000025021950001200006PRUEBA DE CONCEPTO INFRA 2013 11GEO621201KIA 00000000000000                                               120SAN BARTOLOME ZOOGOCHO                                             
04567981       0000000000089768640200012611001950372471000000019540450001210006PRUEBA DE CONCEPTO INFRA 2013 11GEO621201KIA 00000000000000                                               121SAN BARTOLO SOYALTEPEC                                             
04567981       0000000000089768640200002640700675524802000000040165400001230006PRUEBA DE CONCEPTO INFRA 2013 11GEO621201KIA 00000000000000                                               123SAN BERNARDO MIXTEPEC                                              
04567981       0000000000089768640200014610655042016951000000111773000001250006PRUEBA DE CONCEPTO INFRA 2013 11GEO621201KIA 00000000000000                                               125SAN CARLOS YAUTEPEC                                                
04567981       0000000000089768640200012610001949421240000000024813700001270006PRUEBA DE CONCEPTO INFRA 2013 11GEO621201KIA 00000000000000                                               127SAN CRISTOBAL AMOLTEPEC                                            
04567981       0000000000089768640200012611001948527102000000040348250001290006PRUEBA DE CONCEPTO INFRA 2013 11GEO621201KIA 00000000000000                                               129SAN CRISTOBAL SUCHIXTLAHUACA                                       
04567981       0000000000089768640200002622700026442056000000029204300001320006PRUEBA DE CONCEPTO INFRA 2013 11GEO621201KIA 00000000000000                                               132SAN DIONISIO OCOTLAN                                               
04567981       0000000000089768640200012628001948959679000000148862000001340006PRUEBA DE CONCEPTO INFRA 2013 11GEO621201KIA 00000000000000                                               134SAN FELIPE JALAPA DE DIAZ                                          
04567981       0000000000089768640200014628655041730039000000143178000001360006PRUEBA DE CONCEPTO INFRA 2013 11GEO621201KIA 00000000000000                                               136SAN FELIPE USILA                                                   
04567981       0000000000089768640200012610001948832173000000044587500001370006PRUEBA DE CONCEPTO INFRA 2013 11GEO621201KIA 00000000000000                                               137SAN FRANCISCO CAHUACUA                                             
04567981       0000000000089768640200002610700762128549000000014832900001400006PRUEBA DE CONCEPTO INFRA 2013 11GEO621201KIA 00000000000000                                               140SAN FRANCISCO CHINDUA                                              
04567981       0000000000089768640200002670700603818262000000020024250001420006PRUEBA DE CONCEPTO INFRA 2013 11GEO621201KIA 00000000000000                                               142SAN FRANCISCO HUEHUETLAN                                           
04567981       0000000000089768640200014610655041753875000000099733750001430006PRUEBA DE CONCEPTO INFRA 2013 11GEO621201KIA 00000000000000                                               143SAN FRANCISCO IXHUATAN                                             
04567981       0000000000089768640200002610700717258370000000017615350001440006PRUEBA DE CONCEPTO INFRA 2013 11GEO621201KIA 00000000000000                                               144SAN FRANCISCO JALTEPETONGO                                         
04567981       0000000000089768640200002610700707201227000000038543550001450006PRUEBA DE CONCEPTO INFRA 2013 11GEO621201KIA 00000000000000                                               145SAN FRANCISCO LACHIGOLO                                            
04567981       0000000000089768640200012611001951027589000000032128400001470006PRUEBA DE CONCEPTO INFRA 2013 11GEO621201KIA 00000000000000                                               147SAN FRANCISCO NUXANO                                               
04567981       0000000000089768640200002640700743932740000000029967950001490006PRUEBA DE CONCEPTO INFRA 2013 11GEO621201KIA 00000000000000                                               149SAN FRANCISCO SOLA                                                 
04567981       0000000000089768640200002610700701107152000000047857000001500006PRUEBA DE CONCEPTO INFRA 2013 11GEO621201KIA 00000000000000                                               150SAN FRANCISCO TELIXTLAHUACA                                        
04567981       0000000000089768640200012611001949454847000000015037700001510006PRUEBA DE CONCEPTO INFRA 2013 11GEO621201KIA 00000000000000                                               151SAN FRANCISCO TEOPAN                                               
04567981       0000000000089768640200044610092026661890000000028665900001550006PRUEBA DE CONCEPTO INFRA 2013 11GEO621201KIA 00000000000000                                               155SAN ILDEFONSO SOLA                                                 
04567981       0000000000089768640200002640700675525021000000032651200001580006PRUEBA DE CONCEPTO INFRA 2013 11GEO621201KIA 00000000000000                                               158SAN JACINTO TLACOTEPEC                                             
04567981       0000000000089768640200012622001949742470000000021353000001620006PRUEBA DE CONCEPTO INFRA 2013 11GEO621201KIA 00000000000000                                               162SAN JERONIMO TAVICHE                                               
04567981       0000000000089768640200002670700662131359000000045348550001630006PRUEBA DE CONCEPTO INFRA 2013 11GEO621201KIA 00000000000000                                               163SAN JERONIMO TECOATL                                               
04567981       0000000000089768640200012628001948718713000000066015500001660006PRUEBA DE CONCEPTO INFRA 2013 11GEO621201KIA 00000000000000                                               166SAN JOSE CHILTEPEC                                                 
04567981       0000000000089768640200002621700583863221000000027397200001670006PRUEBA DE CONCEPTO INFRA 2013 11GEO621201KIA 00000000000000                                               167SAN JOSE DEL PENASCO                                               
04567981       0000000000089768640200012628001950033936000000046265100001690006PRUEBA DE CONCEPTO INFRA 2013 11GEO621201KIA 00000000000000                                               169SAN JOSE INDEPENDENCIA                                             
04567981       0000000000089768640200036610500212996099000000118857400001710006PRUEBA DE CONCEPTO INFRA 2013 11GEO621201KIA 00000000000000                                               171SAN JOSE TENANGO                                                   
04567981       0000000000089768640200002613700647232683000000009936000001720006PRUEBA DE CONCEPTO INFRA 2013 11GEO621201KIA 00000000000000                                               172SAN JUAN ACHIUTLA                                                  
04567981       0000000000089768640200012611001950180566000000040745150001760006PRUEBA DE CONCEPTO INFRA 2013 11GEO621201KIA 00000000000000                                               176SAN JUAN BAUTISTA COIXTLAHUACA                                     
04567981       0000000000089768640200012628001948933954000000024746300001820006PRUEBA DE CONCEPTO INFRA 2013 11GEO621201KIA 00000000000000                                               182SAN JUAN BAUTISTA TLACOATZINTEPEC                                  
04567981       0000000000089768640200012623001949831814000000050086900001850006PRUEBA DE CONCEPTO INFRA 2013 11GEO621201KIA 00000000000000                                               185SAN JUAN CACAHUATEPEC                                              
04567981       0000000000089768640200014623655041721470000000035028600001880006PRUEBA DE CONCEPTO INFRA 2013 11GEO621201KIA 00000000000000                                               188SAN JUAN COLORADO                                                  
04567981       0000000000089768640200014610220004023294000000021804800001890006PRUEBA DE CONCEPTO INFRA 2013 11GEO621201KIA 00000000000000                                               189SAN JUAN COMALTEPEC                                                
04567981       0000000000089768640200014855220004019652000000074736500001900006PRUEBA DE CONCEPTO INFRA 2013 11GEO621201KIA 00000000000000                                               190SAN JUAN COTZOCON                                                  
04567981       0000000000089768640200044622093005282850000000025855500001920006PRUEBA DE CONCEPTO INFRA 2013 11GEO621201KIA 00000000000000                                               192SAN JUAN CHILATECA                                                 
04567981       0000000000089768640200002638700685987784000000029253800001940006PRUEBA DE CONCEPTO INFRA 2013 11GEO621201KIA 00000000000000                                               194SAN JUAN DEL RIO                                                   
04567981       0000000000089768640200002610700774709545000000032595350001950006PRUEBA DE CONCEPTO INFRA 2013 11GEO621201KIA 00000000000000                                               195SAN JUAN DIUXI                                                     
04567981       0000000000089768640200012610001948605193000000054849200001970006PRUEBA DE CONCEPTO INFRA 2013 11GEO621201KIA 00000000000000                                               197SAN JUAN GUELAVIA                                                  
04567981       0000000000089768640200044620086003415418000000322033550001980006PRUEBA DE CONCEPTO INFRA 2013 11GEO621201KIA 00000000000000                                               198SAN JUAN GUICHICOVI                                                
04567981       0000000000089768640200044614207000210757000000021270000001990006PRUEBA DE CONCEPTO INFRA 2013 11GEO621201KIA 00000000000000                                               199SAN JUAN IHUALTEPEC                                                
04567981       0000000000089768640200044622093005329328000000031504700002030006PRUEBA DE CONCEPTO INFRA 2013 11GEO621201KIA 00000000000000                                               203SAN JUAN LACHIGALLA                                                
04567981       0000000000089768640200012610001951430986000000019067400002040006PRUEBA DE CONCEPTO INFRA 2013 11GEO621201KIA 00000000000000                                               204SAN JUAN LAJARCIA                                                  
04567981       0000000000089768640200014855655041843430000000136820950002050006PRUEBA DE CONCEPTO INFRA 2013 11GEO621201KIA 00000000000000                                               205SAN JUAN LALANA                                                    
04567981       0000000000089768640200014610655041933446000000027176300002120006PRUEBA DE CONCEPTO INFRA 2013 11GEO621201KIA 00000000000000                                               212SAN JUAN PETLAPA                                                   
04567981       0000000000089768640200012610001949960549000000044626500002130006PRUEBA DE CONCEPTO INFRA 2013 11GEO621201KIA 00000000000000                                               213SAN JUAN QUIAHIJE                                                  
04567981       0000000000089768640200044610092026623294000000021972100002140006PRUEBA DE CONCEPTO INFRA 2013 11GEO621201KIA 00000000000000                                               214SAN JUAN QUIOTEPEC                                                 
04567981       0000000000089768640200002610700741943952000000022788650002150006PRUEBA DE CONCEPTO INFRA 2013 11GEO621201KIA 00000000000000                                               215SAN JUAN SAYULTEPEC                                                
04567981       0000000000089768640200002638700629956195000000037038950002190006PRUEBA DE CONCEPTO INFRA 2013 11GEO621201KIA 00000000000000                                               219SAN JUAN TEITIPAC                                                  
04567981       0000000000089768640200012610001950336162000000034601000002230006PRUEBA DE CONCEPTO INFRA 2013 11GEO621201KIA 00000000000000                                               223SAN JUAN YATZONA                                                   
04567981       0000000000089768640200002610700777714317000000019026400002240006PRUEBA DE CONCEPTO INFRA 2013 11GEO621201KIA 00000000000000                                               224SAN JUAN YUCUITA                                                   
04567981       0000000000089768640200002638700717014745000000050855150002260006PRUEBA DE CONCEPTO INFRA 2013 11GEO621201KIA 00000000000000                                               226SAN LORENZO ALBARRADAS                                             
04567981       0000000000089768640200012610001949695610000000116054750002270006PRUEBA DE CONCEPTO INFRA 2013 11GEO621201KIA 00000000000000                                               227SAN LORENZO CACAOTEPEC                                             
04567981       0000000000089768640200002670700669137576000000027976000002280006PRUEBA DE CONCEPTO INFRA 2013 11GEO621201KIA 00000000000000                                               228SAN LORENZO CUAUNECUILTITLA                                        
04567981       0000000000089768640200002640700676642039000000035471450002290006PRUEBA DE CONCEPTO INFRA 2013 11GEO621201KIA 00000000000000                                               229SAN LORENZO TEXMELUCAN                                             
04567981       0000000000089768640200044614207000210838000000019126050002300006PRUEBA DE CONCEPTO INFRA 2013 11GEO621201KIA 00000000000000                                               230SAN LORENZO VICTORIA                                               
04567981       0000000000089768640200012610001951001784000000027519300002310006PRUEBA DE CONCEPTO INFRA 2013 11GEO621201KIA 00000000000000                                               231SAN LUCAS CAMOTLAN                                                 
04567981       0000000000089768640200014855220004024540000000144292500002320006PRUEBA DE CONCEPTO INFRA 2013 11GEO621201KIA 00000000000000                                               232SAN LUCAS OJITLAN                                                  
04567981       0000000000089768640200014610655042242796000000063731100002330006PRUEBA DE CONCEPTO INFRA 2013 11GEO621201KIA 00000000000000                                               233SAN LUCAS QUIAVINI                                                 
04567981       0000000000089768640200002671700712199075000000034213100002340006PRUEBA DE CONCEPTO INFRA 2013 11GEO621201KIA 00000000000000                                               234SAN LUCAS ZOQUIAPAM                                                
04567981       0000000000089768640200002635700022538854000000040121400002420006PRUEBA DE CONCEPTO INFRA 2013 11GEO621201KIA 00000000000000                                               242SAN MARTIN PERAS                                                   
04567981       0000000000089768640200044622093005330841000000042351200002430006PRUEBA DE CONCEPTO INFRA 2013 11GEO621201KIA 00000000000000                                               243SAN MARTIN TILCAJETE                                               
04567981       0000000000089768640200002671700716994292000000041407050002490006PRUEBA DE CONCEPTO INFRA 2013 11GEO621201KIA 00000000000000                                               249SAN MATEO YOLOXOCHITLAN                                            
04567981       0000000000089768640200002610700748055801000000030757950002500006PRUEBA DE CONCEPTO INFRA 2013 11GEO621201KIA 00000000000000                                               250SAN MATEO ETLATONGO                                                
04567981       0000000000089768640200014610655041767324000000035459150002530006PRUEBA DE CONCEPTO INFRA 2013 11GEO621201KIA 00000000000000                                               253SAN MATEO PINAS                                                    
04567981       0000000000089768640200012611001950325473000000023472800002550006PRUEBA DE CONCEPTO INFRA 2013 11GEO621201KIA 00000000000000                                               255SAN MATEO SINDIHUI                                                 
04567981       0000000000089768640200002610700769608509000000022864350002600006PRUEBA DE CONCEPTO INFRA 2013 11GEO621201KIA 00000000000000                                               260SAN MIGUEL ALOAPAM                                                 
04567981       0000000000089768640200012610001951336297000000043887950002640006PRUEBA DE CONCEPTO INFRA 2013 11GEO621201KIA 00000000000000                                               264SAN MIGUEL CHICAHUA                                                
04567981       0000000000089768640200014610655041657751000000286175500002660006PRUEBA DE CONCEPTO INFRA 2013 11GEO621201KIA 00000000000000                                               266SAN MIGUEL DEL PUERTO                                              
04567981       0000000000089768640200002622700127450691000000022610100002680006PRUEBA DE CONCEPTO INFRA 2013 11GEO621201KIA 00000000000000                                               268SAN MIGUEL EJUTLA                                                  
04567981       0000000000089768640200012610001949114748000000113724700002690006PRUEBA DE CONCEPTO INFRA 2013 11GEO621201KIA 00000000000000                                               269SAN MIGUEL EL GRANDE                                               
04567981       0000000000089768640200012611001948697294000000027523850002700006PRUEBA DE CONCEPTO INFRA 2013 11GEO621201KIA 00000000000000                                               270SAN MIGUEL HUAUTLA                                                 
04567981       0000000000089768640200002624700104085456000000032092500002720006PRUEBA DE CONCEPTO INFRA 2013 11GEO621201KIA 00000000000000                                               272SAN MIGUEL PANIXTLAHUACA                                           
04567981       0000000000089768640200002610700777714744000000025015100002740006PRUEBA DE CONCEPTO INFRA 2013 11GEO621201KIA 00000000000000                                               274SAN MIGUEL PIEDRAS                                                 
04567981       0000000000089768640200002610700724500684000000032648400002750006PRUEBA DE CONCEPTO INFRA 2013 11GEO621201KIA 00000000000000                                               275SAN MIGUEL QUETZALTEPEC                                            
04567981       0000000000089768640200014628920019071918000000280298350002780006PRUEBA DE CONCEPTO INFRA 2013 11GEO621201KIA 00000000000000                                               278SAN MIGUEL SOYALTEPEC                                              
04567981       0000000000089768640200012611001950532774000000015526000002810006PRUEBA DE CONCEPTO INFRA 2013 11GEO621201KIA 00000000000000                                               281SAN MIGUEL TECOMATLAN                                              
04567981       0000000000089768640200012611001949658685000000027680200002830006PRUEBA DE CONCEPTO INFRA 2013 11GEO621201KIA 00000000000000                                               283SAN MIGUEL TEQUIXTEPEC                                             
04567981       0000000000089768640200044622093005313088000000074115500002840006PRUEBA DE CONCEPTO INFRA 2013 11GEO621201KIA 00000000000000                                               284SAN MIGUEL TILQUIAPAM                                              
04567981       0000000000089768640200021635040571525554000000048253600002860006PRUEBA DE CONCEPTO INFRA 2013 11GEO621201KIA 00000000000000                                               286SAN MIGUEL TLACOTEPEC                                              
04567981       0000000000089768640200012611001949485133000000016153050002870006PRUEBA DE CONCEPTO INFRA 2013 11GEO621201KIA 00000000000000                                               287SAN MIGUEL TULANCINGO                                              
04567981       0000000000089768640200014614655041730658000000019678150002900006PRUEBA DE CONCEPTO INFRA 2013 11GEO621201KIA 00000000000000                                               290SAN NICOLAS HIDALGO                                                
04567981       0000000000089768640200012610001949526349000000024281250002920006PRUEBA DE CONCEPTO INFRA 2013 11GEO621201KIA 00000000000000                                               292SAN PABLO CUATRO VENADOS                                           
04567981       0000000000089768640200044610092026576192000000161347050002930006PRUEBA DE CONCEPTO INFRA 2013 11GEO621201KIA 00000000000000                                               293SAN PABLO ETLA                                                     
04567981       0000000000089768640200012610001949543513000000132146300002950006PRUEBA DE CONCEPTO INFRA 2013 11GEO621201KIA 00000000000000                                               295SAN PABLO HUIXTEPEC                                                
04567981       0000000000089768640200002638700647228656000000091654900002980006PRUEBA DE CONCEPTO INFRA 2013 11GEO621201KIA 00000000000000                                               298SAN PABLO VILLA DE MITLA                                           
04567981       0000000000089768640200012610001951462598000000024414000002990006PRUEBA DE CONCEPTO INFRA 2013 11GEO621201KIA 00000000000000                                               299SAN PABLO YAGANIZA                                                 
04567981       0000000000089768640200002610063901260594000000047985500003000006PRUEBA DE CONCEPTO INFRA 2013 11GEO621201KIA 00000000000000                                               300SAN PEDRO AMUZGOS                                                  
04567981       0000000000089768640200012622001948614347000000062791150003010006PRUEBA DE CONCEPTO INFRA 2013 11GEO621201KIA 00000000000000                                               301SAN PEDRO APOSTOL                                                  
04567981       0000000000089768640200012623001949913703000000032843450003020006PRUEBA DE CONCEPTO INFRA 2013 11GEO621201KIA 00000000000000                                               302SAN PEDRO ATOYAC                                                   
04567981       0000000000089768640200012610001949218796000000017069100003030006PRUEBA DE CONCEPTO INFRA 2013 11GEO621201KIA 00000000000000                                               303SAN PEDRO CAJONOS                                                  
04567981       0000000000089768640200012611001950242420000000020481800003040006PRUEBA DE CONCEPTO INFRA 2013 11GEO621201KIA 00000000000000                                               304SAN PEDRO COXCALTEPEC CANTAROS                                     
04567981       0000000000089768640200002616700467961856000000048426100003050006PRUEBA DE CONCEPTO INFRA 2013 11GEO621201KIA 00000000000000                                               305SAN PEDRO COMITANCILLO                                             
04567981       0000000000089768640200002621700582090215000000045632250003060006PRUEBA DE CONCEPTO INFRA 2013 11GEO621201KIA 00000000000000                                               306SAN PEDRO EL ALTO                                                  
04567981       0000000000089768640200021626040570222045000000068933800003080006PRUEBA DE CONCEPTO INFRA 2013 11GEO621201KIA 00000000000000                                               308SAN PEDRO HUILOTEPEC                                               
04567981       0000000000089768640200126280019488226968000000075806850003090006PRUEBA DE CONCEPTO INFRA 2013 11GEO621201KIA 00000000000000                                               309SAN PEDRO IXCATLAN                                                 
04567981       0000000000089768640200044622093005330090000000035539700003150006PRUEBA DE CONCEPTO INFRA 2013 11GEO621201KIA 00000000000000                                               315SAN PEDRO MARTIR                                                   
04567981       0000000000089768640200012610001949386233000000030047250003160006PRUEBA DE CONCEPTO INFRA 2013 11GEO621201KIA 00000000000000                                               316SAN PEDRO MARTIR QUIECHAPA                                         
04567981       0000000000089768640200002613700601368726000000030448950003170006PRUEBA DE CONCEPTO INFRA 2013 11GEO621201KIA 00000000000000                                               317SAN PEDRO MARTIR YUCUXACO                                          
04567981       0000000000089768640200012610001949862537000000013439000003200006PRUEBA DE CONCEPTO INFRA 2013 11GEO621201KIA 00000000000000                                               320SAN PEDRO MOLINOS                                                  
04567981       0000000000089768640200002670700649934278000000028043000003220006PRUEBA DE CONCEPTO INFRA 2013 11GEO621201KIA 00000000000000                                               322SAN PEDRO OCOPETATILLO                                             
04567981       0000000000089768640200012610001948979191000000022468700003230006PRUEBA DE CONCEPTO INFRA 2013 11GEO621201KIA 00000000000000                                               323SAN PEDRO OCOTEPEC                                                 
04567981       0000000000089768640200044630094005848272000000229589800003240006PRUEBA DE CONCEPTO INFRA 2013 11GEO621201KIA 00000000000000                                               324SAN PEDRO POCHUTLA                                                 
04567981       0000000000089768640200002638700602286109000000097659200003250006PRUEBA DE CONCEPTO INFRA 2013 11GEO621201KIA 00000000000000                                               325SAN PEDRO QUIATONI                                                 
04567981       0000000000089768640200002631700582227968000000278037350003270006PRUEBA DE CONCEPTO INFRA 2013 11GEO621201KIA 00000000000000                                               327SAN PEDRO TAPANATEPEC                                              
04567981       0000000000089768640200044622093005307191000000020532000003280006PRUEBA DE CONCEPTO INFRA 2013 11GEO621201KIA 00000000000000                                               328SAN PEDRO TAVICHE                                                  
04567981       0000000000089768640200002610700772895752000000020516850003290006PRUEBA DE CONCEPTO INFRA 2013 11GEO621201KIA 00000000000000                                               329SAN PEDRO TEOZACOALCO                                              
04567981       0000000000089768640200014855220004041510000000027928600003300006PRUEBA DE CONCEPTO INFRA 2013 11GEO621201KIA 00000000000000                                               330SAN PEDRO TEUTILA                                                  
04567981       0000000000089768640200002610700776053888000000029415000003310006PRUEBA DE CONCEPTO INFRA 2013 11GEO621201KIA 00000000000000                                               331SAN PEDRO TIDAA                                                    
04567981       0000000000089768640200002638700670454141000000016407350003330006PRUEBA DE CONCEPTO INFRA 2013 11GEO621201KIA 00000000000000                                               333SAN PEDRO TOTOLAPAM                                                
04567981       0000000000089768640200002624700104084994000000188309650003340006PRUEBA DE CONCEPTO INFRA 2013 11GEO621201KIA 00000000000000                                               334VILLA DE TUTUTEPEC DE MELCHOR OCAMPO                               
04567981       0000000000089768640200002635700022538265000000102737650003480006PRUEBA DE CONCEPTO INFRA 2013 11GEO621201KIA 00000000000000                                               348SAN SEBASTIAN TECOMAXTLAHUACA                                      
04567981       0000000000089768640200002670700665255601000000022695250003540006PRUEBA DE CONCEPTO INFRA 2013 11GEO621201KIA 00000000000000                                               354SANTA ANA ATEIXTLAHUACA                                            
04567981       0000000000089768640200012610001950907096000000022740000003550006PRUEBA DE CONCEPTO INFRA 2013 11GEO621201KIA 00000000000000                                               355SANTA ANA CUAUHTEMOC                                               
04567981       0000000000089768640200002638700670454060000000031440800003560006PRUEBA DE CONCEPTO INFRA 2013 11GEO621201KIA 00000000000000                                               356SANTA ANA DEL VALLE                                                
04567981       0000000000089768640200012610001951715397000000026324650003570006PRUEBA DE CONCEPTO INFRA 2013 11GEO621201KIA 00000000000000                                               357SANTA ANA TAVELA                                                   
04567981       0000000000089768640200002621700578993504000000028747200003620006PRUEBA DE CONCEPTO INFRA 2013 11GEO621201KIA 00000000000000                                               362SANTA CATARINA CUIXTLA                                             
04567981       0000000000089768640200012610001948876621000000144536550003640006PRUEBA DE CONCEPTO INFRA 2013 11GEO621201KIA 00000000000000                                               364SANTA CATARINA JUQUILA                                             
04567981       0000000000089768640200014623655041912833000000036559750003670006PRUEBA DE CONCEPTO INFRA 2013 11GEO621201KIA 00000000000000                                               367SANTA CATARINA MECHOACAN                                           
04567981       0000000000089768640200044622093005312432000000078372050003680006PRUEBA DE CONCEPTO INFRA 2013 11GEO621201KIA 00000000000000                                               368SANTA CATARINA MINAS                                               
04567981       0000000000089768640200002613700632160870000000025514200003700006PRUEBA DE CONCEPTO INFRA 2013 11GEO621201KIA 00000000000000                                               370SANTA CATARINA TAYATA                                              
04567981       0000000000089768640200021633040570219902000000109157400003750006PRUEBA DE CONCEPTO INFRA 2013 11GEO621201KIA 00000000000000                                               375SANTA CRUZ AMILPAS                                                 
04567981       0000000000089768640200014614655041798470000000016779350003760006PRUEBA DE CONCEPTO INFRA 2013 11GEO621201KIA 00000000000000                                               376SANTA CRUZ DE BRAVO                                                
04567981       0000000000089768640200002613700601368645000000076493950003770006PRUEBA DE CONCEPTO INFRA 2013 11GEO621201KIA 00000000000000                                               377SANTA CRUZ ITUNDUJIA                                               
04567981       0000000000089768640200012610001949425314000000023591300003790006PRUEBA DE CONCEPTO INFRA 2013 11GEO621201KIA 00000000000000                                               379SANTA CRUZ NUNDACO                                                 
04567981       0000000000089768640200012610001949882054000000025965950003820006PRUEBA DE CONCEPTO INFRA 2013 11GEO621201KIA 00000000000000                                               382SANTA CRUZ TACAHUA                                                 
04567981       0000000000089768640200044610092026624264000000035470000003870006PRUEBA DE CONCEPTO INFRA 2013 11GEO621201KIA 00000000000000                                               387SANTA GERTRUDIS                                                    
04567981       0000000000089768640200014610655041568824000000208972050003900006PRUEBA DE CONCEPTO INFRA 2013 11GEO621201KIA 00000000000000                                               390SANTA LUCIA DEL CAMINO                                             
04567981       0000000000089768640200044622093005331659000000032602450003930006PRUEBA DE CONCEPTO INFRA 2013 11GEO621201KIA 00000000000000                                               393SANTA LUCIA OCOTLAN                                                
04567981       0000000000089768640200012610001948951850000000019481800003940006PRUEBA DE CONCEPTO INFRA 2013 11GEO621201KIA 00000000000000                                               394SANTA MARIA ALOTEPEC                                               
04567981       0000000000089768640200002610700777714074000000029106700003950006PRUEBA DE CONCEPTO INFRA 2013 11GEO621201KIA 00000000000000                                               395SANTA MARIA APAZCO                                                 
04567981       0000000000089768640200002670700646880396000000031442200003960006PRUEBA DE CONCEPTO INFRA 2013 11GEO621201KIA 00000000000000                                               396SANTA MARIA LA ASUNCION                                            
04567981       0000000000089768640200002640700675524488000000061243950003980006PRUEBA DE CONCEPTO INFRA 2013 11GEO621201KIA 00000000000000                                               398AYOQUEZCO DE ALDAMA                                                
04567981       0000000000089768640200012611001950889689000000028586450004040006PRUEBA DE CONCEPTO INFRA 2013 11GEO621201KIA 00000000000000                                               404SANTA MARIA CHACHOAPAM                                             
04567981       0000000000089768640200012634001948547130000001178267650004130006PRUEBA DE CONCEPTO INFRA 2013 11GEO621201KIA 00000000000000                                               413SANTA MARIA HUATULCO                                               
04567981       0000000000089768640200014623655041722550000000070970050004140006PRUEBA DE CONCEPTO INFRA 2013 11GEO621201KIA 00000000000000                                               414SANTA MARIA HUAZOLOTITLAN                                          
04567981       0000000000089768640200021628040570221057000000108242650004170006PRUEBA DE CONCEPTO INFRA 2013 11GEO621201KIA 00000000000000                                               417SANTA MARIA JACATEPEC                                              
04567981       0000000000089768640200002610700768830828000000021265400004220006PRUEBA DE CONCEPTO INFRA 2013 11GEO621201KIA 00000000000000                                               422SANTA MARIA NATIVITAS                                              
04567981       0000000000089768640200012611001951524969000000016705600004230006PRUEBA DE CONCEPTO INFRA 2013 11GEO621201KIA 00000000000000                                               423SANTA MARIA NDUAYACO                                               
04567981       0000000000089768640200044610092026623100000000027452000004280006PRUEBA DE CONCEPTO INFRA 2013 11GEO621201KIA 00000000000000                                               428SANTA MARIA QUIEGOLANI                                             
04567981       0000000000089768640200021610040570223607000000024065200004330006PRUEBA DE CONCEPTO INFRA 2013 11GEO621201KIA 00000000000000                                               433SANTA MARIA TEMAXCALTEPEC                                          
04567981       0000000000089768640200012610001951823603000000021809850004360006PRUEBA DE CONCEPTO INFRA 2013 11GEO621201KIA 00000000000000                                               436SANTA MARIA TEXCATITLAN                                            
04567981       0000000000089768640200012610001949091434000000036071300004370006PRUEBA DE CONCEPTO INFRA 2013 11GEO621201KIA 00000000000000                                               437SANTA MARIA TLAHUITOLTEPEC                                         
04567981       0000000000089768640200044630094005848515000001136567200004390006PRUEBA DE CONCEPTO INFRA 2013 11GEO621201KIA 00000000000000                                               439SANTA MARIA TONAMECA                                               
04567981       0000000000089768640200012610001949865204000000016755550004420006PRUEBA DE CONCEPTO INFRA 2013 11GEO621201KIA 00000000000000                                               442SANTA MARIA YALINA                                                 
04567981       0000000000089768640200012610001949097988000000019405000004440006PRUEBA DE CONCEPTO INFRA 2013 11GEO621201KIA 00000000000000                                               444SANTA MARIA YOLOTEPEC                                              
04567981       0000000000089768640200002636700286284532000000135350400004470006PRUEBA DE CONCEPTO INFRA 2013 11GEO621201KIA 00000000000000                                               447SANTA MARIA ZACATEPEC                                              
04567981       0000000000089768640200014610655042174479000000021319600004480006PRUEBA DE CONCEPTO INFRA 2013 11GEO621201KIA 00000000000000                                               448SANTA MARIA ZANIZA                                                 
04567981       0000000000089768640200012610001949540095000000026643400004490006PRUEBA DE CONCEPTO INFRA 2013 11GEO621201KIA 00000000000000                                               449SANTA MARIA ZOQUITLAN                                              
04567981       0000000000089768640200012610001949539080000000042575500004500006PRUEBA DE CONCEPTO INFRA 2013 11GEO621201KIA 00000000000000                                               450SANTIAGO AMOLTEPEC                                                 
04567981       0000000000089768640200002610700772887812000000023303300004510006PRUEBA DE CONCEPTO INFRA 2013 11GEO621201KIA 00000000000000                                               451SANTIAGO APOALA                                                    
04567981       0000000000089768640200044622093005305229000000053522700004520006PRUEBA DE CONCEPTO INFRA 2013 11GEO621201KIA 00000000000000                                               452SANTIAGO APOSTOL                                                   
04567981       0000000000089768640200014614655041795606000000035130750004560006PRUEBA DE CONCEPTO INFRA 2013 11GEO621201KIA 00000000000000                                               456SANTIAGO CACALOXTEPEC                                              
04567981       0000000000089768640200002635700073556869000000023926500004610006PRUEBA DE CONCEPTO INFRA 2013 11GEO621201KIA 00000000000000                                               461SANTIAGO DEL RIO                                                   
04567981       0000000000089768640200002610700777713774000000018010400004630006PRUEBA DE CONCEPTO INFRA 2013 11GEO621201KIA 00000000000000                                               463SANTIAGO HUAUCLILLA                                                
04567981       0000000000089768640200012611001949538433000000017348400004640006PRUEBA DE CONCEPTO INFRA 2013 11GEO621201KIA 00000000000000                                               464SANTIAGO IHUITLAN PLUMAS                                           
04567981       0000000000089768640200012610001951069234000000022307100004650006PRUEBA DE CONCEPTO INFRA 2013 11GEO621201KIA 00000000000000                                               465SANTIAGO IXCUINTEPEC                                               
04567981       0000000000089768640200014623655041713239000000041351600004660006PRUEBA DE CONCEPTO INFRA 2013 11GEO621201KIA 00000000000000                                               466SANTIAGO IXTAYUTLA                                                 
04567981       0000000000089768640200012623001949306491000000755094900004670006PRUEBA DE CONCEPTO INFRA 2013 11GEO621201KIA 00000000000000                                               467SANTIAGO JAMILTEPEC                                                
04567981       0000000000089768640200002635700035705904000000241474350004690006PRUEBA DE CONCEPTO INFRA 2013 11GEO621201KIA 00000000000000                                               469SANTIAGO JUXTLAHUACA                                               
04567981       0000000000089768640200012611001950516813000000015449300004790006PRUEBA DE CONCEPTO INFRA 2013 11GEO621201KIA 00000000000000                                               479SANTIAGO NEJAPILLA                                                 
04567981       0000000000089768640200002613700610501309000000029073050004810006PRUEBA DE CONCEPTO INFRA 2013 11GEO621201KIA 00000000000000                                               481SANTIAGO NUYOO                                                     
04567981       0000000000089768640200014623655041713064000000355541150004820006PRUEBA DE CONCEPTO INFRA 2013 11GEO621201KIA 00000000000000                                               482SANTIAGO PINOTEPA NACIONAL                                         
04567981       0000000000089768640200014614655041719174000000048784500004840006PRUEBA DE CONCEPTO INFRA 2013 11GEO621201KIA 00000000000000                                               484SANTIAGO TAMAZOLA                                                  
04567981       0000000000089768640200014623655041871540000000038896500004850006PRUEBA DE CONCEPTO INFRA 2013 11GEO621201KIA 00000000000000                                               485SANTIAGO TAPEXTLA                                                  
04567981       0000000000089768640200012611001948776160000000019796500004880006PRUEBA DE CONCEPTO INFRA 2013 11GEO621201KIA 00000000000000                                               488SANTIAGO TEPETLAPA                                                 
04567981       0000000000089768640200002671700716447998000000028772150004900006PRUEBA DE CONCEPTO INFRA 2013 11GEO621201KIA 00000000000000                                               490SANTIAGO TEXCALCINGO                                               
04567981       0000000000089768640200012611001949408149000000044957100004920006PRUEBA DE CONCEPTO INFRA 2013 11GEO621201KIA 00000000000000                                               492SANTIAGO TILANTONGO                                                
04567981       0000000000089768640200012611001950385536000000016770400004930006PRUEBA DE CONCEPTO INFRA 2013 11GEO621201KIA 00000000000000                                               493SANTIAGO TILLO                                                     
04567981       0000000000089768640200044630094005848942000000029050600004950006PRUEBA DE CONCEPTO INFRA 2013 11GEO621201KIA 00000000000000                                               495SANTIAGO XANICA                                                    
04567981       0000000000089768640200012628001950053291000000055222650004980006PRUEBA DE CONCEPTO INFRA 2013 11GEO621201KIA 00000000000000                                               498SANTIAGO YAVEO                                                     
04567981       0000000000089768640200002613700633017346000000046440150005000006PRUEBA DE CONCEPTO INFRA 2013 11GEO621201KIA 00000000000000                                               500SANTIAGO YOSONDUA                                                  
04567981       0000000000089768640200012610001923988262000000022981700005030006PRUEBA DE CONCEPTO INFRA 2013 11GEO621201KIA 00000000000000                                               503SANTIAGO ZOOCHILA                                                  
04567981       0000000000089768640200012610001950037762000000031672400005040006PRUEBA DE CONCEPTO INFRA 2013 11GEO621201KIA 00000000000000                                               504NUEVO ZOQUIAPAM                                                    
04567981       0000000000089768640200012617001950625944000000034577100005050006PRUEBA DE CONCEPTO INFRA 2013 11GEO621201KIA 00000000000000                                               505SANTO DOMINGO INGENIO                                              
04567981       0000000000089768640200014623655041738133000000036720850005070006PRUEBA DE CONCEPTO INFRA 2013 11GEO621201KIA 00000000000000                                               507SANTO DOMINGO ARMENTA                                              
04567981       0000000000089768640200044630094005847972000000064833850005090006PRUEBA DE CONCEPTO INFRA 2013 11GEO621201KIA 00000000000000                                               509SANTO DOMINGO DE MORELOS                                           
04567981       0000000000089768640200002610700738373069000000042522050005110006PRUEBA DE CONCEPTO INFRA 2013 11GEO621201KIA 00000000000000                                               511SANTO DOMINGO NUXAA                                                
04567981       0000000000089768640200002627700417042073000000040260200005130006PRUEBA DE CONCEPTO INFRA 2013 11GEO621201KIA 00000000000000                                               513SANTO DOMINGO PETAPA                                               
04567981       0000000000089768640200012610001949890826000000025440400005140006PRUEBA DE CONCEPTO INFRA 2013 11GEO621201KIA 00000000000000                                               514SANTO DOMINGO ROAYAGA                                              
04567981       0000000000089768640200044610092026604909000000031367700005160006PRUEBA DE CONCEPTO INFRA 2013 11GEO621201KIA 00000000000000                                               516SANTO DOMINGO TEOJOMULCO                                           
04567981       0000000000089768640200012611001949798859000000017234850005180006PRUEBA DE CONCEPTO INFRA 2013 11GEO621201KIA 00000000000000                                               518SANTO DOMINGO TLATAYAPAM                                           
04567981       0000000000089768640200002610700774071600000000018845200005210006PRUEBA DE CONCEPTO INFRA 2013 11GEO621201KIA 00000000000000                                               521SANTO DOMINGO TONALTEPEC                                           
04567981       0000000000089768640200044614207000195500000000016524650005240006PRUEBA DE CONCEPTO INFRA 2013 11GEO621201KIA 00000000000000                                               524SANTO DOMINGO YODOHINO                                             
04567981       0000000000089768640200002631700563131235000000093256200005250006PRUEBA DE CONCEPTO INFRA 2013 11GEO621201KIA 00000000000000                                               525SANTO DOMINGO ZANATEPEC                                            
04567981       0000000000089768640200002624700104084729000000076117950005260006PRUEBA DE CONCEPTO INFRA 2013 11GEO621201KIA 00000000000000                                               526SANTOS REYES NOPALA                                                
04567981       0000000000089768640200002622700708246376000000035726650005340006PRUEBA DE CONCEPTO INFRA 2013 11GEO621201KIA 00000000000000                                               534SAN VICENTE COATLAN                                                
04567981       0000000000089768640200002640700727578214000000027621100005350006PRUEBA DE CONCEPTO INFRA 2013 11GEO621201KIA 00000000000000                                               535SAN VICENTE LACHIXIO                                               
04567981       0000000000089768640200002635700135139195000000082431350005370006PRUEBA DE CONCEPTO INFRA 2013 11GEO621201KIA 00000000000000                                               537SILACAYOAPAM                                                       
04567981       0000000000089768640200002622700774759130000000027884050005420006PRUEBA DE CONCEPTO INFRA 2013 11GEO621201KIA 00000000000000                                               542TANICHE                                                            
04567981       0000000000089768640200012670001950329627000000172646050005450006PRUEBA DE CONCEPTO INFRA 2013 11GEO621201KIA 00000000000000                                               545TEOTITLAN DE FLORES MAGON                                          
04567981       0000000000089768640200002638700647229626000000052423100005460006PRUEBA DE CONCEPTO INFRA 2013 11GEO621201KIA 00000000000000                                               546TEOTITLAN DEL VALLE                                                
04567981       0000000000089768640200002638700615133359000000280463750005510006PRUEBA DE CONCEPTO INFRA 2013 11GEO621201KIA 00000000000000                                               551TLACOLULA DE MATAMOROS                                             
04567981       0000000000089768640200012611001950410317000000026851000005520006PRUEBA DE CONCEPTO INFRA 2013 11GEO621201KIA 00000000000000                                               552TLACOTEPEC PLUMAS                                                  
04567981       0000000000089768640200021633040570223037000000110005550005530006PRUEBA DE CONCEPTO INFRA 2013 11GEO621201KIA 00000000000000                                               553TLALIXTAC DE CABRERA                                               
04567981       0000000000089768640200044617087005204037000000193162150005570006PRUEBA DE CONCEPTO INFRA 2013 11GEO621201KIA 00000000000000                                               557UNION HIDALGO                                                      
04567981       0000000000089768640200014855655041927783000000085283600005590006PRUEBA DE CONCEPTO INFRA 2013 11GEO621201KIA 00000000000000                                               559SAN JUAN BAUTISTA VALLE NACIONAL                                   
04567981       0000000000089768640200012610001949516469000000066961500005600006PRUEBA DE CONCEPTO INFRA 2013 11GEO621201KIA 00000000000000                                               560VILLA DIAZ ORDAZ                                                   
04567981       0000000000089768640200044622093005281961000000087061600005610006PRUEBA DE CONCEPTO INFRA 2013 11GEO621201KIA 00000000000000                                               561YAXE                                                               
04567981       0000000000089768640200012611001949677394000000027150150005620006PRUEBA DE CONCEPTO INFRA 2013 11GEO621201KIA 00000000000000                                               562MAGDALENA YODOCONO DE PORFIRIO DIAZ                                
04567981       0000000000089768640200044622093005332894000000022622400005630006PRUEBA DE CONCEPTO INFRA 2013 11GEO621201KIA 00000000000000                                               563YOGANA                                                             
04567981       0000000000089768640200002610700779120860000000029363250005640006PRUEBA DE CONCEPTO INFRA 2013 11GEO621201KIA 00000000000000                                               564YUTANDUCHI DE GUERRERO                                             
04567981       0000000000089768640200002640700720058540000000160959000005700006PRUEBA DE CONCEPTO INFRA 2013 11GEO621201KIA 00000000000000                                               570ZIMATLAN DE ALVAREZ                                                
