02567981       0000000000089768640200000000000213507602000000026572250000010006PRUEBA DE CONCEPTO INFRA 2013 11GEO621201KIA 00000000000000                                               001ABEJONES                                                           
02567981       0000000000089768640200000000000216018725000000024782800000030006PRUEBA DE CONCEPTO INFRA 2013 11GEO621201KIA 00000000000000                                               003ASUNCION CACALOTEPEC                                               
02567981       0000000000089768640200000000000212548475000000018734050000040006PRUEBA DE CONCEPTO INFRA 2013 11GEO621201KIA 00000000000000                                               004ASUNCION CUYOTEPEJI                                                
02567981       0000000000089768640200000000000203174050000000025458750000080006PRUEBA DE CONCEPTO INFRA 2013 11GEO621201KIA 00000000000000                                               008ASUNCION TLACOLULITA                                               
02567981       0000000000089768640200000000000212682810000000019786800000110006PRUEBA DE CONCEPTO INFRA 2013 11GEO621201KIA 00000000000000                                               011CALIHUALA                                                          
02567981       0000000000089768640200000000000216987250000000047345700000120006PRUEBA DE CONCEPTO INFRA 2013 11GEO621201KIA 00000000000000                                               012CANDELARIA LOXICHA                                                 
02567981       0000000000089768640200000000000214184952000000023814300000190006PRUEBA DE CONCEPTO INFRA 2013 11GEO621201KIA 00000000000000                                               019CONCEPCION PAPALO                                                  
02567981       0000000000089768640200000000000212549258000000021455800000220006PRUEBA DE CONCEPTO INFRA 2013 11GEO621201KIA 00000000000000                                               022COSOLTEPEC                                                         
02567981       0000000000089768640200000000000215666099000000156916700000230006PRUEBA DE CONCEPTO INFRA 2013 11GEO621201KIA 00000000000000                                               023CUILAPAM DE GUERRERO                                               
02567981       0000000000089768640200000000000217550316000000097422500000240006PRUEBA DE CONCEPTO INFRA 2013 11GEO621201KIA 00000000000000                                               024CUYAMECALCO VILLA DE ZARAGOZA                                      
02567981       0000000000089768640200000000000215350343000000052432600000260006PRUEBA DE CONCEPTO INFRA 2013 11GEO621201KIA 00000000000000                                               026CHALCATONGO DE HIDALGO                                             
02567981       0000000000089768640200000000000214184514000000056636900000270006PRUEBA DE CONCEPTO INFRA 2013 11GEO621201KIA 00000000000000                                               027CHIQUIHUITLAN DE BENITO JUAREZ                                     
02567981       0000000000089768640200000000000215517874000000047329300000310006PRUEBA DE CONCEPTO INFRA 2013 11GEO621201KIA 00000000000000                                               031TAMAZULAPAM DEL ESPIRITU SANTO                                     
02567981       0000000000089768640200000000000212682904000000026509050000320006PRUEBA DE CONCEPTO INFRA 2013 11GEO621201KIA 00000000000000                                               032FRESNILLO DE TRUJANO                                               
02567981       0000000000089768640200000000000212682557000000029770200000340006PRUEBA DE CONCEPTO INFRA 2013 11GEO621201KIA 00000000000000                                               034GUADALUPE DE RAMIREZ                                               
02567981       0000000000089768640200000000000209517891000000023899950000350006PRUEBA DE CONCEPTO INFRA 2013 11GEO621201KIA 00000000000000                                               035GUELATAO DE JUAREZ                                                 
02567981       0000000000089768640200000000000217987743000000031313300000360006PRUEBA DE CONCEPTO INFRA 2013 11GEO621201KIA 00000000000000                                               036GUEVEA DE HUMBOLDT                                                 
02567981       0000000000089768640200000000000217438311000000033826700000380006PRUEBA DE CONCEPTO INFRA 2013 11GEO621201KIA 00000000000000                                               038VILLA HIDALGO                                                      
02567981       0000000000089768640200000000000212959419000000059566050000420006PRUEBA DE CONCEPTO INFRA 2013 11GEO621201KIA 00000000000000                                               042IXTLAN DE JUAREZ                                                   
02567981       0000000000089768640200000000000673801351000000958795600000430006PRUEBA DE CONCEPTO INFRA 2013 11GEO621201KIA 00000000000000                                               043HEROICA CIUDAD DE JUCHITAN DE ZARAGOZA                             
02567981       0000000000089768640200000000000215208220000000105737650000450006PRUEBA DE CONCEPTO INFRA 2013 11GEO621201KIA 00000000000000                                               045MAGDALENA APASCO                                                   
02567981       0000000000089768640200000000000899141110000000028305500000480006PRUEBA DE CONCEPTO INFRA 2013 11GEO621201KIA 00000000000000                                               048MAGDALENA MIXTEPEC                                                 
02567981       0000000000089768640200000000000215210540000000038794800000500006PRUEBA DE CONCEPTO INFRA 2013 11GEO621201KIA 00000000000000                                               050MAGDALENA PENASCO                                                  
02567981       0000000000089768640200000000000215479226000000087888400000530006PRUEBA DE CONCEPTO INFRA 2013 11GEO621201KIA 00000000000000                                               053MAGDALENA TLACOTEPEC                                               
02567981       0000000000089768640200000000000212549333000000049456250000550006PRUEBA DE CONCEPTO INFRA 2013 11GEO621201KIA 00000000000000                                               055MARISCALA DE JUAREZ                                                
02567981       0000000000089768640200000000000213218421000000390842500000570006PRUEBA DE CONCEPTO INFRA 2013 11GEO621201KIA 00000000000000                                               057MATIAS ROMERO AVENDANO                                             
02567981       0000000000089768640200000000000215163758000000461408000000590006PRUEBA DE CONCEPTO INFRA 2013 11GEO621201KIA 00000000000000                                               059MIAHUATLAN DE PORFIRIO DIAZ                                        
02567981       0000000000089768640200000000000215499541000000048768900000610006PRUEBA DE CONCEPTO INFRA 2013 11GEO621201KIA 00000000000000                                               061MONJAS                                                             
02567981       0000000000089768640200000000000213507376000000020343950000620006PRUEBA DE CONCEPTO INFRA 2013 11GEO621201KIA 00000000000000                                               062NATIVIDAD                                                          
02567981       0000000000089768640200000000000215889991000000016943300000630006PRUEBA DE CONCEPTO INFRA 2013 11GEO621201KIA 00000000000000                                               063NAZARENO ETLA                                                      
02567981       0000000000089768640200000000000212549025000000034606000000650006PRUEBA DE CONCEPTO INFRA 2013 11GEO621201KIA 00000000000000                                               065IXPANTEPEC NIEVES                                                  
02567981       0000000000089768640200000000000215793856000000132917900000660006PRUEBA DE CONCEPTO INFRA 2013 11GEO621201KIA 00000000000000                                               066SANTIAGO NILTEPEC                                                  
02567981       0000000000089768640200000000000213218337000006958467450000670006PRUEBA DE CONCEPTO INFRA 2013 11GEO621201KIA 00000000000000                                               067OAXACA DE JUAREZ                                                   
02567981       0000000000089768640200000000000215162751000000059120650000700006PRUEBA DE CONCEPTO INFRA 2013 11GEO621201KIA 00000000000000                                               070PINOTEPA DE DON LUIS                                               
02567981       0000000000089768640200000000000212681943000000093459250000710006PRUEBA DE CONCEPTO INFRA 2013 11GEO621201KIA 00000000000000                                               071PLUMA HIDALGO                                                      
02567981       0000000000089768640200000000000215299170000000025898000000740006PRUEBA DE CONCEPTO INFRA 2013 11GEO621201KIA 00000000000000                                               074SANTA CATARINA QUIOQUITANI                                         
02567981       0000000000089768640200000000000673801463000000070807800000750006PRUEBA DE CONCEPTO INFRA 2013 11GEO621201KIA 00000000000000                                               075REFORMA DE PINEDA                                                  
02567981       0000000000089768640200000000000213968427000000780291400000790006PRUEBA DE CONCEPTO INFRA 2013 11GEO621201KIA 00000000000000                                               079SALINA CRUZ                                                        
02567981       0000000000089768640200000000000212549155000000022370800000810006PRUEBA DE CONCEPTO INFRA 2013 11GEO621201KIA 00000000000000                                               081SAN AGUSTIN ATENANGO                                               
02567981       0000000000089768640200000000000897687548000000027874400000820006PRUEBA DE CONCEPTO INFRA 2013 11GEO621201KIA 00000000000000                                               082SAN AGUSTIN CHAYUCO                                                
02567981       0000000000089768640200000000000216714933000000062371550000830006PRUEBA DE CONCEPTO INFRA 2013 11GEO621201KIA 00000000000000                                               083SAN AGUSTIN DE LAS JUNTAS                                          
02567981       0000000000089768640200000000000215349776000000036921950000840006PRUEBA DE CONCEPTO INFRA 2013 11GEO621201KIA 00000000000000                                               084SAN AGUSTIN ETLA                                                   
02567981       0000000000089768640200000000000214184859000000060775700000850006PRUEBA DE CONCEPTO INFRA 2013 11GEO621201KIA 00000000000000                                               085SAN AGUSTIN LOXICHA                                                
02567981       0000000000089768640200000000000215349860000000024667250000860006PRUEBA DE CONCEPTO INFRA 2013 11GEO621201KIA 00000000000000                                               086SAN AGUSTIN TLACOTEPEC                                             
02567981       0000000000089768640200000000000216244476000000058762500000870006PRUEBA DE CONCEPTO INFRA 2013 11GEO621201KIA 00000000000000                                               087SAN AGUSTIN YATARENI                                               
02567981       0000000000089768640200000000000214040692000000036795850000880006PRUEBA DE CONCEPTO INFRA 2013 11GEO621201KIA 00000000000000                                               088SAN ANDRES CABECERA NUEVA                                          
02567981       0000000000089768640200000000000212682771000000019206800000890006PRUEBA DE CONCEPTO INFRA 2013 11GEO621201KIA 00000000000000                                               089SAN ANDRES DINICUITI                                               
02567981       0000000000089768640200000000000214108127000000054620400000900006PRUEBA DE CONCEPTO INFRA 2013 11GEO621201KIA 00000000000000                                               090SAN ANDRES HUAXPALTEPEC                                            
02567981       0000000000089768640200000000000214041251000000097315300000910006PRUEBA DE CONCEPTO INFRA 2013 11GEO621201KIA 00000000000000                                               091SAN ANDRES HUAYAPAM                                                
02567981       0000000000089768640200000000000215697477000000028146950000920006PRUEBA DE CONCEPTO INFRA 2013 11GEO621201KIA 00000000000000                                               092SAN ANDRES IXTLAHUACA                                              
02567981       0000000000089768640200000000000215349833000000015313550000930006PRUEBA DE CONCEPTO INFRA 2013 11GEO621201KIA 00000000000000                                               093SAN ANDRES LAGUNAS                                                 
02567981       0000000000089768640200000000000216398397000000050527700000950006PRUEBA DE CONCEPTO INFRA 2013 11GEO621201KIA 00000000000000                                               095SAN ANDRES PAXTLAN                                                 
02567981       0000000000089768640200000000000216501562000000026295500000980006PRUEBA DE CONCEPTO INFRA 2013 11GEO621201KIA 00000000000000                                               098SAN ANDRES TEOTILALPAM                                             
02567981       0000000000089768640200000000000212682511000000029813700000990006PRUEBA DE CONCEPTO INFRA 2013 11GEO621201KIA 00000000000000                                               099SAN ANDRES TEPETLAPA                                               
02567981       0000000000089768640200000000000216210190000000024914800001000006PRUEBA DE CONCEPTO INFRA 2013 11GEO621201KIA 00000000000000                                               100SAN ANDRES YAA                                                     
02567981       0000000000089768640200000000000215669054000000026394550001010006PRUEBA DE CONCEPTO INFRA 2013 11GEO621201KIA 00000000000000                                               101SAN ANDRES ZABACHE                                                 
02567981       0000000000089768640200000000000214174113000000049889850001040006PRUEBA DE CONCEPTO INFRA 2013 11GEO621201KIA 00000000000000                                               104SAN ANTONINO EL ALTO                                               
02567981       0000000000089768640200000000000214184363000000030639600001050006PRUEBA DE CONCEPTO INFRA 2013 11GEO621201KIA 00000000000000                                               105SAN ANTONINO MONTE VERDE                                           
02567981       0000000000089768640200000000000212682940000000015125450001060006PRUEBA DE CONCEPTO INFRA 2013 11GEO621201KIA 00000000000000                                               106SAN ANTONIO ACUTLA                                                 
02567981       0000000000089768640200000000000218839746000000018290950001090006PRUEBA DE CONCEPTO INFRA 2013 11GEO621201KIA 00000000000000                                               109SAN ANTONIO NANAHUATIPAM                                           
02567981       0000000000089768640200000000000215350204000000026436900001100006PRUEBA DE CONCEPTO INFRA 2013 11GEO621201KIA 00000000000000                                               110SAN ANTONIO SINICAHUA                                              
02567981       0000000000089768640200000000000215590448000000042355300001110006PRUEBA DE CONCEPTO INFRA 2013 11GEO621201KIA 00000000000000                                               111SAN ANTONIO TEPETLAPA                                              
02567981       0000000000089768640200000000000217023034000000017927300001140006PRUEBA DE CONCEPTO INFRA 2013 11GEO621201KIA 00000000000000                                               114SAN BALTAZAR YATZACHI EL BAJO                                      
02567981       0000000000089768640200000000000214185146000000087757200001150006PRUEBA DE CONCEPTO INFRA 2013 11GEO621201KIA 00000000000000                                               115SAN BARTOLO COYOTEPEC                                              
02567981       0000000000089768640200000000000214186938000000030196750001160006PRUEBA DE CONCEPTO INFRA 2013 11GEO621201KIA 00000000000000                                               116SAN BARTOLOME AYAUTLA                                              
02567981       0000000000089768640200000000000215350156000000022445000001190006PRUEBA DE CONCEPTO INFRA 2013 11GEO621201KIA 00000000000000                                               119SAN BARTOLOME YUCUANE                                              
02567981       0000000000089768640200000000000215454380000000022963050001220006PRUEBA DE CONCEPTO INFRA 2013 11GEO621201KIA 00000000000000                                               122SAN BARTOLO YAUTEPEC                                               
02567981       0000000000089768640200000000000214116542000000109337350001240006PRUEBA DE CONCEPTO INFRA 2013 11GEO621201KIA 00000000000000                                               124SAN BLAS ATEMPA                                                    
02567981       0000000000089768640200000000000214187122000000044185200001260006PRUEBA DE CONCEPTO INFRA 2013 11GEO621201KIA 00000000000000                                               126SAN CRISTOBAL AMATLAN                                              
02567981       0000000000089768640200000000000216034659000000115275500001310006PRUEBA DE CONCEPTO INFRA 2013 11GEO621201KIA 00000000000000                                               131SAN DIONISIO OCOTEPEC                                              
02567981       0000000000089768640200000000000215350231000000033951150001330006PRUEBA DE CONCEPTO INFRA 2013 11GEO621201KIA 00000000000000                                               133SAN ESTEBAN ATATLAHUCA                                             
02567981       0000000000089768640200000000000216956797000000026108400001350006PRUEBA DE CONCEPTO INFRA 2013 11GEO621201KIA 00000000000000                                               135SAN FELIPE TEJALAPAM                                               
02567981       0000000000089768640200000000000212154812000000018536900001380006PRUEBA DE CONCEPTO INFRA 2013 11GEO621201KIA 00000000000000                                               138SAN FRANCISCO CAJONOS                                              
02567981       0000000000089768640200000000000216789847000000026764500001390006PRUEBA DE CONCEPTO INFRA 2013 11GEO621201KIA 00000000000000                                               139SAN FRANCISCO CHAPULAPA                                            
02567981       0000000000089768640200000000000673801388000000051564150001410006PRUEBA DE CONCEPTO INFRA 2013 11GEO621201KIA 00000000000000                                               141SAN FRANCISCO DEL MAR                                              
02567981       0000000000089768640200000000000216425163000000041957650001460006PRUEBA DE CONCEPTO INFRA 2013 11GEO621201KIA 00000000000000                                               146SAN FRANCISCO LOGUECHE                                             
02567981       0000000000089768640200000000000215858483000000037427350001480006PRUEBA DE CONCEPTO INFRA 2013 11GEO621201KIA 00000000000000                                               148SAN FRANCISCO OZOLOTEPEC                                           
02567981       0000000000089768640200000000000212682397000000024120200001520006PRUEBA DE CONCEPTO INFRA 2013 11GEO621201KIA 00000000000000                                               152SAN FRANCISCO TLAPANCINGO                                          
02567981       0000000000089768640200000000000215210223000000023594400001530006PRUEBA DE CONCEPTO INFRA 2013 11GEO621201KIA 00000000000000                                               153SAN GABRIEL MIXTEPEC                                               
02567981       0000000000089768640200000000000213097765000000038498850001540006PRUEBA DE CONCEPTO INFRA 2013 11GEO621201KIA 00000000000000                                               154SAN ILDEFONSO AMATLAN                                              
02567981       0000000000089768640200000000000217023089000000034326900001560006PRUEBA DE CONCEPTO INFRA 2013 11GEO621201KIA 00000000000000                                               156SAN ILDEFONSO VILLA ALTA                                           
02567981       0000000000089768640200000000000216598160000000036700500001590006PRUEBA DE CONCEPTO INFRA 2013 11GEO621201KIA 00000000000000                                               159SAN JERONIMO COATLAN                                               
02567981       0000000000089768640200000000000212548699000000026404000001600006PRUEBA DE CONCEPTO INFRA 2013 11GEO621201KIA 00000000000000                                               160SAN JERONIMO SILACAYOAPILLA                                        
02567981       0000000000089768640200000000000214181595000000024353200001610006PRUEBA DE CONCEPTO INFRA 2013 11GEO621201KIA 00000000000000                                               161SAN JERONIMO SOSOLA                                                
02567981       0000000000089768640200000000000212548532000000024922150001640006PRUEBA DE CONCEPTO INFRA 2013 11GEO621201KIA 00000000000000                                               164SAN JORGE NUCHITA                                                  
02567981       0000000000089768640200000000000212682708000000037125150001650006PRUEBA DE CONCEPTO INFRA 2013 11GEO621201KIA 00000000000000                                               165SAN JOSE AYUQUILA                                                  
02567981       0000000000089768640200000000000216398070000000019069800001680006PRUEBA DE CONCEPTO INFRA 2013 11GEO621201KIA 00000000000000                                               168SAN JOSE ESTANCIA GRANDE                                           
02567981       0000000000089768640200000000000213097783000000046610900001700006PRUEBA DE CONCEPTO INFRA 2013 11GEO621201KIA 00000000000000                                               170SAN JOSE LACHIGUIRI                                                
02567981       0000000000089768640200000000000213507189000000023498100001730006PRUEBA DE CONCEPTO INFRA 2013 11GEO621201KIA 00000000000000                                               173SAN JUAN ATEPEC                                                    
02567981       0000000000089768640200000000000218880412000000029832200001750006PRUEBA DE CONCEPTO INFRA 2013 11GEO621201KIA 00000000000000                                               175SAN JUAN BAUTISTA ATATLAHUCA                                       
02567981       0000000000089768640200000000000213333230000000043660600001770006PRUEBA DE CONCEPTO INFRA 2013 11GEO621201KIA 00000000000000                                               177SAN JUAN BAUTISTA CUICATLAN                                        
02567981       0000000000089768640200000000000214184336000000030788800001790006PRUEBA DE CONCEPTO INFRA 2013 11GEO621201KIA 00000000000000                                               179SAN JUAN BAUTISTA JAYACATLAN                                       
02567981       0000000000089768640200000000000215629656000000024668800001800006PRUEBA DE CONCEPTO INFRA 2013 11GEO621201KIA 00000000000000                                               180SAN JUAN BAUTISTA LO DE SOTO                                       
02567981       0000000000089768640200000000000212548635000000019949050001810006PRUEBA DE CONCEPTO INFRA 2013 11GEO621201KIA 00000000000000                                               181SAN JUAN BAUTISTA SUCHITEPEC                                       
02567981       0000000000089768640200000000000212548608000000028508950001830006PRUEBA DE CONCEPTO INFRA 2013 11GEO621201KIA 00000000000000                                               183SAN JUAN BAUTISTA TLACHICHILCO                                     
02567981       0000000000089768640200000000000212548297000003015043150001840006PRUEBA DE CONCEPTO INFRA 2013 11GEO621201KIA 00000000000000                                               184SAN JUAN BAUTISTA TUXTEPEC                                         
02567981       0000000000089768640200000000000212548578000000026259550001860006PRUEBA DE CONCEPTO INFRA 2013 11GEO621201KIA 00000000000000                                               186SAN JUAN CIENEGUILLA                                               
02567981       0000000000089768640200000000000214187074000000024921500001870006PRUEBA DE CONCEPTO INFRA 2013 11GEO621201KIA 00000000000000                                               187SAN JUAN COATZOSPAM                                                
02567981       0000000000089768640200000000000213507497000000011124100001910006PRUEBA DE CONCEPTO INFRA 2013 11GEO621201KIA 00000000000000                                               191SAN JUAN CHICOMEZUCHIL                                             
02567981       0000000000089768640200000000000215697422000000021282750001930006PRUEBA DE CONCEPTO INFRA 2013 11GEO621201KIA 00000000000000                                               193SAN JUAN DEL ESTADO                                                
02567981       0000000000089768640200000000000213507451000000018114650001960006PRUEBA DE CONCEPTO INFRA 2013 11GEO621201KIA 00000000000000                                               196SAN JUAN EVANGELISTA ANALCO                                        
02567981       0000000000089768640200000000000216316869000000018988300002010006PRUEBA DE CONCEPTO INFRA 2013 11GEO621201KIA 00000000000000                                               201SAN JUAN JUQUILA VIJANOS                                           
02567981       0000000000089768640200000000000214186880000000038794150002020006PRUEBA DE CONCEPTO INFRA 2013 11GEO621201KIA 00000000000000                                               202SAN JUAN LACHAO                                                    
02567981       0000000000089768640200000000000219441418000000019879000002060006PRUEBA DE CONCEPTO INFRA 2013 11GEO621201KIA 00000000000000                                               206SAN JUAN DE LOS CUES                                               
02567981       0000000000089768640200000000000214040544000000098958600002070006PRUEBA DE CONCEPTO INFRA 2013 11GEO621201KIA 00000000000000                                               207SAN JUAN MAZATLAN                                                  
02567981       0000000000089768640200000000000216240263000000041307800002080006PRUEBA DE CONCEPTO INFRA 2013 11GEO621201KIA 00000000000000                                               208SAN JUAN MIXTEPEC DTO 08                                           
02567981       0000000000089768640200000000000215969455000000030159550002090006PRUEBA DE CONCEPTO INFRA 2013 11GEO621201KIA 00000000000000                                               209SAN JUAN MIXTEPEC DTO 26                                           
02567981       0000000000089768640200000000000215349927000000030940400002100006PRUEBA DE CONCEPTO INFRA 2013 11GEO621201KIA 00000000000000                                               210SAN JUAN NUMI                                                      
02567981       0000000000089768640200000000000899141080000000031267750002160006PRUEBA DE CONCEPTO INFRA 2013 11GEO621201KIA 00000000000000                                               216SAN JUAN TABAA                                                     
02567981       0000000000089768640200000000000212682294000000025127200002180006PRUEBA DE CONCEPTO INFRA 2013 11GEO621201KIA 00000000000000                                               218SAN JUAN TEITA                                                     
02567981       0000000000089768640200000000000217017480000000036023850002200006PRUEBA DE CONCEPTO INFRA 2013 11GEO621201KIA 00000000000000                                               220SAN JUAN TEPEUXILA                                                 
02567981       0000000000089768640200000000000215349981000000025475900002210006PRUEBA DE CONCEPTO INFRA 2013 11GEO621201KIA 00000000000000                                               221SAN JUAN TEPOSCOLULA                                               
02567981       0000000000089768640200000000000895628800000000023495350002220006PRUEBA DE CONCEPTO INFRA 2013 11GEO621201KIA 00000000000000                                               222SAN JUAN YAEE                                                      
02567981       0000000000089768640200000000000214157862000000031125000002250006PRUEBA DE CONCEPTO INFRA 2013 11GEO621201KIA 00000000000000                                               225SAN LORENZO                                                        
02567981       0000000000089768640200000000000216830507000000040637750002360006PRUEBA DE CONCEPTO INFRA 2013 11GEO621201KIA 00000000000000                                               236SAN MARCIAL OZOLOTEPEC                                             
02567981       0000000000089768640200000000000212548840000000027493400002370006PRUEBA DE CONCEPTO INFRA 2013 11GEO621201KIA 00000000000000                                               237SAN MARCOS ARTEAGA                                                 
02567981       0000000000089768640200000000000215890063000000028800250002380006PRUEBA DE CONCEPTO INFRA 2013 11GEO621201KIA 00000000000000                                               238SAN MARTIN DE LOS CANSECOS                                         
02567981       0000000000089768640200000000000215350398000000018662100002390006PRUEBA DE CONCEPTO INFRA 2013 11GEO621201KIA 00000000000000                                               239SAN MARTIN HUAMELULPAM                                             
02567981       0000000000089768640200000000000215350268000000027648500002400006PRUEBA DE CONCEPTO INFRA 2013 11GEO621201KIA 00000000000000                                               240SAN MARTIN ITUNYOSO                                                
02567981       0000000000089768640200000000000217131014000000026729750002410006PRUEBA DE CONCEPTO INFRA 2013 11GEO621201KIA 00000000000000                                               241SAN MARTIN LACHILA                                                 
02567981       0000000000089768640200000000000210881598000000025467800002440006PRUEBA DE CONCEPTO INFRA 2013 11GEO621201KIA 00000000000000                                               244SAN MARTIN TOXPALAN                                                
02567981       0000000000089768640200000000000212548756000000017584100002450006PRUEBA DE CONCEPTO INFRA 2013 11GEO621201KIA 00000000000000                                               245SAN MARTIN ZACATEPEC                                               
02567981       0000000000089768640200000000000217375023000000020300000002460006PRUEBA DE CONCEPTO INFRA 2013 11GEO621201KIA 00000000000000                                               246SAN MATEO CAJONOS                                                  
02567981       0000000000089768640200000000000213507527000000027909900002470006PRUEBA DE CONCEPTO INFRA 2013 11GEO621201KIA 00000000000000                                               247CAPULALPAM DE MENDEZ                                               
02567981       0000000000089768640200000000000212682856000000030612400002510006PRUEBA DE CONCEPTO INFRA 2013 11GEO621201KIA 00000000000000                                               251SAN MATEO NEJAPAM                                                  
02567981       0000000000089768640200000000000215182692000000042213300002540006PRUEBA DE CONCEPTO INFRA 2013 11GEO621201KIA 00000000000000                                               254SAN MATEO RIO HONDO                                                
02567981       0000000000089768640200000000000212548783000000019169150002560006PRUEBA DE CONCEPTO INFRA 2013 11GEO621201KIA 00000000000000                                               256SAN MATEO TLAPILTEPEC                                              
02567981       0000000000089768640200000000000216714988000000026120450002570006PRUEBA DE CONCEPTO INFRA 2013 11GEO621201KIA 00000000000000                                               257SAN MELCHOR BETAZA                                                 
02567981       0000000000089768640200000000000215350044000000023330600002580006PRUEBA DE CONCEPTO INFRA 2013 11GEO621201KIA 00000000000000                                               258SAN MIGUEL ACHIUTLA                                                
02567981       0000000000089768640200000000000212548961000000050371300002590006PRUEBA DE CONCEPTO INFRA 2013 11GEO621201KIA 00000000000000                                               259SAN MIGUEL AHUEHUETITLAN                                           
02567981       0000000000089768640200000000000208421795000000144160550002610006PRUEBA DE CONCEPTO INFRA 2013 11GEO621201KIA 00000000000000                                               261SAN MIGUEL AMATITLAN                                               
02567981       0000000000089768640200000000000216316953000000014225350002620006PRUEBA DE CONCEPTO INFRA 2013 11GEO621201KIA 00000000000000                                               262SAN MIGUEL AMATLAN                                                 
02567981       0000000000089768640200000000000216930443000000042055800002630006PRUEBA DE CONCEPTO INFRA 2013 11GEO621201KIA 00000000000000                                               263SAN MIGUEL COATLAN                                                 
02567981       0000000000089768640200000000000214004911000000030252800002650006PRUEBA DE CONCEPTO INFRA 2013 11GEO621201KIA 00000000000000                                               265SAN MIGUEL CHIMALAPA                                               
02567981       0000000000089768640200000000000213507219000000017322550002670006PRUEBA DE CONCEPTO INFRA 2013 11GEO621201KIA 00000000000000                                               267SAN MIGUEL DEL RIO                                                 
02567981       0000000000089768640200000000000213936930000000024291400002710006PRUEBA DE CONCEPTO INFRA 2013 11GEO621201KIA 00000000000000                                               271SAN MIGUEL MIXTEPEC                                                
02567981       0000000000089768640200000000000214186750000000038273650002730006PRUEBA DE CONCEPTO INFRA 2013 11GEO621201KIA 00000000000000                                               273SAN MIGUEL PERAS                                                   
02567981       0000000000089768640200000000000215655815000000036356800002760006PRUEBA DE CONCEPTO INFRA 2013 11GEO621201KIA 00000000000000                                               276SAN MIGUEL SANTA FLOR                                              
02567981       0000000000089768640200000000000214184617000000124021900002770006PRUEBA DE CONCEPTO INFRA 2013 11GEO621201KIA 00000000000000                                               277VILLA SOLA DE VEGA                                                 
02567981       0000000000089768640200000000000216278583000000035991700002790006PRUEBA DE CONCEPTO INFRA 2013 11GEO621201KIA 00000000000000                                               279SAN MIGUEL SUCHIXTEPEC                                             
02567981       0000000000089768640200000000000213507152000000037064250002800006PRUEBA DE CONCEPTO INFRA 2013 11GEO621201KIA 00000000000000                                               280VILLA TALEA DE CASTRO                                              
02567981       0000000000089768640200000000000215482244000000017362800002820006PRUEBA DE CONCEPTO INFRA 2013 11GEO621201KIA 00000000000000                                               282SAN MIGUEL TENANGO                                                 
02567981       0000000000089768640200000000000213507077000000031404650002880006PRUEBA DE CONCEPTO INFRA 2013 11GEO621201KIA 00000000000000                                               288SAN MIGUEL YOTAO                                                   
02567981       0000000000089768640200000000000219610849000000024712200002890006PRUEBA DE CONCEPTO INFRA 2013 11GEO621201KIA 00000000000000                                               289SAN NICOLAS                                                        
02567981       0000000000089768640200000000000216620931000000028634100002910006PRUEBA DE CONCEPTO INFRA 2013 11GEO621201KIA 00000000000000                                               291SAN PABLO COATLAN                                                  
02567981       0000000000089768640200000000000215349682000000071519300002940006PRUEBA DE CONCEPTO INFRA 2013 11GEO621201KIA 00000000000000                                               294SAN PABLO HUITZO                                                   
02567981       0000000000089768640200000000000213507282000000021729750002960006PRUEBA DE CONCEPTO INFRA 2013 11GEO621201KIA 00000000000000                                               296SAN PABLO MACUILTIANGUIS                                           
02567981       0000000000089768640200000000000214040722000000029750350002970006PRUEBA DE CONCEPTO INFRA 2013 11GEO621201KIA 00000000000000                                               297SAN PABLO TIJALTEPEC                                               
02567981       0000000000089768640200000000000215686967000000032255200003070006PRUEBA DE CONCEPTO INFRA 2013 11GEO621201KIA 00000000000000                                               307SAN PEDRO HUAMELULA                                                
02567981       0000000000089768640200000000000217894896000000052062300003100006PRUEBA DE CONCEPTO INFRA 2013 11GEO621201KIA 00000000000000                                               310SAN PEDRO IXTLAHUACA                                               
02567981       0000000000089768640200000000000214181634000000025861700003110006PRUEBA DE CONCEPTO INFRA 2013 11GEO621201KIA 00000000000000                                               311SAN PEDRO JALTEPETONGO                                             
02567981       0000000000089768640200000000000215158204000000044339900003120006PRUEBA DE CONCEPTO INFRA 2013 11GEO621201KIA 00000000000000                                               312SAN PEDRO JICAYAN                                                  
02567981       0000000000089768640200000000000214184895000000026350400003130006PRUEBA DE CONCEPTO INFRA 2013 11GEO621201KIA 00000000000000                                               313SAN PEDRO JOCOTIPAC                                                
02567981       0000000000089768640200000000000216928404000000031982350003140006PRUEBA DE CONCEPTO INFRA 2013 11GEO621201KIA 00000000000000                                               314SAN PEDRO JUCHATENGO                                               
02567981       0000000000089768640200000000000214186787000000418693750003180006PRUEBA DE CONCEPTO INFRA 2013 11GEO621201KIA 00000000000000                                               318SAN PEDRO MIXTEPEC DTO 22                                          
02567981       0000000000089768640200000000000216972591000000012398500003190006PRUEBA DE CONCEPTO INFRA 2013 11GEO621201KIA 00000000000000                                               319SAN PEDRO MIXTEPEC DTO 26                                          
02567981       0000000000089768640200000000000212549089000000019029550003210006PRUEBA DE CONCEPTO INFRA 2013 11GEO621201KIA 00000000000000                                               321SAN PEDRO NOPALA                                                   
02567981       0000000000089768640200000000000214184747000000078673750003260006PRUEBA DE CONCEPTO INFRA 2013 11GEO621201KIA 00000000000000                                               326SAN PEDRO SOCHIAPAM                                                
02567981       0000000000089768640200000000000213507620000000025262100003350006PRUEBA DE CONCEPTO INFRA 2013 11GEO621201KIA 00000000000000                                               335SAN PEDRO YANERI                                                   
02567981       0000000000089768640200000000000213507406000000044169700003360006PRUEBA DE CONCEPTO INFRA 2013 11GEO621201KIA 00000000000000                                               336SAN PEDRO YOLOX                                                    
02567981       0000000000089768640200000000000215997560000000050923650003370006PRUEBA DE CONCEPTO INFRA 2013 11GEO621201KIA 00000000000000                                               337SAN PEDRO Y SAN PABLO AYUTLA                                       
02567981       0000000000089768640200000000000215890018000000131101150003380006PRUEBA DE CONCEPTO INFRA 2013 11GEO621201KIA 00000000000000                                               338VILLA DE ETLA                                                      
02567981       0000000000089768640200000000000215210577000000061833150003390006PRUEBA DE CONCEPTO INFRA 2013 11GEO621201KIA 00000000000000                                               339SAN PEDRO Y SAN PABLO TEPOSCOLULA                                  
02567981       0000000000089768640200000000000212682744000000018884850003400006PRUEBA DE CONCEPTO INFRA 2013 11GEO621201KIA 00000000000000                                               340SAN PEDRO Y SAN PABLO TEQUIXTEPEC                                  
02567981       0000000000089768640200000000000898356083000000017607900003410006PRUEBA DE CONCEPTO INFRA 2013 11GEO621201KIA 00000000000000                                               341SAN PEDRO YUCUNAMA                                                 
02567981       0000000000089768640200000000000212821084000000057679500003420006PRUEBA DE CONCEPTO INFRA 2013 11GEO621201KIA 00000000000000                                               342SAN RAYMUNDO JALPAN                                                
02567981       0000000000089768640200000000000217438281000000034626250003430006PRUEBA DE CONCEPTO INFRA 2013 11GEO621201KIA 00000000000000                                               343SAN SEBASTIAN ABASOLO                                              
02567981       0000000000089768640200000000000215439967000000045022900003440006PRUEBA DE CONCEPTO INFRA 2013 11GEO621201KIA 00000000000000                                               344SAN SEBASTIAN COATLAN                                              
02567981       0000000000089768640200000000000216392573000000027058800003450006PRUEBA DE CONCEPTO INFRA 2013 11GEO621201KIA 00000000000000                                               345SAN SEBASTIAN IXCAPA                                               
02567981       0000000000089768640200000000000215210474000000023800550003460006PRUEBA DE CONCEPTO INFRA 2013 11GEO621201KIA 00000000000000                                               346SAN SEBASTIAN NICANANDUTA                                          
02567981       0000000000089768640200000000000216800966000000027085000003470006PRUEBA DE CONCEPTO INFRA 2013 11GEO621201KIA 00000000000000                                               347SAN SEBASTIAN RIO HONDO                                            
02567981       0000000000089768640200000000000216715015000000170145000003500006PRUEBA DE CONCEPTO INFRA 2013 11GEO621201KIA 00000000000000                                               350SAN SEBASTIAN TUTLA                                                
02567981       0000000000089768640200000000000216011388000000036399600003510006PRUEBA DE CONCEPTO INFRA 2013 11GEO621201KIA 00000000000000                                               351SAN SIMON ALMOLONGAS                                               
02567981       0000000000089768640200000000000212549221000000029679100003520006PRUEBA DE CONCEPTO INFRA 2013 11GEO621201KIA 00000000000000                                               352SAN SIMON ZAHUATLAN                                                
02567981       0000000000089768640200000000000215335274000000054951200003530006PRUEBA DE CONCEPTO INFRA 2013 11GEO621201KIA 00000000000000                                               353SANTA ANA                                                          
02567981       0000000000089768640200000000000215158307000000040201600003580006PRUEBA DE CONCEPTO INFRA 2013 11GEO621201KIA 00000000000000                                               358SANTA ANA TLAPACOYAN                                               
02567981       0000000000089768640200000000000216316814000000026582150003590006PRUEBA DE CONCEPTO INFRA 2013 11GEO621201KIA 00000000000000                                               359SANTA ANA YARENI                                                   
02567981       0000000000089768640200000000000899821690000000058569400003600006PRUEBA DE CONCEPTO INFRA 2013 11GEO621201KIA 00000000000000                                               360SANTA ANA ZEGACHE                                                  
02567981       0000000000089768640200000000000213769017000000030099250003610006PRUEBA DE CONCEPTO INFRA 2013 11GEO621201KIA 00000000000000                                               361SANTA CATALINA QUIERI                                              
02567981       0000000000089768640200000000000213507572000000032350500003630006PRUEBA DE CONCEPTO INFRA 2013 11GEO621201KIA 00000000000000                                               363SANTA CATARINA IXTEPEJI                                            
02567981       0000000000089768640200000000000216853337000000019161800003650006PRUEBA DE CONCEPTO INFRA 2013 11GEO621201KIA 00000000000000                                               365SANTA CATARINA LACHATAO                                            
02567981       0000000000089768640200000000000216853494000000078740050003660006PRUEBA DE CONCEPTO INFRA 2013 11GEO621201KIA 00000000000000                                               366SANTA CATARINA LOXICHA                                             
02567981       0000000000089768640200000000000212154773000000031016850003690006PRUEBA DE CONCEPTO INFRA 2013 11GEO621201KIA 00000000000000                                               369SANTA CATARINA QUIANE                                              
02567981       0000000000089768640200000000000214040656000000028931300003710006PRUEBA DE CONCEPTO INFRA 2013 11GEO621201KIA 00000000000000                                               371SANTA CATARINA TICUA                                               
02567981       0000000000089768640200000000000215273264000000032906550003720006PRUEBA DE CONCEPTO INFRA 2013 11GEO621201KIA 00000000000000                                               372SANTA CATARINA YOSONOTU                                            
02567981       0000000000089768640200000000000212682463000000018543300003730006PRUEBA DE CONCEPTO INFRA 2013 11GEO621201KIA 00000000000000                                               373SANTA CATARINA ZAPOQUILA                                           
02567981       0000000000089768640200000000000213936864000000053700550003780006PRUEBA DE CONCEPTO INFRA 2013 11GEO621201KIA 00000000000000                                               378SANTA CRUZ MIXTEPEC                                                
02567981       0000000000089768640200000000000216064955000000019449000003800006PRUEBA DE CONCEPTO INFRA 2013 11GEO621201KIA 00000000000000                                               380SANTA CRUZ PAPALUTLA                                               
02567981       0000000000089768640200000000000212682584000000053706050003810006PRUEBA DE CONCEPTO INFRA 2013 11GEO621201KIA 00000000000000                                               381SANTA CRUZ TACACHE DE MINA                                         
02567981       0000000000089768640200000000000212682342000000016608800003830006PRUEBA DE CONCEPTO INFRA 2013 11GEO621201KIA 00000000000000                                               383SANTA CRUZ TAYATA                                                  
02567981       0000000000089768640200000000000214187083000000030295500003840006PRUEBA DE CONCEPTO INFRA 2013 11GEO621201KIA 00000000000000                                               384SANTA CRUZ XITLA                                                   
02567981       0000000000089768640200000000000215865605000000467146950003850006PRUEBA DE CONCEPTO INFRA 2013 11GEO621201KIA 00000000000000                                               385SANTA CRUZ XOXOCOTLAN                                              
02567981       0000000000089768640200000000000896798559000000068252000003860006PRUEBA DE CONCEPTO INFRA 2013 11GEO621201KIA 00000000000000                                               386SANTA CRUZ ZENZONTEPEC                                             
02567981       0000000000089768640200000000000215751007000000089896550003880006PRUEBA DE CONCEPTO INFRA 2013 11GEO621201KIA 00000000000000                                               388SANTA INES DEL MONTE                                               
02567981       0000000000089768640200000000000214184699000000034333700003890006PRUEBA DE CONCEPTO INFRA 2013 11GEO621201KIA 00000000000000                                               389SANTA INES YATZECHE                                                
02567981       0000000000089768640200000000000216923548000000040573000003910006PRUEBA DE CONCEPTO INFRA 2013 11GEO621201KIA 00000000000000                                               391SANTA LUCIA MIAHUATLAN                                             
02567981       0000000000089768640200000000000215253239000000057130200003920006PRUEBA DE CONCEPTO INFRA 2013 11GEO621201KIA 00000000000000                                               392SANTA LUCIA MONTEVERDE                                             
02567981       0000000000089768640200000000000214040629000000384562100003970006PRUEBA DE CONCEPTO INFRA 2013 11GEO621201KIA 00000000000000                                               397HEROICA CIUDAD DE TLAXIACO                                         
02567981       0000000000089768640200000000000214185089000000165442600003990006PRUEBA DE CONCEPTO INFRA 2013 11GEO621201KIA 00000000000000                                               399SANTA MARIA ATZOMPA                                                
02567981       0000000000089768640200000000000212548662000000026356200004000006PRUEBA DE CONCEPTO INFRA 2013 11GEO621201KIA 00000000000000                                               400SANTA MARIA CAMOTLAN                                               
02567981       0000000000089768640200000000000211809432000000192985450004010006PRUEBA DE CONCEPTO INFRA 2013 11GEO621201KIA 00000000000000                                               401SANTA MARIA COLOTEPEC                                              
02567981       0000000000089768640200000000000214101847000000020335600004020006PRUEBA DE CONCEPTO INFRA 2013 11GEO621201KIA 00000000000000                                               402SANTA MARIA CORTIJO                                                
02567981       0000000000089768640200000000000214184233000000042066150004030006PRUEBA DE CONCEPTO INFRA 2013 11GEO621201KIA 00000000000000                                               403SANTA MARIA COYOTEPEC                                              
02567981       0000000000089768640200000000000212548998000000031816250004050006PRUEBA DE CONCEPTO INFRA 2013 11GEO621201KIA 00000000000000                                               405VILLA DE CHILAPA DE DIAZ                                           
02567981       0000000000089768640200000000000217347646000000126665550004060006PRUEBA DE CONCEPTO INFRA 2013 11GEO621201KIA 00000000000000                                               406SANTA MARIA CHILCHOTLA                                             
02567981       0000000000089768640200000000000216259890000000036037800004070006PRUEBA DE CONCEPTO INFRA 2013 11GEO621201KIA 00000000000000                                               407SANTA MARIA CHIMALAPA                                              
02567981       0000000000089768640200000000000898356131000000024446000004080006PRUEBA DE CONCEPTO INFRA 2013 11GEO621201KIA 00000000000000                                               408SANTA MARIA DEL ROSARIO                                            
02567981       0000000000089768640200000000000216198270000000077399500004090006PRUEBA DE CONCEPTO INFRA 2013 11GEO621201KIA 00000000000000                                               409SANTA MARIA DEL TULE                                               
02567981       0000000000089768640200000000000217500508000000023512800004110006PRUEBA DE CONCEPTO INFRA 2013 11GEO621201KIA 00000000000000                                               411SANTA MARIA GUELACE                                                
02567981       0000000000089768640200000000000673801427000000027293500004120006PRUEBA DE CONCEPTO INFRA 2013 11GEO621201KIA 00000000000000                                               412SANTA MARIA GUIENAGATI                                             
02567981       0000000000089768640200000000000215657266000000026976900004150006PRUEBA DE CONCEPTO INFRA 2013 11GEO621201KIA 00000000000000                                               415SANTA MARIA IPALAPA                                                
02567981       0000000000089768640200000000000216108194000000026203400004160006PRUEBA DE CONCEPTO INFRA 2013 11GEO621201KIA 00000000000000                                               416SANTA MARIA IXCATLAN                                               
02567981       0000000000089768640200000000000213506995000000024154150004190006PRUEBA DE CONCEPTO INFRA 2013 11GEO621201KIA 00000000000000                                               419SANTA MARIA JALTIANGUIS                                            
02567981       0000000000089768640200000000000214184420000000023941700004200006PRUEBA DE CONCEPTO INFRA 2013 11GEO621201KIA 00000000000000                                               420SANTA MARIA LACHIXIO                                               
02567981       0000000000089768640200000000000215752871000000083359850004210006PRUEBA DE CONCEPTO INFRA 2013 11GEO621201KIA 00000000000000                                               421SANTA MARIA MIXTEQUILLA                                            
02567981       0000000000089768640200000000000216953246000000086146650004240006PRUEBA DE CONCEPTO INFRA 2013 11GEO621201KIA 00000000000000                                               424SANTA MARIA OZOLOTEPEC                                             
02567981       0000000000089768640200000000000217703439000000036006200004250006PRUEBA DE CONCEPTO INFRA 2013 11GEO621201KIA 00000000000000                                               425SANTA MARIA PAPALO                                                 
02567981       0000000000089768640200000000000218001039000000036985900004260006PRUEBA DE CONCEPTO INFRA 2013 11GEO621201KIA 00000000000000                                               426SANTA MARIA PENOLES                                                
02567981       0000000000089768640200000000000209864960000000074705550004270006PRUEBA DE CONCEPTO INFRA 2013 11GEO621201KIA 00000000000000                                               427SANTA MARIA PETAPA                                                 
02567981       0000000000089768640200000000000217017444000000025591000004290006PRUEBA DE CONCEPTO INFRA 2013 11GEO621201KIA 00000000000000                                               429SANTA MARIA SOLA                                                   
02567981       0000000000089768640200000000000215210634000000021913200004300006PRUEBA DE CONCEPTO INFRA 2013 11GEO621201KIA 00000000000000                                               430SANTA MARIA TATALTEPEC                                             
02567981       0000000000089768640200000000000218755958000000021801600004310006PRUEBA DE CONCEPTO INFRA 2013 11GEO621201KIA 00000000000000                                               431SANTA MARIA TECOMAVACA                                             
02567981       0000000000089768640200000000000217970165000000028106850004320006PRUEBA DE CONCEPTO INFRA 2013 11GEO621201KIA 00000000000000                                               432SANTA MARIA TEMAXCALAPA                                            
02567981       0000000000089768640200000000000212154670000000033725900004340006PRUEBA DE CONCEPTO INFRA 2013 11GEO621201KIA 00000000000000                                               434SANTA MARIA TEOPOXCO                                               
02567981       0000000000089768640200000000000215208172000000038256850004350006PRUEBA DE CONCEPTO INFRA 2013 11GEO621201KIA 00000000000000                                               435SANTA MARIA TEPANTLALI                                             
02567981       0000000000089768640200000000000219210182000000026319600004380006PRUEBA DE CONCEPTO INFRA 2013 11GEO621201KIA 00000000000000                                               438SANTA MARIA TLALIXTAC                                              
02567981       0000000000089768640200000000000217620620000000039585650004400006PRUEBA DE CONCEPTO INFRA 2013 11GEO621201KIA 00000000000000                                               440SANTA MARIA TOTOLAPILLA                                            
02567981       0000000000089768640200000000000215971793000000070509950004410006PRUEBA DE CONCEPTO INFRA 2013 11GEO621201KIA 00000000000000                                               441SANTA MARIA XADANI                                                 
02567981       0000000000089768640200000000000216316980000000014549400004430006PRUEBA DE CONCEPTO INFRA 2013 11GEO621201KIA 00000000000000                                               443SANTA MARIA YAVESIA                                                
02567981       0000000000089768640200000000000215350017000000025869600004450006PRUEBA DE CONCEPTO INFRA 2013 11GEO621201KIA 00000000000000                                               445SANTA MARIA YOSOYUA                                                
02567981       0000000000089768640200000000000898356195000000045919750004460006PRUEBA DE CONCEPTO INFRA 2013 11GEO621201KIA 00000000000000                                               446SANTA MARIA YUCUHITI                                               
02567981       0000000000089768640200000000000213902654000000017048100004530006PRUEBA DE CONCEPTO INFRA 2013 11GEO621201KIA 00000000000000                                               453SANTIAGO ASTATA                                                    
02567981       0000000000089768640200000000000215517838000000023243800004540006PRUEBA DE CONCEPTO INFRA 2013 11GEO621201KIA 00000000000000                                               454SANTIAGO ATITLAN                                                   
02567981       0000000000089768640200000000000212548877000000037850700004550006PRUEBA DE CONCEPTO INFRA 2013 11GEO621201KIA 00000000000000                                               455SANTIAGO AYUQUILILLA                                               
02567981       0000000000089768640200000000000216316908000000027788200004580006PRUEBA DE CONCEPTO INFRA 2013 11GEO621201KIA 00000000000000                                               458SANTIAGO COMALTEPEC                                                
02567981       0000000000089768640200000000000212682436000000055179700004590006PRUEBA DE CONCEPTO INFRA 2013 11GEO621201KIA 00000000000000                                               459SANTIAGO CHAZUMBA                                                  
02567981       0000000000089768640200000000000212549191000000054162550004620006PRUEBA DE CONCEPTO INFRA 2013 11GEO621201KIA 00000000000000                                               462SANTIAGO HUAJOLOTITLAN                                             
02567981       0000000000089768640200000000000214187047000000126011150004680006PRUEBA DE CONCEPTO INFRA 2013 11GEO621201KIA 00000000000000                                               468SANTIAGO JOCOTEPEC                                                 
02567981       0000000000089768640200000000000214156249000000026631150004700006PRUEBA DE CONCEPTO INFRA 2013 11GEO621201KIA 00000000000000                                               470SANTIAGO LACHIGUIRI                                                
02567981       0000000000089768640200000000000216853261000000026184400004710006PRUEBA DE CONCEPTO INFRA 2013 11GEO621201KIA 00000000000000                                               471SANTIAGO LALOPA                                                    
02567981       0000000000089768640200000000000215755612000000090111800004720006PRUEBA DE CONCEPTO INFRA 2013 11GEO621201KIA 00000000000000                                               472SANTIAGO LAOLLAGA                                                  
02567981       0000000000089768640200000000000213506977000000024460350004730006PRUEBA DE CONCEPTO INFRA 2013 11GEO621201KIA 00000000000000                                               473SANTIAGO LAXOPA                                                    
02567981       0000000000089768640200000000000897687575000000024274700004740006PRUEBA DE CONCEPTO INFRA 2013 11GEO621201KIA 00000000000000                                               474SANTIAGO LLANO GRANDE                                              
02567981       0000000000089768640200000000000217314013000000170347100004750006PRUEBA DE CONCEPTO INFRA 2013 11GEO621201KIA 00000000000000                                               475SANTIAGO MATATLAN                                                  
02567981       0000000000089768640200000000000212548907000000017318350004760006PRUEBA DE CONCEPTO INFRA 2013 11GEO621201KIA 00000000000000                                               476SANTIAGO MILTEPEC                                                  
02567981       0000000000089768640200000000000216591198000000032587400004770006PRUEBA DE CONCEPTO INFRA 2013 11GEO621201KIA 00000000000000                                               477SANTIAGO MINAS                                                     
02567981       0000000000089768640200000000000213333258000000019120100004780006PRUEBA DE CONCEPTO INFRA 2013 11GEO621201KIA 00000000000000                                               478SANTIAGO NACALTEPEC                                                
02567981       0000000000089768640200000000000215350110000000024711850004800006PRUEBA DE CONCEPTO INFRA 2013 11GEO621201KIA 00000000000000                                               480SANTIAGO NUNDICHE                                                  
02567981       0000000000089768640200000000000215349749000000084817550004830006PRUEBA DE CONCEPTO INFRA 2013 11GEO621201KIA 00000000000000                                               483SANTIAGO SUCHILQUITONGO                                            
02567981       0000000000089768640200000000000212548523000000102380050004860006PRUEBA DE CONCEPTO INFRA 2013 11GEO621201KIA 00000000000000                                               486VILLA TEJUPAM DE LA UNION                                          
02567981       0000000000089768640200000000000213938121000000035962150004870006PRUEBA DE CONCEPTO INFRA 2013 11GEO621201KIA 00000000000000                                               487SANTIAGO TENANGO                                                   
02567981       0000000000089768640200000000000215856032000000034812650004890006PRUEBA DE CONCEPTO INFRA 2013 11GEO621201KIA 00000000000000                                               489SANTIAGO TETEPEC                                                   
02567981       0000000000089768640200000000000216108149000000049836950004940006PRUEBA DE CONCEPTO INFRA 2013 11GEO621201KIA 00000000000000                                               494SANTIAGO TLAZOYALTEPEC                                             
02567981       0000000000089768640200000000000213507312000000022541000004960006PRUEBA DE CONCEPTO INFRA 2013 11GEO621201KIA 00000000000000                                               496SANTIAGO XIACUI                                                    
02567981       0000000000089768640200000000000214184925000000043207550004970006PRUEBA DE CONCEPTO INFRA 2013 11GEO621201KIA 00000000000000                                               497SANTIAGO YAITEPEC                                                  
02567981       0000000000089768640200000000000215350071000000032106600004990006PRUEBA DE CONCEPTO INFRA 2013 11GEO621201KIA 00000000000000                                               499SANTIAGO YOLOMECATL                                                
02567981       0000000000089768640200000000000212682669000000021761950005010006PRUEBA DE CONCEPTO INFRA 2013 11GEO621201KIA 00000000000000                                               501SANTIAGO YUCUYACHI                                                 
02567981       0000000000089768640200000000000213936967000000031026300005020006PRUEBA DE CONCEPTO INFRA 2013 11GEO621201KIA 00000000000000                                               502SANTIAGO ZACATEPEC                                                 
02567981       0000000000089768640200000000000213936828000000019471150005060006PRUEBA DE CONCEPTO INFRA 2013 11GEO621201KIA 00000000000000                                               506SANTO DOMINGO ALBARRADAS                                           
02567981       0000000000089768640200000000000215754400000000016065050005080006PRUEBA DE CONCEPTO INFRA 2013 11GEO621201KIA 00000000000000                                               508SANTO DOMINGO CHIHUITAN                                            
02567981       0000000000089768640200000000000216395967000000022300400005120006PRUEBA DE CONCEPTO INFRA 2013 11GEO621201KIA 00000000000000                                               512SANTO DOMINGO OZOLOTEPEC                                           
02567981       0000000000089768640200000000000214010042000000574079600005150006PRUEBA DE CONCEPTO INFRA 2013 11GEO621201KIA 00000000000000                                               515SANTO DOMINGO TEHUANTEPEC                                          
02567981       0000000000089768640200000000000216949986000000028779100005170006PRUEBA DE CONCEPTO INFRA 2013 11GEO621201KIA 00000000000000                                               517SANTO DOMINGO TEPUXTEPEC                                           
02567981       0000000000089768640200000000000893171393000000038060250005190006PRUEBA DE CONCEPTO INFRA 2013 11GEO621201KIA 00000000000000                                               519SANTO DOMINGO TOMALTEPEC                                           
02567981       0000000000089768640200000000000212682623000000092667200005200006PRUEBA DE CONCEPTO INFRA 2013 11GEO621201KIA 00000000000000                                               520SANTO DOMINGO TONALA                                               
02567981       0000000000089768640200000000000217017387000000020539000005220006PRUEBA DE CONCEPTO INFRA 2013 11GEO621201KIA 00000000000000                                               522SANTO DOMINGO XAGACIA                                              
02567981       0000000000089768640200000000000214040423000000030095550005230006PRUEBA DE CONCEPTO INFRA 2013 11GEO621201KIA 00000000000000                                               523SANTO DOMINGO YANHUITLAN                                           
02567981       0000000000089768640200000000000897565655000000045849700005270006PRUEBA DE CONCEPTO INFRA 2013 11GEO621201KIA 00000000000000                                               527SANTOS REYES PAPALO                                                
02567981       0000000000089768640200000000000212549052000000022277100005280006PRUEBA DE CONCEPTO INFRA 2013 11GEO621201KIA 00000000000000                                               528SANTOS REYES TEPEJILLO                                             
02567981       0000000000089768640200000000000212549128000000024063650005290006PRUEBA DE CONCEPTO INFRA 2013 11GEO621201KIA 00000000000000                                               529SANTOS REYES YUCUNA                                                
02567981       0000000000089768640200000000000215208257000000044891250005300006PRUEBA DE CONCEPTO INFRA 2013 11GEO621201KIA 00000000000000                                               530SANTO TOMAS JALIEZA                                                
02567981       0000000000089768640200000000000214184523000000024228800005310006PRUEBA DE CONCEPTO INFRA 2013 11GEO621201KIA 00000000000000                                               531SANTO TOMAS MAZALTEPEC                                             
02567981       0000000000089768640200000000000215210504000000056218450005320006PRUEBA DE CONCEPTO INFRA 2013 11GEO621201KIA 00000000000000                                               532SANTO TOMAS OCOTEPEC                                               
02567981       0000000000089768640200000000000214187140000000036891300005330006PRUEBA DE CONCEPTO INFRA 2013 11GEO621201KIA 00000000000000                                               533SANTO TOMAS TAMAZULAPAN                                            
02567981       0000000000089768640200000000000215350503000000018860400005360006PRUEBA DE CONCEPTO INFRA 2013 11GEO621201KIA 00000000000000                                               536SAN VICENTE NUNU                                                   
02567981       0000000000089768640200000000000215151063000000025685850005380006PRUEBA DE CONCEPTO INFRA 2013 11GEO621201KIA 00000000000000                                               538SITIO DE XITLAPEHUA                                                
02567981       0000000000089768640200000000000214181652000000052806450005390006PRUEBA DE CONCEPTO INFRA 2013 11GEO621201KIA 00000000000000                                               539SOLEDAD ETLA                                                       
02567981       0000000000089768640200000000000212548729000000088619450005400006PRUEBA DE CONCEPTO INFRA 2013 11GEO621201KIA 00000000000000                                               540VILLA DE TAMAZULAPAM DEL PROGRESO                                  
02567981       0000000000089768640200000000000217929145000000029457900005410006PRUEBA DE CONCEPTO INFRA 2013 11GEO621201KIA 00000000000000                                               541TANETZE DE ZARAGOZA                                                
02567981       0000000000089768640200000000000215210344000000028947200005430006PRUEBA DE CONCEPTO INFRA 2013 11GEO621201KIA 00000000000000                                               543TATALTEPEC DE VALDES                                               
02567981       0000000000089768640200000000000896798531000000023937100005440006PRUEBA DE CONCEPTO INFRA 2013 11GEO621201KIA 00000000000000                                               544TEOCOCUILCO DE MARCOS PEREZ                                        
02567981       0000000000089768640200000000000219385996000000026020050005470006PRUEBA DE CONCEPTO INFRA 2013 11GEO621201KIA 00000000000000                                               547TEOTONGO                                                           
02567981       0000000000089768640200000000000217619343000000041724550005480006PRUEBA DE CONCEPTO INFRA 2013 11GEO621201KIA 00000000000000                                               548TEPELMEME VILLA DE MORELOS                                         
02567981       0000000000089768640200000000000212549294000000134103850005490006PRUEBA DE CONCEPTO INFRA 2013 11GEO621201KIA 00000000000000                                               549HEROICA VILLA TEZOATLAN DE SEGURA Y LUNA CUNA DE                   
02567981       0000000000089768640200000000000216245558000000040275850005500006PRUEBA DE CONCEPTO INFRA 2013 11GEO621201KIA 00000000000000                                               550SAN JERONIMO TLACOCHAHUAYA                                         
02567981       0000000000089768640200000000000213936903000000058306550005540006PRUEBA DE CONCEPTO INFRA 2013 11GEO621201KIA 00000000000000                                               554TOTONTEPEC VILLA DE MORELOS                                        
02567981       0000000000089768640200000000000214184279000000038264250005550006PRUEBA DE CONCEPTO INFRA 2013 11GEO621201KIA 00000000000000                                               555TRINIDAD ZAACHILA                                                  
02567981       0000000000089768640200000000000212548420000000019764250005560006PRUEBA DE CONCEPTO INFRA 2013 11GEO621201KIA 00000000000000                                               556LA TRINIDAD VISTA HERMOSA                                          
02567981       0000000000089768640200000000000214184569000000016000200005580006PRUEBA DE CONCEPTO INFRA 2013 11GEO621201KIA 00000000000000                                               558VALERIO TRUJANO                                                    
02567981       0000000000089768640200000000000213401643000000339404800005650006PRUEBA DE CONCEPTO INFRA 2013 11GEO621201KIA 00000000000000                                               565VILLA DE ZAACHILA                                                  
02567981       0000000000089768640200000000000214184206000000028127600005660006PRUEBA DE CONCEPTO INFRA 2013 11GEO621201KIA 00000000000000                                               566SAN MATEO YUCUTINDO                                                
02567981       0000000000089768640200000000000212548934000000027597900005670006PRUEBA DE CONCEPTO INFRA 2013 11GEO621201KIA 00000000000000                                               567ZAPOTITLAN LAGUNAS                                                 
02567981       0000000000089768640200000000000212548381000000029748400005680006PRUEBA DE CONCEPTO INFRA 2013 11GEO621201KIA 00000000000000                                               568ZAPOTITLAN PALMAS                                                  
02567981       0000000000089768640200000000000216852947000000028700300005690006PRUEBA DE CONCEPTO INFRA 2013 11GEO621201KIA 00000000000000                                               569SANTA INES DE ZARAGOZA                                             
