04567981       0000000000089768641100002613700647232683000000045382700001720009INFRAESTRUCTURA ENERO 2014    11GEO621201KIA 00000000000000                                               172SAN JUAN ACHIUTLA                                                  
04567981       0000000000089768641100044614207000210757000000140521100001990009INFRAESTRUCTURA ENERO 2014    11GEO621201KIA 00000000000000                                               199SAN JUAN IHUALTEPEC                                                
04567981       0000000000089768641100012610001951823603000000201417600004360009INFRAESTRUCTURA ENERO 2014    11GEO621201KIA 00000000000000                                               436SANTA MARIA TEXCATITLAN                                            
04567981       0000000000089768641100012611001950516813000000044589100004790009INFRAESTRUCTURA ENERO 2014    11GEO621201KIA 00000000000000                                               479SANTIAGO NEJAPILLA                                                 
