02567981       0000000000089768641100000000000212682810000000146416200000110009INFRAESTRUCTURA ENERO 2014    11GEO621201KIA 00000000000000                                               011CALIHUALA                                                          
02567981       0000000000089768641100000000000215350204000000518359200001100009INFRAESTRUCTURA ENERO 2014    11GEO621201KIA 00000000000000                                               110SAN ANTONIO SINICAHUA                                              
02567981       0000000000089768641100000000000214185146000000423601800001150009INFRAESTRUCTURA ENERO 2014    11GEO621201KIA 00000000000000                                               115SAN BARTOLO COYOTEPEC                                              
02567981       0000000000089768641100000000000219441418000000246880500002060009INFRAESTRUCTURA ENERO 2014    11GEO621201KIA 00000000000000                                               206SAN JUAN DE LOS CUES                                               
02567981       0000000000089768641100000000000898356083000000019894700003410009INFRAESTRUCTURA ENERO 2014    11GEO621201KIA 00000000000000                                               341SAN PEDRO YUCUNAMA                                                 
02567981       0000000000089768641100000000000214185089000002118803500003990009INFRAESTRUCTURA ENERO 2014    11GEO621201KIA 00000000000000                                               399SANTA MARIA ATZOMPA                                                
02567981       0000000000089768641100000000000217620620000000117915600004400009INFRAESTRUCTURA ENERO 2014    11GEO621201KIA 00000000000000                                               440SANTA MARIA TOTOLAPILLA                                            
